{
  "_format": "hh-sol-artifact-1",
  "contractName": "ContractTemplates",
  "sourceName": "contracts/ContractTemplates.sol",
  "abi": [
    {
      "inputs": [],
      "stateMutability": "nonpayable",
      "type": "constructor"
    },
    {
      "inputs": [
        {
          "internalType": "address",
          "name": "owner",
          "type": "address"
        }
      ],
      "name": "OwnableInvalidOwner",
      "type": "error"
    },
    {
      "inputs": [
        {
          "internalType": "address",
          "name": "account",
          "type": "address"
        }
      ],
      "name": "OwnableUnauthorizedAccount",
      "type": "error"
    },
    {
      "inputs": [],
      "name": "ReentrancyGuardReentrantCall",
      "type": "error"
    },
    {
      "anonymous": false,
      "inputs": [
        {
          "indexed": true,
          "internalType": "address",
          "name": "contractAddress",
          "type": "address"
        },
        {
          "indexed": false,
          "internalType": "address[]",
          "name": "owners",
          "type": "address[]"
        }
      ],
      "name": "MultiSigDeployed",
      "type": "event"
    },
    {
      "anonymous": false,
      "inputs": [
        {
          "indexed": true,
          "internalType": "address",
          "name": "previousOwner",
          "type": "address"
        },
        {
          "indexed": true,
          "internalType": "address",
          "name": "newOwner",
          "type": "address"
        }
      ],
      "name": "OwnershipTransferred",
      "type": "event"
    },
    {
      "anonymous": false,
      "inputs": [
        {
          "indexed": true,
          "internalType": "address",
          "name": "contractAddress",
          "type": "address"
        },
        {
          "indexed": true,
          "internalType": "address",
          "name": "owner",
          "type": "address"
        }
      ],
      "name": "StakingContractDeployed",
      "type": "event"
    },
    {
      "anonymous": false,
      "inputs": [
        {
          "indexed": true,
          "internalType": "address",
          "name": "contractAddress",
          "type": "address"
        },
        {
          "indexed": true,
          "internalType": "address",
          "name": "beneficiary",
          "type": "address"
        }
      ],
      "name": "VestingContractDeployed",
      "type": "event"
    },
    {
      "inputs": [
        {
          "internalType": "address[]",
          "name": "owners",
          "type": "address[]"
        },
        {
          "internalType": "uint256",
          "name": "requiredSignatures",
          "type": "uint256"
        }
      ],
      "name": "deployMultiSigWallet",
      "outputs": [
        {
          "internalType": "address",
          "name": "contractAddress",
          "type": "address"
        }
      ],
      "stateMutability": "nonpayable",
      "type": "function"
    },
    {
      "inputs": [
        {
          "internalType": "address",
          "name": "stakingToken",
          "type": "address"
        },
        {
          "internalType": "address",
          "name": "rewardToken",
          "type": "address"
        },
        {
          "internalType": "uint256",
          "name": "rewardRate",
          "type": "uint256"
        }
      ],
      "name": "deployStakingContract",
      "outputs": [
        {
          "internalType": "address",
          "name": "contractAddress",
          "type": "address"
        }
      ],
      "stateMutability": "nonpayable",
      "type": "function"
    },
    {
      "inputs": [
        {
          "internalType": "address",
          "name": "token",
          "type": "address"
        },
        {
          "internalType": "address",
          "name": "beneficiary",
          "type": "address"
        },
        {
          "internalType": "uint256",
          "name": "totalAmount",
          "type": "uint256"
        },
        {
          "internalType": "uint256",
          "name": "startTime",
          "type": "uint256"
        },
        {
          "internalType": "uint256",
          "name": "duration",
          "type": "uint256"
        }
      ],
      "name": "deployVestingContract",
      "outputs": [
        {
          "internalType": "address",
          "name": "contractAddress",
          "type": "address"
        }
      ],
      "stateMutability": "nonpayable",
      "type": "function"
    },
    {
      "inputs": [],
      "name": "owner",
      "outputs": [
        {
          "internalType": "address",
          "name": "",
          "type": "address"
        }
      ],
      "stateMutability": "view",
      "type": "function"
    },
    {
      "inputs": [],
      "name": "renounceOwnership",
      "outputs": [],
      "stateMutability": "nonpayable",
      "type": "function"
    },
    {
      "inputs": [
        {
          "internalType": "address",
          "name": "newOwner",
          "type": "address"
        }
      ],
      "name": "transferOwnership",
      "outputs": [],
      "stateMutability": "nonpayable",
      "type": "function"
    }
  ],
  "bytecode": "0x608060405234801561001057600080fd5b50338061003757604051631e4fbdf760e01b81526000600482015260240160405180910390fd5b6100408161004a565b506001805561009a565b600080546001600160a01b038381166001600160a01b0319831681178455604051919092169283917f8be0079c531659141344cd1fd0a4f28419497f9722a3daafe3b4186f6b6457e09190a35050565b61349e806100a96000396000f3fe60806040523480156200001157600080fd5b50600436106200006a5760003560e01c80634115c92d146200006f578063715018a614620000a25780638da5cb5b14620000ae578063c057b57414620000c0578063d53e091b14620000d7578063f2fde38b14620000ee575b600080fd5b620000866200008036600462000838565b62000105565b6040516001600160a01b03909116815260200160405180910390f35b620000ac620002b9565b005b6000546001600160a01b031662000086565b62000086620000d136600462000879565b620002d1565b62000086620000e8366004620008e1565b6200052b565b620000ac620000ff366004620009ba565b62000703565b60006200011162000747565b6001600160a01b038416620001655760405162461bcd60e51b815260206004820152601560248201527424b73b30b634b21039ba30b5b4b733903a37b5b2b760591b60448201526064015b60405180910390fd5b6001600160a01b038316620001b45760405162461bcd60e51b815260206004820152601460248201527324b73b30b634b2103932bbb0b932103a37b5b2b760611b60448201526064016200015c565b60008211620002115760405162461bcd60e51b815260206004820152602260248201527f5265776172642072617465206d7573742062652067726561746572207468616e604482015261020360f41b60648201526084016200015c565b6000848484336040516200022590620007f1565b6001600160a01b039485168152928416602084015260408301919091529091166060820152608001604051809103906000f0801580156200026a573d6000803e3d6000fd5b5060405190925082915033906001600160a01b038316907fb33ca3007e6963e931eb002c84c2de907193c5e7d89466074057939fedda2c8a90600090a350620002b260018055565b9392505050565b620002c362000772565b620002cf6000620007a1565b565b6000620002dd62000747565b6001600160a01b038616620003255760405162461bcd60e51b815260206004820152600d60248201526c24b73b30b634b2103a37b5b2b760991b60448201526064016200015c565b6001600160a01b038516620003735760405162461bcd60e51b8152602060048201526013602482015272496e76616c69642062656e656669636961727960681b60448201526064016200015c565b60008411620003d15760405162461bcd60e51b815260206004820152602360248201527f546f74616c20616d6f756e74206d75737420626520677265617465722074686160448201526206e20360ec1b60648201526084016200015c565b428311620004225760405162461bcd60e51b815260206004820181905260248201527f53746172742074696d65206d75737420626520696e207468652066757475726560448201526064016200015c565b60008211620004745760405162461bcd60e51b815260206004820152601f60248201527f4475726174696f6e206d7573742062652067726561746572207468616e20300060448201526064016200015c565b600086868686866040516200048990620007ff565b6001600160a01b03958616815294909316602085015260408401919091526060830152608082015260a001604051809103906000f080158015620004d1573d6000803e3d6000fd5b509050809150856001600160a01b0316826001600160a01b03167f739fe22b8edefd6ce1fe32460f9cd54bf8e66fc7447f4c8a8131ce078a1988af60405160405180910390a3506200052260018055565b95945050505050565b60006200053762000747565b6002835110156200059f5760405162461bcd60e51b815260206004820152602b60248201527f4d756c74692d7369672077616c6c6574207265717569726573206174206c656160448201526a73742032206f776e65727360a81b60648201526084016200015c565b60008211620006045760405162461bcd60e51b815260206004820152602a60248201527f5265717569726564207369676e617475726573206d75737420626520677265616044820152690746572207468616e20360b41b60648201526084016200015c565b82518211156200066d5760405162461bcd60e51b815260206004820152602d60248201527f5265717569726564207369676e6174757265732063616e6e6f7420657863656560448201526c19081bdddb995c8818dbdd5b9d609a1b60648201526084016200015c565b600083836040516200067f906200080d565b6200068c92919062000a1e565b604051809103906000f080158015620006a9573d6000803e3d6000fd5b509050809150816001600160a01b03167f05eaf7382b122fb5f72db0ea2d1b09bfb4b5c3dc8cbff6ce35cd7c6316c72bc085604051620006ea919062000a42565b60405180910390a250620006fd60018055565b92915050565b6200070d62000772565b6001600160a01b0381166200073957604051631e4fbdf760e01b8152600060048201526024016200015c565b6200074481620007a1565b50565b6002600154036200076b57604051633ee5aeb560e01b815260040160405180910390fd5b6002600155565b6000546001600160a01b03163314620002cf5760405163118cdaa760e01b81523360048201526024016200015c565b600080546001600160a01b038381166001600160a01b0319831681178455604051919092169283917f8be0079c531659141344cd1fd0a4f28419497f9722a3daafe3b4186f6b6457e09190a35050565b610ae68062000a5883390190565b61074e806200153e83390190565b6117dd8062001c8c83390190565b80356001600160a01b03811681146200083357600080fd5b919050565b6000806000606084860312156200084e57600080fd5b62000859846200081b565b925062000869602085016200081b565b9150604084013590509250925092565b600080600080600060a086880312156200089257600080fd5b6200089d866200081b565b9450620008ad602087016200081b565b94979496505050506040830135926060810135926080909101359150565b634e487b7160e01b600052604160045260246000fd5b60008060408385031215620008f557600080fd5b823567ffffffffffffffff808211156200090e57600080fd5b818501915085601f8301126200092357600080fd5b81356020828211156200093a576200093a620008cb565b8160051b604051601f19603f83011681018181108682111715620009625762000962620008cb565b6040529283528183019350848101820192898411156200098157600080fd5b948201945b83861015620009aa576200099a866200081b565b8552948201949382019362000986565b9997909101359750505050505050565b600060208284031215620009cd57600080fd5b620002b2826200081b565b600081518084526020808501945080840160005b8381101562000a135781516001600160a01b031687529582019590820190600101620009ec565b509495945050505050565b60408152600062000a336040830185620009d8565b90508260208301529392505050565b602081526000620002b26020830184620009d856fe608060405234801561001057600080fd5b50604051610ae6380380610ae683398101604081905261002f91610118565b6001600055806001600160a01b03811661006357604051631e4fbdf760e01b81526000600482015260240160405180910390fd5b61006c816100aa565b5050600280546001600160a01b039485166001600160a01b031991821617909155600380549390941692169190911790915560045542600655610165565b600180546001600160a01b038381166001600160a01b0319831681179093556040519116919082907f8be0079c531659141344cd1fd0a4f28419497f9722a3daafe3b4186f6b6457e090600090a35050565b80516001600160a01b038116811461011357600080fd5b919050565b6000806000806080858703121561012e57600080fd5b610137856100fc565b9350610145602086016100fc565b92506040850151915061015a606086016100fc565b905092959194509250565b610972806101746000396000f3fe608060405234801561001057600080fd5b506004361061010a5760003560e01c80638b876347116100a2578063c8f33c9111610071578063c8f33c911461021b578063cd3daf9d14610224578063df136d651461022c578063f2fde38b14610235578063f7c618c11461024857600080fd5b80638b876347146101b75780638da5cb5b146101d7578063a694fc3a146101e8578063acc3a939146101fb57600080fd5b8063715018a6116100de578063715018a61461017257806372f702f31461017a5780637b0a47ee146101a5578063817b1cd2146101ae57600080fd5b80628cc2621461010f5780630700037d146101355780632e1a7d4d146101555780633d18b9121461016a575b600080fd5b61012261011d36600461085c565b61025b565b6040519081526020015b60405180910390f35b61012261014336600461085c565b600a6020526000908152604090205481565b61016861016336600461088c565b6102d8565b005b610168610485565b610168610578565b60025461018d906001600160a01b031681565b6040516001600160a01b03909116815260200161012c565b61012260045481565b61012260055481565b6101226101c536600461085c565b60096020526000908152604090205481565b6001546001600160a01b031661018d565b6101686101f636600461088c565b61058a565b61012261020936600461085c565b60086020526000908152604090205481565b61012260065481565b6101226106c5565b61012260075481565b61016861024336600461085c565b610723565b60035461018d906001600160a01b031681565b6001600160a01b0381166000908152600a60209081526040808320546009909252822054670de0b6b3a7640000906102916106c5565b61029b91906108bb565b6001600160a01b0385166000908152600860205260409020546102be91906108ce565b6102c891906108e5565b6102d29190610907565b92915050565b6102e061075e565b600081116103295760405162461bcd60e51b8152602060048201526011602482015270043616e6e6f74207769746864726177203607c1b60448201526064015b60405180910390fd5b336000908152600860205260409020548111156103885760405162461bcd60e51b815260206004820152601a60248201527f496e73756666696369656e74207374616b656420616d6f756e740000000000006044820152606401610320565b61039133610788565b80600560008282546103a391906108bb565b909155505033600090815260086020526040812080548392906103c79084906108bb565b909155505060025460405163a9059cbb60e01b8152336004820152602481018390526001600160a01b039091169063a9059cbb906044016020604051808303816000875af115801561041d573d6000803e3d6000fd5b505050506040513d601f19601f82011682018060405250810190610441919061091a565b5060405181815233907f7084f5476618d8e60b11ef0d7d3f06914655adb8793e28ff7f018d4c76d505d5906020015b60405180910390a26104826001600055565b50565b61048d61075e565b61049633610788565b336000908152600a6020526040902054801561056b57336000818152600a602052604080822091909155600354905163a9059cbb60e01b81526004810192909252602482018390526001600160a01b03169063a9059cbb906044016020604051808303816000875af1158015610510573d6000803e3d6000fd5b505050506040513d601f19601f82011682018060405250810190610534919061091a565b5060405181815233907fe2403640ba68fed3a2f88b7557551d1993f84b99bb10ff833f0cf8db0c5e04869060200160405180910390a25b506105766001600055565b565b6105806107dd565b610576600061080a565b61059261075e565b600081116105d35760405162461bcd60e51b815260206004820152600e60248201526d043616e6e6f74207374616b6520360941b6044820152606401610320565b6105dc33610788565b80600560008282546105ee9190610907565b90915550503360009081526008602052604081208054839290610612908490610907565b90915550506002546040516323b872dd60e01b8152336004820152306024820152604481018390526001600160a01b03909116906323b872dd906064016020604051808303816000875af115801561066e573d6000803e3d6000fd5b505050506040513d601f19601f82011682018060405250810190610692919061091a565b5060405181815233907f9e71bc8eea02a63969f509818f2dafb9254532904319f9dbda79b67bd34a5f3d90602001610470565b60006005546000036106d8575060075490565b6005546004546006546106eb90426108bb565b6106f591906108ce565b61070790670de0b6b3a76400006108ce565b61071191906108e5565b60075461071e9190610907565b905090565b61072b6107dd565b6001600160a01b03811661075557604051631e4fbdf760e01b815260006004820152602401610320565b6104828161080a565b60026000540361078157604051633ee5aeb560e01b815260040160405180910390fd5b6002600055565b6107906106c5565b600755426006556001600160a01b03811615610482576107af8161025b565b6001600160a01b0382166000908152600a602090815260408083209390935560075460099091529190205550565b6001546001600160a01b031633146105765760405163118cdaa760e01b8152336004820152602401610320565b600180546001600160a01b038381166001600160a01b0319831681179093556040519116919082907f8be0079c531659141344cd1fd0a4f28419497f9722a3daafe3b4186f6b6457e090600090a35050565b60006020828403121561086e57600080fd5b81356001600160a01b038116811461088557600080fd5b9392505050565b60006020828403121561089e57600080fd5b5035919050565b634e487b7160e01b600052601160045260246000fd5b818103818111156102d2576102d26108a5565b80820281158282048414176102d2576102d26108a5565b60008261090257634e487b7160e01b600052601260045260246000fd5b500490565b808201808211156102d2576102d26108a5565b60006020828403121561092c57600080fd5b8151801515811461088557600080fdfea2646970667358221220e4ccf6ea757238cb5f6775b744f38b6f73b20f35bd09ef0d8f010bbcfa3344dd64736f6c63430008140033608060405234801561001057600080fd5b5060405161074e38038061074e83398101604081905261002f9161010c565b338061005557604051631e4fbdf760e01b81526000600482015260240160405180910390fd5b61005e816100a0565b50600180546001600160a01b039687166001600160a01b031991821617909155600280549590961694169390931790935560035560049190915560055561015a565b600080546001600160a01b038381166001600160a01b0319831681178455604051919092169283917f8be0079c531659141344cd1fd0a4f28419497f9722a3daafe3b4186f6b6457e09190a35050565b80516001600160a01b038116811461010757600080fd5b919050565b600080600080600060a0868803121561012457600080fd5b61012d866100f0565b945061013b602087016100f0565b6040870151606088015160809098015196999198509695945092505050565b6105e5806101696000396000f3fe608060405234801561001057600080fd5b50600436106100cf5760003560e01c806378e979251161008c57806396132521116100665780639613252114610160578063dc25a30014610169578063f2fde38b146101a8578063fc0c546a146101bb57600080fd5b806378e979251461013e57806386d1a69f146101475780638da5cb5b1461014f57600080fd5b80630fb5a6b4146100d45780631a39d8ef146100f057806338af3eed146100f957806344b1231f146101245780635b9400811461012c578063715018a614610134575b600080fd5b6100dd60055481565b6040519081526020015b60405180910390f35b6100dd60035481565b60025461010c906001600160a01b031681565b6040516001600160a01b0390911681526020016100e7565b6100dd6101ce565b6100dd610229565b61013c610240565b005b6100dd60045481565b61013c610254565b6000546001600160a01b031661010c565b6100dd60065481565b6101716103e1565b604080516001600160a01b0390971687526020870195909552938501929092526060840152608083015260a082015260c0016100e7565b61013c6101b63660046104e2565b610427565b60015461010c906001600160a01b031681565b60006004544210156101e05750600090565b6005546004546101f09190610528565b42106101fd575060035490565b60055460045461020d9042610541565b60035461021a9190610554565b610224919061056b565b905090565b60006006546102366101ce565b6102249190610541565b610248610465565b6102526000610492565b565b6004544210156102ab5760405162461bcd60e51b815260206004820152601760248201527f56657374696e6720686173206e6f74207374617274656400000000000000000060448201526064015b60405180910390fd5b60006006546102b86101ce565b6102c29190610541565b90506000811161030b5760405162461bcd60e51b81526020600482015260146024820152734e6f20746f6b656e7320746f2072656c6561736560601b60448201526064016102a2565b806006600082825461031d9190610528565b909155505060015460025460405163a9059cbb60e01b81526001600160a01b0391821660048201526024810184905291169063a9059cbb906044016020604051808303816000875af1158015610377573d6000803e3d6000fd5b505050506040513d601f19601f8201168201806040525081019061039b919061058d565b506002546040518281526001600160a01b03909116907fc7798891864187665ac6dd119286e44ec13f014527aeeb2b8eb3fd413df931799060200160405180910390a250565b600080600080600080600260009054906101000a90046001600160a01b03166003546004546005546006546104146101ce565b949b939a50919850965094509092509050565b61042f610465565b6001600160a01b03811661045957604051631e4fbdf760e01b8152600060048201526024016102a2565b61046281610492565b50565b6000546001600160a01b031633146102525760405163118cdaa760e01b81523360048201526024016102a2565b600080546001600160a01b038381166001600160a01b0319831681178455604051919092169283917f8be0079c531659141344cd1fd0a4f28419497f9722a3daafe3b4186f6b6457e09190a35050565b6000602082840312156104f457600080fd5b81356001600160a01b038116811461050b57600080fd5b9392505050565b634e487b7160e01b600052601160045260246000fd5b8082018082111561053b5761053b610512565b92915050565b8181038181111561053b5761053b610512565b808202811582820484141761053b5761053b610512565b60008261058857634e487b7160e01b600052601260045260246000fd5b500490565b60006020828403121561059f57600080fd5b8151801515811461050b57600080fdfea2646970667358221220d8b538afd551a2ec231c02efc657e31fc1c0a1552b623ff7f971b815b9bcbde264736f6c6343000814003360806040523480156200001157600080fd5b50604051620017dd380380620017dd833981016040819052620000349162000383565b33806200005c57604051631e4fbdf760e01b8152600060048201526024015b60405180910390fd5b620000678162000300565b50600282511015620000d05760405162461bcd60e51b815260206004820152602b60248201527f4d756c74692d7369672077616c6c6574207265717569726573206174206c656160448201526a73742032206f776e65727360a81b606482015260840162000053565b60008111620001355760405162461bcd60e51b815260206004820152602a60248201527f5265717569726564207369676e617475726573206d75737420626520677265616044820152690746572207468616e20360b41b606482015260840162000053565b81518111156200019e5760405162461bcd60e51b815260206004820152602d60248201527f5265717569726564207369676e6174757265732063616e6e6f7420657863656560448201526c19081bdddb995c8818dbdd5b9d609a1b606482015260840162000053565b60005b8251811015620002f5576000838281518110620001c257620001c26200045d565b6020026020010151905060006001600160a01b0316816001600160a01b031603620002205760405162461bcd60e51b815260206004820152600d60248201526c24b73b30b634b21037bbb732b960991b604482015260640162000053565b6001600160a01b03811660009081526001602052604090205460ff16156200027e5760405162461bcd60e51b815260206004820152601060248201526f4f776e6572206e6f7420756e6971756560801b604482015260640162000053565b6001600160a01b031660008181526001602081905260408220805460ff1916821790556002805491820181559091527f405787fa12a823e0f2b7631cc41b3ba8828b3321ca811111fa75cd3aa3bb5ace0180546001600160a01b031916909117905580620002ec8162000473565b915050620001a1565b50600355506200049b565b600080546001600160a01b038381166001600160a01b0319831681178455604051919092169283917f8be0079c531659141344cd1fd0a4f28419497f9722a3daafe3b4186f6b6457e09190a35050565b634e487b7160e01b600052604160045260246000fd5b80516001600160a01b03811681146200037e57600080fd5b919050565b600080604083850312156200039757600080fd5b82516001600160401b0380821115620003af57600080fd5b818501915085601f830112620003c457600080fd5b8151602082821115620003db57620003db62000350565b8160051b604051601f19603f8301168101818110868211171562000403576200040362000350565b6040529283528183019350848101820192898411156200042257600080fd5b948201945b838610156200044b576200043b8662000366565b8552948201949382019362000427565b97909101519698969750505050505050565b634e487b7160e01b600052603260045260246000fd5b6000600182016200049457634e487b7160e01b600052601160045260246000fd5b5060010190565b61133280620004ab6000396000f3fe6080604052600436106101025760003560e01c806380f59a6511610095578063a0e67e2b11610064578063a0e67e2b146102fe578063c01a8c8414610320578063c642747414610340578063ee22610b14610360578063f2fde38b1461038057600080fd5b806380f59a651461026f5780638d068043146102aa5780638da5cb5b146102c05780639ace38c2146102de57600080fd5b806333ea3dc8116100d157806333ea3dc8146101cc578063568d9c2e146101fd57806368ea8f1f14610221578063715018a61461025a57600080fd5b8063025e7c271461010e57806320ea8d861461014b5780632e7700f01461016d5780632f54bf6e1461018c57600080fd5b3661010957005b600080fd5b34801561011a57600080fd5b5061012e610129366004610df2565b6103a0565b6040516001600160a01b0390911681526020015b60405180910390f35b34801561015757600080fd5b5061016b610166366004610df2565b6103ca565b005b34801561017957600080fd5b506005545b604051908152602001610142565b34801561019857600080fd5b506101bc6101a7366004610e27565b60016020526000908152604090205460ff1681565b6040519015158152602001610142565b3480156101d857600080fd5b506101ec6101e7366004610df2565b610565565b604051610142959493929190610e49565b34801561020957600080fd5b50610212610660565b60405161014293929190610f08565b34801561022d57600080fd5b506101bc61023c366004610e27565b6001600160a01b031660009081526001602052604090205460ff1690565b34801561026657600080fd5b5061016b6106d7565b34801561027b57600080fd5b506101bc61028a366004610f2d565b600460209081526000928352604080842090915290825290205460ff1681565b3480156102b657600080fd5b5061017e60035481565b3480156102cc57600080fd5b506000546001600160a01b031661012e565b3480156102ea57600080fd5b506101ec6102f9366004610df2565b6106eb565b34801561030a57600080fd5b506103136107c4565b6040516101429190610f59565b34801561032c57600080fd5b5061016b61033b366004610df2565b610826565b34801561034c57600080fd5b5061017e61035b366004610f6c565b6109c0565b34801561036c57600080fd5b5061016b61037b366004610df2565b610b24565b34801561038c57600080fd5b5061016b61039b366004610e27565b610d37565b600281815481106103b057600080fd5b6000918252602090912001546001600160a01b0316905081565b3360009081526001602052604090205460ff166104025760405162461bcd60e51b81526004016103f990610ff3565b60405180910390fd5b600554819081106104255760405162461bcd60e51b81526004016103f990611019565b816005818154811061043957610439611050565b600091825260209091206003600590920201015460ff161561046d5760405162461bcd60e51b81526004016103f990611066565b60006005848154811061048257610482611050565b600091825260208083208784526004825260408085203386529092529220546005909102909101915060ff166104fa5760405162461bcd60e51b815260206004820152601d60248201527f5472616e73616374696f6e20616c726561647920636f6e6669726d656400000060448201526064016103f9565b600181600401600082825461050f91906110b3565b90915550506000848152600460209081526040808320338085529252808320805460ff1916905551909186917f4cd471041f6b9ff47536a54a3d3ab62d0fa9dd5e36c0418b294b1673acb318819190a350505050565b600080606060008060006005878154811061058257610582611050565b6000918252602090912060059091020180546001820154600383015460048401546002850180549596506001600160a01b039094169492939260ff9092169183906105cc906110cc565b80601f01602080910402602001604051908101604052809291908181526020018280546105f8906110cc565b80156106455780601f1061061a57610100808354040283529160200191610645565b820191906000526020600020905b81548152906001019060200180831161062857829003601f168201915b50505050509250955095509550955095505091939590929450565b60606000806002600354600280549050828054806020026020016040519081016040528092919081815260200182805480156106c557602002820191906000526020600020905b81546001600160a01b031681526001909101906020018083116106a7575b50505050509250925092509250909192565b6106df610d75565b6106e96000610da2565b565b600581815481106106fb57600080fd5b60009182526020909120600590910201805460018201546002830180546001600160a01b039093169450909291610731906110cc565b80601f016020809104026020016040519081016040528092919081815260200182805461075d906110cc565b80156107aa5780601f1061077f576101008083540402835291602001916107aa565b820191906000526020600020905b81548152906001019060200180831161078d57829003601f168201915b505050506003830154600490930154919260ff1691905085565b6060600280548060200260200160405190810160405280929190818152602001828054801561081c57602002820191906000526020600020905b81546001600160a01b031681526001909101906020018083116107fe575b5050505050905090565b3360009081526001602052604090205460ff166108555760405162461bcd60e51b81526004016103f990610ff3565b600554819081106108785760405162461bcd60e51b81526004016103f990611019565b816005818154811061088c5761088c611050565b600091825260209091206003600590920201015460ff16156108c05760405162461bcd60e51b81526004016103f990611066565b6000838152600460209081526040808320338452909152902054839060ff161561092c5760405162461bcd60e51b815260206004820152601d60248201527f5472616e73616374696f6e20616c726561647920636f6e6669726d656400000060448201526064016103f9565b60006005858154811061094157610941611050565b9060005260206000209060050201905060018160040160008282546109669190611106565b90915550506000858152600460209081526040808320338085529252808320805460ff1916600117905551909187917f15c2f311c9e0f53b50388279894aeff029a3457884a6601e924fca879e12adcc9190a35050505050565b3360009081526001602052604081205460ff166109ef5760405162461bcd60e51b81526004016103f990610ff3565b600580549050905060056040518060a00160405280876001600160a01b0316815260200186815260200185858080601f01602080910402602001604051908101604052809392919081815260200183838082843760009201829052509385525050506020808301829052604092830182905284546001808201875595835291819020845160059093020180546001600160a01b0319166001600160a01b03909316929092178255830151938101939093558101519091906002820190610ab5908261117e565b50606082015160038201805460ff1916911515919091179055608090910151600490910155604051339082907f2ecf8c4571be1f8a0b1e6feaa711128f3f8038e97869aa59d0f595e21f50eaa090610b1490899089908990899061123e565b60405180910390a3949350505050565b3360009081526001602052604090205460ff16610b535760405162461bcd60e51b81526004016103f990610ff3565b60055481908110610b765760405162461bcd60e51b81526004016103f990611019565b8160058181548110610b8a57610b8a611050565b600091825260209091206003600590920201015460ff1615610bbe5760405162461bcd60e51b81526004016103f990611066565b600060058481548110610bd357610bd3611050565b9060005260206000209060050201905060035481600401541015610c395760405162461bcd60e51b815260206004820152601a60248201527f43616e6e6f742065786563757465207472616e73616374696f6e00000000000060448201526064016103f9565b60038101805460ff191660019081179091558154908201546040516000926001600160a01b03169190610c70906002860190611286565b60006040518083038185875af1925050503d8060008114610cad576040519150601f19603f3d011682016040523d82523d6000602084013e610cb2565b606091505b5050905080610d035760405162461bcd60e51b815260206004820152601c60248201527f5472616e73616374696f6e20657865637574696f6e206661696c65640000000060448201526064016103f9565b604051339086907fefc13bdcf58f184ea7cae26b499fb33b539e01d0197cea456f3ada289b8cf19b90600090a35050505050565b610d3f610d75565b6001600160a01b038116610d6957604051631e4fbdf760e01b8152600060048201526024016103f9565b610d7281610da2565b50565b6000546001600160a01b031633146106e95760405163118cdaa760e01b81523360048201526024016103f9565b600080546001600160a01b038381166001600160a01b0319831681178455604051919092169283917f8be0079c531659141344cd1fd0a4f28419497f9722a3daafe3b4186f6b6457e09190a35050565b600060208284031215610e0457600080fd5b5035919050565b80356001600160a01b0381168114610e2257600080fd5b919050565b600060208284031215610e3957600080fd5b610e4282610e0b565b9392505050565b60018060a01b038616815260006020868184015260a0604084015285518060a085015260005b81811015610e8b5787810183015185820160c001528201610e6f565b50600060c0828601015260c0601f19601f83011685010192505050610eb4606083018515159052565b8260808301529695505050505050565b600081518084526020808501945080840160005b83811015610efd5781516001600160a01b031687529582019590820190600101610ed8565b509495945050505050565b606081526000610f1b6060830186610ec4565b60208301949094525060400152919050565b60008060408385031215610f4057600080fd5b82359150610f5060208401610e0b565b90509250929050565b602081526000610e426020830184610ec4565b60008060008060608587031215610f8257600080fd5b610f8b85610e0b565b935060208501359250604085013567ffffffffffffffff80821115610faf57600080fd5b818701915087601f830112610fc357600080fd5b813581811115610fd257600080fd5b886020828501011115610fe457600080fd5b95989497505060200194505050565b6020808252600c908201526b2737ba1030b71037bbb732b960a11b604082015260600190565b6020808252601a908201527f5472616e73616374696f6e20646f6573206e6f74206578697374000000000000604082015260600190565b634e487b7160e01b600052603260045260246000fd5b6020808252601c908201527f5472616e73616374696f6e20616c726561647920657865637574656400000000604082015260600190565b634e487b7160e01b600052601160045260246000fd5b818103818111156110c6576110c661109d565b92915050565b600181811c908216806110e057607f821691505b60208210810361110057634e487b7160e01b600052602260045260246000fd5b50919050565b808201808211156110c6576110c661109d565b634e487b7160e01b600052604160045260246000fd5b601f82111561117957600081815260208120601f850160051c810160208610156111565750805b601f850160051c820191505b8181101561117557828155600101611162565b5050505b505050565b815167ffffffffffffffff81111561119857611198611119565b6111ac816111a684546110cc565b8461112f565b602080601f8311600181146111e157600084156111c95750858301515b600019600386901b1c1916600185901b178555611175565b600085815260208120601f198616915b82811015611210578886015182559484019460019091019084016111f1565b508582101561122e5787850151600019600388901b60f8161c191681555b5050505050600190811b01905550565b6001600160a01b0385168152602081018490526060604082018190528101829052818360808301376000818301608090810191909152601f909201601f191601019392505050565b6000808354611294816110cc565b600182811680156112ac57600181146112c1576112f0565b60ff19841687528215158302870194506112f0565b8760005260208060002060005b858110156112e75781548a8201529084019082016112ce565b50505082870194505b5092969550505050505056fea2646970667358221220afd018efa1c5129610574b78205967003d17d74140ed728e3d8b1012009cb7ca64736f6c63430008140033a26469706673582212209e0b26b9f8be025e56208528f51dd430f5730c6200b80be91b3259d821f652a964736f6c63430008140033",
  "linkReferences": {},
  "deployedLinkReferences": {}
}