{
  "_format": "hh-sol-artifact-1",
  "contractName": "ERC1155Factory",
  "sourceName": "contracts/ERC1155Factory.sol",
  "abi": [
    {
      "inputs": [],
      "stateMutability": "nonpayable",
      "type": "constructor"
    },
    {
      "inputs": [
        {
          "internalType": "address",
          "name": "owner",
          "type": "address"
        }
      ],
      "name": "OwnableInvalidOwner",
      "type": "error"
    },
    {
      "inputs": [
        {
          "internalType": "address",
          "name": "account",
          "type": "address"
        }
      ],
      "name": "OwnableUnauthorizedAccount",
      "type": "error"
    },
    {
      "anonymous": false,
      "inputs": [
        {
          "indexed": true,
          "internalType": "address",
          "name": "contractAddress",
          "type": "address"
        },
        {
          "indexed": false,
          "internalType": "string",
          "name": "name",
          "type": "string"
        },
        {
          "indexed": false,
          "internalType": "string",
          "name": "uri",
          "type": "string"
        },
        {
          "indexed": true,
          "internalType": "address",
          "name": "creator",
          "type": "address"
        },
        {
          "indexed": false,
          "internalType": "bool",
          "name": "mintable",
          "type": "bool"
        },
        {
          "indexed": false,
          "internalType": "bool",
          "name": "burnable",
          "type": "bool"
        },
        {
          "indexed": false,
          "internalType": "bool",
          "name": "pausable",
          "type": "bool"
        },
        {
          "indexed": false,
          "internalType": "bool",
          "name": "supplyTracked",
          "type": "bool"
        }
      ],
      "name": "MultiTokenCreated",
      "type": "event"
    },
    {
      "anonymous": false,
      "inputs": [
        {
          "indexed": true,
          "internalType": "address",
          "name": "previousOwner",
          "type": "address"
        },
        {
          "indexed": true,
          "internalType": "address",
          "name": "newOwner",
          "type": "address"
        }
      ],
      "name": "OwnershipTransferred",
      "type": "event"
    },
    {
      "inputs": [
        {
          "internalType": "address",
          "name": "",
          "type": "address"
        }
      ],
      "name": "contractCreators",
      "outputs": [
        {
          "internalType": "address",
          "name": "",
          "type": "address"
        }
      ],
      "stateMutability": "view",
      "type": "function"
    },
    {
      "inputs": [
        {
          "internalType": "string",
          "name": "name",
          "type": "string"
        },
        {
          "internalType": "string",
          "name": "uri",
          "type": "string"
        },
        {
          "internalType": "bool",
          "name": "mintable",
          "type": "bool"
        },
        {
          "internalType": "bool",
          "name": "burnable",
          "type": "bool"
        },
        {
          "internalType": "bool",
          "name": "pausable",
          "type": "bool"
        },
        {
          "internalType": "bool",
          "name": "supplyTracked",
          "type": "bool"
        }
      ],
      "name": "createMultiToken",
      "outputs": [
        {
          "internalType": "address",
          "name": "",
          "type": "address"
        }
      ],
      "stateMutability": "nonpayable",
      "type": "function"
    },
    {
      "inputs": [
        {
          "internalType": "uint256",
          "name": "",
          "type": "uint256"
        }
      ],
      "name": "createdContracts",
      "outputs": [
        {
          "internalType": "address",
          "name": "",
          "type": "address"
        }
      ],
      "stateMutability": "view",
      "type": "function"
    },
    {
      "inputs": [],
      "name": "getAllContracts",
      "outputs": [
        {
          "internalType": "address[]",
          "name": "",
          "type": "address[]"
        }
      ],
      "stateMutability": "view",
      "type": "function"
    },
    {
      "inputs": [],
      "name": "getContractCount",
      "outputs": [
        {
          "internalType": "uint256",
          "name": "",
          "type": "uint256"
        }
      ],
      "stateMutability": "view",
      "type": "function"
    },
    {
      "inputs": [
        {
          "internalType": "address",
          "name": "creator",
          "type": "address"
        }
      ],
      "name": "getContractsByCreator",
      "outputs": [
        {
          "internalType": "address[]",
          "name": "",
          "type": "address[]"
        }
      ],
      "stateMutability": "view",
      "type": "function"
    },
    {
      "inputs": [
        {
          "internalType": "address",
          "name": "",
          "type": "address"
        }
      ],
      "name": "multiTokens",
      "outputs": [
        {
          "internalType": "string",
          "name": "name",
          "type": "string"
        },
        {
          "internalType": "string",
          "name": "uri",
          "type": "string"
        },
        {
          "internalType": "address",
          "name": "creator",
          "type": "address"
        },
        {
          "internalType": "bool",
          "name": "mintable",
          "type": "bool"
        },
        {
          "internalType": "bool",
          "name": "burnable",
          "type": "bool"
        },
        {
          "internalType": "bool",
          "name": "pausable",
          "type": "bool"
        },
        {
          "internalType": "bool",
          "name": "supplyTracked",
          "type": "bool"
        },
        {
          "internalType": "uint256",
          "name": "createdAt",
          "type": "uint256"
        }
      ],
      "stateMutability": "view",
      "type": "function"
    },
    {
      "inputs": [],
      "name": "owner",
      "outputs": [
        {
          "internalType": "address",
          "name": "",
          "type": "address"
        }
      ],
      "stateMutability": "view",
      "type": "function"
    },
    {
      "inputs": [],
      "name": "renounceOwnership",
      "outputs": [],
      "stateMutability": "nonpayable",
      "type": "function"
    },
    {
      "inputs": [
        {
          "internalType": "address",
          "name": "newOwner",
          "type": "address"
        }
      ],
      "name": "transferOwnership",
      "outputs": [],
      "stateMutability": "nonpayable",
      "type": "function"
    }
  ],
  "bytecode": "0x608060405234801561001057600080fd5b50338061003757604051631e4fbdf760e01b81526000600482015260240160405180910390fd5b61004081610046565b50610096565b600080546001600160a01b038381166001600160a01b0319831681178455604051919092169283917f8be0079c531659141344cd1fd0a4f28419497f9722a3daafe3b4186f6b6457e09190a35050565b613120806100a56000396000f3fe60806040523480156200001157600080fd5b5060043610620000ab5760003560e01c806385714768116200006e57806385714768146200014d5780638da5cb5b14620001795780639399869d146200018b578063b57adcfd146200019d578063f2fde38b14620001b457600080fd5b80630881139714620000b057806318d3ce9614620000e457806328582ee414620000fd578063715018a6146200011457806384939af81462000120575b600080fd5b620000c7620000c13660046200092b565b620001cb565b6040516001600160a01b0390911681526020015b60405180910390f35b620000ee620001f6565b604051620000db919062000945565b620000c76200010e36600462000a55565b6200025a565b6200011e620004fc565b005b620001376200013136600462000b09565b62000514565b604051620000db98979695949392919062000b83565b620000c76200015e36600462000b09565b6002602052600090815260409020546001600160a01b031681565b6000546001600160a01b0316620000c7565b600154604051908152602001620000db565b620000ee620001ae36600462000b09565b6200068f565b6200011e620001c536600462000b09565b6200085a565b60018181548110620001dc57600080fd5b6000918252602090912001546001600160a01b0316905081565b606060018054806020026020016040519081016040528092919081815260200182805480156200025057602002820191906000526020600020905b81546001600160a01b0316815260019091019060200180831162000231575b5050505050905090565b600080875111620002a95760405162461bcd60e51b81526020600482015260146024820152734e616d652063616e6e6f7420626520656d70747960601b60448201526064015b60405180910390fd5b6000865111620002f25760405162461bcd60e51b81526020600482015260136024820152725552492063616e6e6f7420626520656d70747960681b6044820152606401620002a0565b60008787878787873360405162000309906200091d565b6200031b979695949392919062000bed565b604051809103906000f08015801562000338573d6000803e3d6000fd5b50600180548082019091557fb10e2d527612073b26eecdfd717e6a320cf44b4afac2b0732d9fcbe2b7fa0cf60180546001600160a01b03199081166001600160a01b03841690811790925560008281526002602090815260408083208054339516851790558051610100810182528e81528083018e9052808201949094528b151560608501528a1515608085015289151560a085015288151560c08501524260e08501529382526003905291909120815192935083928190620003fc908262000cdb565b506020820151600182019062000413908262000cdb565b506040828101516002830180546060860151608087015160a088015160c08901511515600160b81b0260ff60b81b19911515600160b01b0260ff60b01b19931515600160a81b029390931661ffff60a81b19941515600160a01b026001600160a81b03199096166001600160a01b0398891617959095179390931693909317179190911617905560e0909301516003909201919091555133918316907fb3b6b313cfd754d6e42615d513c1773e725ff0f88859e2bb750c5644e312241690620004e8908d908d908d908d908d908d9062000da8565b60405180910390a398975050505050505050565b620005066200089e565b620005126000620008cd565b565b600360205260009081526040902080548190620005319062000c4c565b80601f01602080910402602001604051908101604052809291908181526020018280546200055f9062000c4c565b8015620005b05780601f106200058457610100808354040283529160200191620005b0565b820191906000526020600020905b8154815290600101906020018083116200059257829003601f168201915b505050505090806001018054620005c79062000c4c565b80601f0160208091040260200160405190810160405280929190818152602001828054620005f59062000c4c565b8015620006465780601f106200061a5761010080835404028352916020019162000646565b820191906000526020600020905b8154815290600101906020018083116200062857829003601f168201915b505050600284015460039094015492936001600160a01b0381169360ff600160a01b830481169450600160a81b830481169350600160b01b8304811692600160b81b9004169088565b60606000805b6001548110156200071a57836001600160a01b03166002600060018481548110620006c457620006c462000df9565b60009182526020808320909101546001600160a01b0390811684529083019390935260409091019020541603620007055781620007018162000e0f565b9250505b80620007118162000e0f565b91505062000695565b5060008167ffffffffffffffff81111562000739576200073962000994565b60405190808252806020026020018201604052801562000763578160200160208202803683370190505b5090506000805b6001548110156200085057856001600160a01b0316600260006001848154811062000799576200079962000df9565b60009182526020808320909101546001600160a01b03908116845290830193909352604090910190205416036200083b5760018181548110620007e057620007e062000df9565b9060005260206000200160009054906101000a90046001600160a01b031683838151811062000813576200081362000df9565b6001600160a01b039092166020928302919091019091015281620008378162000e0f565b9250505b80620008478162000e0f565b9150506200076a565b5090949350505050565b620008646200089e565b6001600160a01b0381166200089057604051631e4fbdf760e01b815260006004820152602401620002a0565b6200089b81620008cd565b50565b6000546001600160a01b03163314620005125760405163118cdaa760e01b8152336004820152602401620002a0565b600080546001600160a01b038381166001600160a01b0319831681178455604051919092169283917f8be0079c531659141344cd1fd0a4f28419497f9722a3daafe3b4186f6b6457e09190a35050565b6122b38062000e3883390190565b6000602082840312156200093e57600080fd5b5035919050565b6020808252825182820181905260009190848201906040850190845b81811015620009885783516001600160a01b03168352928401929184019160010162000961565b50909695505050505050565b634e487b7160e01b600052604160045260246000fd5b600082601f830112620009bc57600080fd5b813567ffffffffffffffff80821115620009da57620009da62000994565b604051601f8301601f19908116603f0116810190828211818310171562000a055762000a0562000994565b8160405283815286602085880101111562000a1f57600080fd5b836020870160208301376000602085830101528094505050505092915050565b8035801515811462000a5057600080fd5b919050565b60008060008060008060c0878903121562000a6f57600080fd5b863567ffffffffffffffff8082111562000a8857600080fd5b62000a968a838b01620009aa565b9750602089013591508082111562000aad57600080fd5b5062000abc89828a01620009aa565b95505062000acd6040880162000a3f565b935062000add6060880162000a3f565b925062000aed6080880162000a3f565b915062000afd60a0880162000a3f565b90509295509295509295565b60006020828403121562000b1c57600080fd5b81356001600160a01b038116811462000b3457600080fd5b9392505050565b6000815180845260005b8181101562000b635760208185018101518683018201520162000b45565b506000602082860101526020601f19601f83011685010191505092915050565b600061010080835262000b998184018c62000b3b565b9050828103602084015262000baf818b62000b3b565b6001600160a01b0399909916604084015250509415156060860152921515608085015290151560a0840152151560c083015260e09091015292915050565b60e08152600062000c0260e083018a62000b3b565b828103602084015262000c16818a62000b3b565b9715156040840152505093151560608501529115156080840152151560a08301526001600160a01b031660c09091015292915050565b600181811c9082168062000c6157607f821691505b60208210810362000c8257634e487b7160e01b600052602260045260246000fd5b50919050565b601f82111562000cd657600081815260208120601f850160051c8101602086101562000cb15750805b601f850160051c820191505b8181101562000cd25782815560010162000cbd565b5050505b505050565b815167ffffffffffffffff81111562000cf85762000cf862000994565b62000d108162000d09845462000c4c565b8462000c88565b602080601f83116001811462000d48576000841562000d2f5750858301515b600019600386901b1c1916600185901b17855562000cd2565b600085815260208120601f198616915b8281101562000d795788860151825594840194600190910190840162000d58565b508582101562000d985787850151600019600388901b60f8161c191681555b5050505050600190811b01905550565b60c08152600062000dbd60c083018962000b3b565b828103602084015262000dd1818962000b3b565b9615156040840152505092151560608401529015156080830152151560a09091015292915050565b634e487b7160e01b600052603260045260246000fd5b60006001820162000e3057634e487b7160e01b600052601160045260246000fd5b506001019056fe60806040523480156200001157600080fd5b50604051620022b3380380620022b3833981016040819052620000349162000228565b80866200004181620000e9565b506001600160a01b0381166200007157604051631e4fbdf760e01b81526000600482015260240160405180910390fd5b6200007c81620000fb565b5060046200008b88826200038e565b50506005805461ffff191694151561ff00191694909417610100931515939093029290921763ffff00001916620100009115159190910263ff0000001916176301000000911515919091021760ff60201b19169055506200045a9050565b6002620000f782826200038e565b5050565b600380546001600160a01b038381166001600160a01b0319831681179093556040519116919082907f8be0079c531659141344cd1fd0a4f28419497f9722a3daafe3b4186f6b6457e090600090a35050565b634e487b7160e01b600052604160045260246000fd5b600082601f8301126200017557600080fd5b81516001600160401b03808211156200019257620001926200014d565b604051601f8301601f19908116603f01168101908282118183101715620001bd57620001bd6200014d565b81604052838152602092508683858801011115620001da57600080fd5b600091505b83821015620001fe5785820183015181830184015290820190620001df565b600093810190920192909252949350505050565b805180151581146200022357600080fd5b919050565b600080600080600080600060e0888a0312156200024457600080fd5b87516001600160401b03808211156200025c57600080fd5b6200026a8b838c0162000163565b985060208a01519150808211156200028157600080fd5b50620002908a828b0162000163565b965050620002a16040890162000212565b9450620002b16060890162000212565b9350620002c16080890162000212565b9250620002d160a0890162000212565b60c08901519092506001600160a01b0381168114620002ef57600080fd5b8091505092959891949750929550565b600181811c908216806200031457607f821691505b6020821081036200033557634e487b7160e01b600052602260045260246000fd5b50919050565b601f8211156200038957600081815260208120601f850160051c81016020861015620003645750805b601f850160051c820191505b81811015620003855782815560010162000370565b5050505b505050565b81516001600160401b03811115620003aa57620003aa6200014d565b620003c281620003bb8454620002ff565b846200033b565b602080601f831160018114620003fa5760008415620003e15750858301515b600019600386901b1c1916600185901b17855562000385565b600085815260208120601f198616915b828110156200042b578886015182559484019460019091019084016200040a565b50858210156200044a5787850151600019600388901b60f8161c191681555b5050505050600190811b01905550565b611e49806200046a6000396000f3fe608060405234801561001057600080fd5b50600436106101725760003560e01c8063731133e9116100de578063a22cb46511610097578063e985e9c511610071578063e985e9c514610313578063f242432a14610326578063f2fde38b14610339578063f5298aca1461034c57600080fd5b8063a22cb465146102db578063b187bd26146102ee578063e89da3101461030157600080fd5b8063731133e9146102715780638456cb5914610284578063883356d91461028c5780638da5cb5b1461029c57806392ab723e146102b7578063a09a1601146102ca57600080fd5b80632eb2c2d6116101305780632eb2c2d6146102105780633f4ba83a1461022357806346b45af71461022b5780634e1273f4146102365780636b20c45414610256578063715018a61461026957600080fd5b8062fdd58e1461017757806301ffc9a71461019d57806302fe5305146101c057806306fdde03146101d55780630e89341c146101ea5780631f7fdffa146101fd575b600080fd5b61018a6101853660046114c9565b61035f565b6040519081526020015b60405180910390f35b6101b06101ab366004611509565b610387565b6040519015158152602001610194565b6101d36101ce3660046115cc565b6103d7565b005b6101dd6103eb565b6040516101949190611663565b6101dd6101f8366004611676565b61047d565b6101d361020b36600461173e565b610511565b6101d361021e3660046117d7565b61069f565b6101d3610706565b60055460ff166101b0565b610249610244366004611881565b61071e565b604051610194919061197c565b6101d361026436600461198f565b6107f3565b6101d3610985565b6101d361027f366004611a03565b610999565b6101d3610a7b565b600554610100900460ff166101b0565b6003546040516001600160a01b039091168152602001610194565b61018a6102c5366004611676565b610ae8565b60055462010000900460ff166101b0565b6101d36102e9366004611a58565b610b18565b600554640100000000900460ff166101b0565b6005546301000000900460ff166101b0565b6101b0610321366004611a94565b610b27565b6101d3610334366004611ac7565b610b55565b6101d3610347366004611b2c565b610bb4565b6101d361035a366004611b47565b610bef565b6000818152602081815260408083206001600160a01b03861684529091529020545b92915050565b60006001600160e01b03198216636cdb3d1360e11b14806103b857506001600160e01b031982166303a24d0760e21b145b8061038157506301ffc9a760e01b6001600160e01b0319831614610381565b6103df610cdb565b6103e881610d08565b50565b6060600480546103fa90611b7a565b80601f016020809104026020016040519081016040528092919081815260200182805461042690611b7a565b80156104735780601f1061044857610100808354040283529160200191610473565b820191906000526020600020905b81548152906001019060200180831161045657829003601f168201915b5050505050905090565b60606002805461048c90611b7a565b80601f01602080910402602001604051908101604052809291908181526020018280546104b890611b7a565b80156105055780601f106104da57610100808354040283529160200191610505565b820191906000526020600020905b8154815290600101906020018083116104e857829003601f168201915b50505050509050919050565b610519610cdb565b60055460ff166105665760405162461bcd60e51b8152602060048201526013602482015272135a5b9d1a5b99c81a5cc8191a5cd8589b1959606a1b60448201526064015b60405180910390fd5b600554640100000000900460ff16156105b65760405162461bcd60e51b815260206004820152601260248201527110dbdb9d1c9858dd081a5cc81c185d5cd95960721b604482015260640161055d565b81518351146106005760405162461bcd60e51b8152602060048201526016602482015275082e4e4c2f2e640d8cadccee8d040dad2e6dac2e8c6d60531b604482015260640161055d565b6005546301000000900460ff161561068d5760005b835181101561068b5782818151811061063057610630611bb4565b60200260200101516006600086848151811061064e5761064e611bb4565b6020026020010151815260200190815260200160002060008282546106739190611be0565b9091555081905061068381611bf3565b915050610615565b505b61069984848484610d14565b50505050565b336001600160a01b03861681148015906106c057506106be8682610b27565b155b156106f15760405163711bec9160e11b81526001600160a01b0380831660048301528716602482015260440161055d565b6106fe8686868686610d4c565b505050505050565b61070e610cdb565b6005805464ff0000000019169055565b6060815183511461074f5781518351604051635b05999160e01b81526004810192909252602482015260440161055d565b6000835167ffffffffffffffff81111561076b5761076b61152d565b604051908082528060200260200182016040528015610794578160200160208202803683370190505b50905060005b84518110156107eb576020808202860101516107be9060208084028701015161035f565b8282815181106107d0576107d0611bb4565b60209081029190910101526107e481611bf3565b905061079a565b509392505050565b600554610100900460ff166108405760405162461bcd60e51b8152602060048201526013602482015272109d5c9b9a5b99c81a5cc8191a5cd8589b1959606a1b604482015260640161055d565b6001600160a01b03831633148061086157506003546001600160a01b031633145b61089e5760405162461bcd60e51b815260206004820152600e60248201526d139bdd08185d5d1a1bdc9a5e995960921b604482015260640161055d565b80518251146108e85760405162461bcd60e51b8152602060048201526016602482015275082e4e4c2f2e640d8cadccee8d040dad2e6dac2e8c6d60531b604482015260640161055d565b6005546301000000900460ff16156109755760005b82518110156109735781818151811061091857610918611bb4565b60200260200101516006600085848151811061093657610936611bb4565b60200260200101518152602001908152602001600020600082825461095b9190611c0c565b9091555081905061096b81611bf3565b9150506108fd565b505b610980838383610db3565b505050565b61098d610cdb565b6109976000610df9565b565b6109a1610cdb565b60055460ff166109e95760405162461bcd60e51b8152602060048201526013602482015272135a5b9d1a5b99c81a5cc8191a5cd8589b1959606a1b604482015260640161055d565b600554640100000000900460ff1615610a395760405162461bcd60e51b815260206004820152601260248201527110dbdb9d1c9858dd081a5cc81c185d5cd95960721b604482015260640161055d565b6005546301000000900460ff1615610a6f5760008381526006602052604081208054849290610a69908490611be0565b90915550505b61069984848484610e4b565b610a83610cdb565b60055462010000900460ff16610ad15760405162461bcd60e51b815260206004820152601360248201527214185d5cda5b99c81a5cc8191a5cd8589b1959606a1b604482015260640161055d565b6005805464ff000000001916640100000000179055565b6005546000906301000000900460ff1615610b10575060009081526006602052604090205490565b506000919050565b610b23338383610ea8565b5050565b6001600160a01b03918216600090815260016020908152604080832093909416825291909152205460ff1690565b336001600160a01b0386168114801590610b765750610b748682610b27565b155b15610ba75760405163711bec9160e11b81526001600160a01b0380831660048301528716602482015260440161055d565b6106fe8686868686610f3e565b610bbc610cdb565b6001600160a01b038116610be657604051631e4fbdf760e01b81526000600482015260240161055d565b6103e881610df9565b600554610100900460ff16610c3c5760405162461bcd60e51b8152602060048201526013602482015272109d5c9b9a5b99c81a5cc8191a5cd8589b1959606a1b604482015260640161055d565b6001600160a01b038316331480610c5d57506003546001600160a01b031633145b610c9a5760405162461bcd60e51b815260206004820152600e60248201526d139bdd08185d5d1a1bdc9a5e995960921b604482015260640161055d565b6005546301000000900460ff1615610cd05760008281526006602052604081208054839290610cca908490611c0c565b90915550505b610980838383610fcc565b6003546001600160a01b031633146109975760405163118cdaa760e01b815233600482015260240161055d565b6002610b238282611c65565b6001600160a01b038416610d3e57604051632bfa23e760e11b81526000600482015260240161055d565b610699600085858585611030565b6001600160a01b038416610d7657604051632bfa23e760e11b81526000600482015260240161055d565b6001600160a01b038516610d9f57604051626a0d4560e21b81526000600482015260240161055d565b610dac8585858585611030565b5050505050565b6001600160a01b038316610ddc57604051626a0d4560e21b81526000600482015260240161055d565b610980836000848460405180602001604052806000815250611030565b600380546001600160a01b038381166001600160a01b0319831681179093556040519116919082907f8be0079c531659141344cd1fd0a4f28419497f9722a3daafe3b4186f6b6457e090600090a35050565b6001600160a01b038416610e7557604051632bfa23e760e11b81526000600482015260240161055d565b604080516001808252602082018690528183019081526060820185905260808201909252906106fe600087848487611030565b6001600160a01b038216610ed15760405162ced3e160e81b81526000600482015260240161055d565b6001600160a01b03838116600081815260016020908152604080832094871680845294825291829020805460ff191686151590811790915591519182527f17307eab39ab6107e8899845ad3d59bd9653f200f220920489ca2b5937696c31910160405180910390a3505050565b6001600160a01b038416610f6857604051632bfa23e760e11b81526000600482015260240161055d565b6001600160a01b038516610f9157604051626a0d4560e21b81526000600482015260240161055d565b60408051600180825260208201869052818301908152606082018590526080820190925290610fc38787848487611030565b50505050505050565b6001600160a01b038316610ff557604051626a0d4560e21b81526000600482015260240161055d565b604080516001808252602082018590528183019081526060820184905260a08201909252600060808201818152919291610dac918791859085905b61103c85858585611083565b6001600160a01b03841615610dac5782513390600103611075576020848101519084015161106e8389898585896112a0565b50506106fe565b6106fe8187878787876113c4565b80518251146110b25781518151604051635b05999160e01b81526004810192909252602482015260440161055d565b3360005b83518110156111c1576020818102858101820151908501909101516001600160a01b03881615611169576000828152602081815260408083206001600160a01b038c16845290915290205481811015611142576040516303dee4c560e01b81526001600160a01b038a16600482015260248101829052604481018390526064810184905260840161055d565b6000838152602081815260408083206001600160a01b038d16845290915290209082900390555b6001600160a01b038716156111ae576000828152602081815260408083206001600160a01b038b168452909152812080548392906111a8908490611be0565b90915550505b5050806111ba90611bf3565b90506110b6565b5082516001036112425760208301516000906020840151909150856001600160a01b0316876001600160a01b0316846001600160a01b03167fc3d58168c5ae7397731d063d5bbf3d657854427343f4c083240f7aacaa2d0f628585604051611233929190918252602082015260400190565b60405180910390a45050610dac565b836001600160a01b0316856001600160a01b0316826001600160a01b03167f4a39dc06d4c0dbc64b70af90fd698a233a518aa5d07e595d983b8c0526c8f7fb8686604051611291929190611d25565b60405180910390a45050505050565b6001600160a01b0384163b156106fe5760405163f23a6e6160e01b81526001600160a01b0385169063f23a6e61906112e49089908990889088908890600401611d53565b6020604051808303816000875af192505050801561131f575060408051601f3d908101601f1916820190925261131c91810190611d98565b60015b611388573d80801561134d576040519150601f19603f3d011682016040523d82523d6000602084013e611352565b606091505b50805160000361138057604051632bfa23e760e11b81526001600160a01b038616600482015260240161055d565b805181602001fd5b6001600160e01b0319811663f23a6e6160e01b14610fc357604051632bfa23e760e11b81526001600160a01b038616600482015260240161055d565b6001600160a01b0384163b156106fe5760405163bc197c8160e01b81526001600160a01b0385169063bc197c81906114089089908990889088908890600401611db5565b6020604051808303816000875af1925050508015611443575060408051601f3d908101601f1916820190925261144091810190611d98565b60015b611471573d80801561134d576040519150601f19603f3d011682016040523d82523d6000602084013e611352565b6001600160e01b0319811663bc197c8160e01b14610fc357604051632bfa23e760e11b81526001600160a01b038616600482015260240161055d565b80356001600160a01b03811681146114c457600080fd5b919050565b600080604083850312156114dc57600080fd5b6114e5836114ad565b946020939093013593505050565b6001600160e01b0319811681146103e857600080fd5b60006020828403121561151b57600080fd5b8135611526816114f3565b9392505050565b634e487b7160e01b600052604160045260246000fd5b604051601f8201601f1916810167ffffffffffffffff8111828210171561156c5761156c61152d565b604052919050565b600067ffffffffffffffff83111561158e5761158e61152d565b6115a1601f8401601f1916602001611543565b90508281528383830111156115b557600080fd5b828260208301376000602084830101529392505050565b6000602082840312156115de57600080fd5b813567ffffffffffffffff8111156115f557600080fd5b8201601f8101841361160657600080fd5b61161584823560208401611574565b949350505050565b6000815180845260005b8181101561164357602081850181015186830182015201611627565b506000602082860101526020601f19601f83011685010191505092915050565b602081526000611526602083018461161d565b60006020828403121561168857600080fd5b5035919050565b600067ffffffffffffffff8211156116a9576116a961152d565b5060051b60200190565b600082601f8301126116c457600080fd5b813560206116d96116d48361168f565b611543565b82815260059290921b840181019181810190868411156116f857600080fd5b8286015b8481101561171357803583529183019183016116fc565b509695505050505050565b600082601f83011261172f57600080fd5b61152683833560208501611574565b6000806000806080858703121561175457600080fd5b61175d856114ad565b9350602085013567ffffffffffffffff8082111561177a57600080fd5b611786888389016116b3565b9450604087013591508082111561179c57600080fd5b6117a8888389016116b3565b935060608701359150808211156117be57600080fd5b506117cb8782880161171e565b91505092959194509250565b600080600080600060a086880312156117ef57600080fd5b6117f8866114ad565b9450611806602087016114ad565b9350604086013567ffffffffffffffff8082111561182357600080fd5b61182f89838a016116b3565b9450606088013591508082111561184557600080fd5b61185189838a016116b3565b9350608088013591508082111561186757600080fd5b506118748882890161171e565b9150509295509295909350565b6000806040838503121561189457600080fd5b823567ffffffffffffffff808211156118ac57600080fd5b818501915085601f8301126118c057600080fd5b813560206118d06116d48361168f565b82815260059290921b840181019181810190898411156118ef57600080fd5b948201945b8386101561191457611905866114ad565b825294820194908201906118f4565b9650508601359250508082111561192a57600080fd5b50611937858286016116b3565b9150509250929050565b600081518084526020808501945080840160005b8381101561197157815187529582019590820190600101611955565b509495945050505050565b6020815260006115266020830184611941565b6000806000606084860312156119a457600080fd5b6119ad846114ad565b9250602084013567ffffffffffffffff808211156119ca57600080fd5b6119d6878388016116b3565b935060408601359150808211156119ec57600080fd5b506119f9868287016116b3565b9150509250925092565b60008060008060808587031215611a1957600080fd5b611a22856114ad565b93506020850135925060408501359150606085013567ffffffffffffffff811115611a4c57600080fd5b6117cb8782880161171e565b60008060408385031215611a6b57600080fd5b611a74836114ad565b915060208301358015158114611a8957600080fd5b809150509250929050565b60008060408385031215611aa757600080fd5b611ab0836114ad565b9150611abe602084016114ad565b90509250929050565b600080600080600060a08688031215611adf57600080fd5b611ae8866114ad565b9450611af6602087016114ad565b93506040860135925060608601359150608086013567ffffffffffffffff811115611b2057600080fd5b6118748882890161171e565b600060208284031215611b3e57600080fd5b611526826114ad565b600080600060608486031215611b5c57600080fd5b611b65846114ad565b95602085013595506040909401359392505050565b600181811c90821680611b8e57607f821691505b602082108103611bae57634e487b7160e01b600052602260045260246000fd5b50919050565b634e487b7160e01b600052603260045260246000fd5b634e487b7160e01b600052601160045260246000fd5b8082018082111561038157610381611bca565b600060018201611c0557611c05611bca565b5060010190565b8181038181111561038157610381611bca565b601f82111561098057600081815260208120601f850160051c81016020861015611c465750805b601f850160051c820191505b818110156106fe57828155600101611c52565b815167ffffffffffffffff811115611c7f57611c7f61152d565b611c9381611c8d8454611b7a565b84611c1f565b602080601f831160018114611cc85760008415611cb05750858301515b600019600386901b1c1916600185901b1785556106fe565b600085815260208120601f198616915b82811015611cf757888601518255948401946001909101908401611cd8565b5085821015611d155787850151600019600388901b60f8161c191681555b5050505050600190811b01905550565b604081526000611d386040830185611941565b8281036020840152611d4a8185611941565b95945050505050565b6001600160a01b03868116825285166020820152604081018490526060810183905260a060808201819052600090611d8d9083018461161d565b979650505050505050565b600060208284031215611daa57600080fd5b8151611526816114f3565b6001600160a01b0386811682528516602082015260a060408201819052600090611de190830186611941565b8281036060840152611df38186611941565b90508281036080840152611e07818561161d565b9897505050505050505056fea2646970667358221220e6635d15af7eaac0181bfdadcbe45a7b78c9c2ce480341519fc95e5e7f7481ef64736f6c63430008140033a2646970667358221220af6b1bc5be48dcae111c7c9498fd85b50e9c541c34d157d3dd8cffc65823ba6c64736f6c63430008140033",
  "linkReferences": {},
  "deployedLinkReferences": {}
}