{
  "_format": "hh-sol-artifact-1",
  "contractName": "ERC721Factory",
  "sourceName": "contracts/ERC721Factory.sol",
  "abi": [
    {
      "inputs": [],
      "stateMutability": "nonpayable",
      "type": "constructor"
    },
    {
      "inputs": [
        {
          "internalType": "address",
          "name": "owner",
          "type": "address"
        }
      ],
      "name": "OwnableInvalidOwner",
      "type": "error"
    },
    {
      "inputs": [
        {
          "internalType": "address",
          "name": "account",
          "type": "address"
        }
      ],
      "name": "OwnableUnauthorizedAccount",
      "type": "error"
    },
    {
      "anonymous": false,
      "inputs": [
        {
          "indexed": true,
          "internalType": "address",
          "name": "contractAddress",
          "type": "address"
        },
        {
          "indexed": false,
          "internalType": "string",
          "name": "name",
          "type": "string"
        },
        {
          "indexed": false,
          "internalType": "string",
          "name": "symbol",
          "type": "string"
        },
        {
          "indexed": true,
          "internalType": "address",
          "name": "creator",
          "type": "address"
        },
        {
          "indexed": false,
          "internalType": "uint256",
          "name": "maxSupply",
          "type": "uint256"
        },
        {
          "indexed": false,
          "internalType": "bool",
          "name": "mintable",
          "type": "bool"
        },
        {
          "indexed": false,
          "internalType": "bool",
          "name": "burnable",
          "type": "bool"
        },
        {
          "indexed": false,
          "internalType": "bool",
          "name": "pausable",
          "type": "bool"
        }
      ],
      "name": "CollectionCreated",
      "type": "event"
    },
    {
      "anonymous": false,
      "inputs": [
        {
          "indexed": true,
          "internalType": "address",
          "name": "previousOwner",
          "type": "address"
        },
        {
          "indexed": true,
          "internalType": "address",
          "name": "newOwner",
          "type": "address"
        }
      ],
      "name": "OwnershipTransferred",
      "type": "event"
    },
    {
      "inputs": [
        {
          "internalType": "address",
          "name": "",
          "type": "address"
        }
      ],
      "name": "collectionCreators",
      "outputs": [
        {
          "internalType": "address",
          "name": "",
          "type": "address"
        }
      ],
      "stateMutability": "view",
      "type": "function"
    },
    {
      "inputs": [
        {
          "internalType": "address",
          "name": "",
          "type": "address"
        }
      ],
      "name": "collections",
      "outputs": [
        {
          "internalType": "string",
          "name": "name",
          "type": "string"
        },
        {
          "internalType": "string",
          "name": "symbol",
          "type": "string"
        },
        {
          "internalType": "address",
          "name": "creator",
          "type": "address"
        },
        {
          "internalType": "uint256",
          "name": "maxSupply",
          "type": "uint256"
        },
        {
          "internalType": "bool",
          "name": "mintable",
          "type": "bool"
        },
        {
          "internalType": "bool",
          "name": "burnable",
          "type": "bool"
        },
        {
          "internalType": "bool",
          "name": "pausable",
          "type": "bool"
        },
        {
          "internalType": "uint256",
          "name": "createdAt",
          "type": "uint256"
        }
      ],
      "stateMutability": "view",
      "type": "function"
    },
    {
      "inputs": [
        {
          "internalType": "string",
          "name": "name",
          "type": "string"
        },
        {
          "internalType": "string",
          "name": "symbol",
          "type": "string"
        },
        {
          "internalType": "string",
          "name": "baseURI",
          "type": "string"
        },
        {
          "internalType": "uint256",
          "name": "maxSupplyAmount",
          "type": "uint256"
        },
        {
          "internalType": "bool",
          "name": "mintable",
          "type": "bool"
        },
        {
          "internalType": "bool",
          "name": "burnable",
          "type": "bool"
        },
        {
          "internalType": "bool",
          "name": "pausable",
          "type": "bool"
        }
      ],
      "name": "createCollection",
      "outputs": [
        {
          "internalType": "address",
          "name": "",
          "type": "address"
        }
      ],
      "stateMutability": "nonpayable",
      "type": "function"
    },
    {
      "inputs": [
        {
          "internalType": "uint256",
          "name": "",
          "type": "uint256"
        }
      ],
      "name": "createdCollections",
      "outputs": [
        {
          "internalType": "address",
          "name": "",
          "type": "address"
        }
      ],
      "stateMutability": "view",
      "type": "function"
    },
    {
      "inputs": [],
      "name": "getAllCollections",
      "outputs": [
        {
          "internalType": "address[]",
          "name": "",
          "type": "address[]"
        }
      ],
      "stateMutability": "view",
      "type": "function"
    },
    {
      "inputs": [],
      "name": "getCollectionCount",
      "outputs": [
        {
          "internalType": "uint256",
          "name": "",
          "type": "uint256"
        }
      ],
      "stateMutability": "view",
      "type": "function"
    },
    {
      "inputs": [
        {
          "internalType": "address",
          "name": "creator",
          "type": "address"
        }
      ],
      "name": "getCollectionsByCreator",
      "outputs": [
        {
          "internalType": "address[]",
          "name": "",
          "type": "address[]"
        }
      ],
      "stateMutability": "view",
      "type": "function"
    },
    {
      "inputs": [],
      "name": "owner",
      "outputs": [
        {
          "internalType": "address",
          "name": "",
          "type": "address"
        }
      ],
      "stateMutability": "view",
      "type": "function"
    },
    {
      "inputs": [],
      "name": "renounceOwnership",
      "outputs": [],
      "stateMutability": "nonpayable",
      "type": "function"
    },
    {
      "inputs": [
        {
          "internalType": "address",
          "name": "newOwner",
          "type": "address"
        }
      ],
      "name": "transferOwnership",
      "outputs": [],
      "stateMutability": "nonpayable",
      "type": "function"
    }
  ],
  "bytecode": "0x608060405234801561001057600080fd5b50338061003757604051631e4fbdf760e01b81526000600482015260240160405180910390fd5b61004081610046565b50610096565b600080546001600160a01b038381166001600160a01b0319831681178455604051919092169283917f8be0079c531659141344cd1fd0a4f28419497f9722a3daafe3b4186f6b6457e09190a35050565b612e0a806100a56000396000f3fe60806040523480156200001157600080fd5b5060043610620000ab5760003560e01c8063715018a6116200006e578063715018a614620001685780638da5cb5b1462000174578063b77ff84f1462000186578063f2fde38b146200019d578063f56b836914620001b457600080fd5b80631c10106f14620000b057806323a942e014620000c657806343add2e614620000f65780634d801b6514620001235780636804a958146200014f575b600080fd5b6001546040519081526020015b60405180910390f35b620000dd620000d7366004620009e0565b620001cb565b6040516001600160a01b039091168152602001620000bd565b6200010d6200010736600462000ab4565b62000467565b604051620000bd98979695949392919062000b2e565b620000dd6200013436600462000ab4565b6002602052600090815260409020546001600160a01b031681565b62000159620005dc565b604051620000bd919062000b98565b6200017262000640565b005b6000546001600160a01b0316620000dd565b620000dd6200019736600462000be7565b62000658565b62000172620001ae36600462000ab4565b62000683565b62000159620001c536600462000ab4565b620006c7565b6000808851116200021a5760405162461bcd60e51b81526020600482015260146024820152734e616d652063616e6e6f7420626520656d70747960601b60448201526064015b60405180910390fd5b6000875111620002665760405162461bcd60e51b815260206004820152601660248201527553796d626f6c2063616e6e6f7420626520656d70747960501b604482015260640162000211565b600088888888888888336040516200027e9062000911565b6200029198979695949392919062000c01565b604051809103906000f080158015620002ae573d6000803e3d6000fd5b50600180548082019091557fb10e2d527612073b26eecdfd717e6a320cf44b4afac2b0732d9fcbe2b7fa0cf60180546001600160a01b03199081166001600160a01b03841690811790925560008281526002602090815260408083208054339516851790558051610100810182528f81528083018f905280820194909452606084018c90528a1515608085015289151560a085015288151560c08501524260e0850152938252600390529190912081519293508392819062000371908262000d09565b506020820151600182019062000388908262000d09565b506040828101516002830180546001600160a01b0319166001600160a01b0392831617905560608401516003840155608084015160048401805460a087015160c088015161ffff1990921693151561ff00191693909317610100931515939093029290921762ff00001916620100009215159290920291909117905560e0909301516005909201919091555133918316907fe9d12812914b2e1da0da6391e81ab9c71b25cd5a09ac6488d6d8456dd8762ae29062000452908e908e908d908d908d908d9062000dd6565b60405180910390a39998505050505050505050565b600360205260009081526040902080548190620004849062000c7a565b80601f0160208091040260200160405190810160405280929190818152602001828054620004b29062000c7a565b8015620005035780601f10620004d75761010080835404028352916020019162000503565b820191906000526020600020905b815481529060010190602001808311620004e557829003601f168201915b5050505050908060010180546200051a9062000c7a565b80601f0160208091040260200160405190810160405280929190818152602001828054620005489062000c7a565b8015620005995780601f106200056d5761010080835404028352916020019162000599565b820191906000526020600020905b8154815290600101906020018083116200057b57829003601f168201915b50505060028401546003850154600486015460059096015494956001600160a01b039092169490935060ff80831693506101008304811692620100009004169088565b606060018054806020026020016040519081016040528092919081815260200182805480156200063657602002820191906000526020600020905b81546001600160a01b0316815260019091019060200180831162000617575b5050505050905090565b6200064a62000892565b620006566000620008c1565b565b600181815481106200066957600080fd5b6000918252602090912001546001600160a01b0316905081565b6200068d62000892565b6001600160a01b038116620006b957604051631e4fbdf760e01b81526000600482015260240162000211565b620006c481620008c1565b50565b60606000805b6001548110156200075257836001600160a01b03166002600060018481548110620006fc57620006fc62000e27565b60009182526020808320909101546001600160a01b03908116845290830193909352604090910190205416036200073d5781620007398162000e3d565b9250505b80620007498162000e3d565b915050620006cd565b5060008167ffffffffffffffff8111156200077157620007716200091f565b6040519080825280602002602001820160405280156200079b578160200160208202803683370190505b5090506000805b6001548110156200088857856001600160a01b03166002600060018481548110620007d157620007d162000e27565b60009182526020808320909101546001600160a01b039081168452908301939093526040909101902054160362000873576001818154811062000818576200081862000e27565b9060005260206000200160009054906101000a90046001600160a01b03168383815181106200084b576200084b62000e27565b6001600160a01b0390921660209283029190910190910152816200086f8162000e3d565b9250505b806200087f8162000e3d565b915050620007a2565b5090949350505050565b6000546001600160a01b03163314620006565760405163118cdaa760e01b815233600482015260240162000211565b600080546001600160a01b038381166001600160a01b0319831681178455604051919092169283917f8be0079c531659141344cd1fd0a4f28419497f9722a3daafe3b4186f6b6457e09190a35050565b611f6f8062000e6683390190565b634e487b7160e01b600052604160045260246000fd5b600082601f8301126200094757600080fd5b813567ffffffffffffffff808211156200096557620009656200091f565b604051601f8301601f19908116603f011681019082821181831017156200099057620009906200091f565b81604052838152866020858801011115620009aa57600080fd5b836020870160208301376000602085830101528094505050505092915050565b80358015158114620009db57600080fd5b919050565b600080600080600080600060e0888a031215620009fc57600080fd5b873567ffffffffffffffff8082111562000a1557600080fd5b62000a238b838c0162000935565b985060208a013591508082111562000a3a57600080fd5b62000a488b838c0162000935565b975060408a013591508082111562000a5f57600080fd5b5062000a6e8a828b0162000935565b9550506060880135935062000a8660808901620009ca565b925062000a9660a08901620009ca565b915062000aa660c08901620009ca565b905092959891949750929550565b60006020828403121562000ac757600080fd5b81356001600160a01b038116811462000adf57600080fd5b9392505050565b6000815180845260005b8181101562000b0e5760208185018101518683018201520162000af0565b506000602082860101526020601f19601f83011685010191505092915050565b600061010080835262000b448184018c62000ae6565b9050828103602084015262000b5a818b62000ae6565b6001600160a01b0399909916604084015250506060810195909552921515608085015290151560a0840152151560c083015260e09091015292915050565b6020808252825182820181905260009190848201906040850190845b8181101562000bdb5783516001600160a01b03168352928401929184019160010162000bb4565b50909695505050505050565b60006020828403121562000bfa57600080fd5b5035919050565b600061010080835262000c178184018c62000ae6565b9050828103602084015262000c2d818b62000ae6565b9050828103604084015262000c43818a62000ae6565b60608401989098525050931515608085015291151560a0840152151560c08301526001600160a01b031660e0909101529392505050565b600181811c9082168062000c8f57607f821691505b60208210810362000cb057634e487b7160e01b600052602260045260246000fd5b50919050565b601f82111562000d0457600081815260208120601f850160051c8101602086101562000cdf5750805b601f850160051c820191505b8181101562000d005782815560010162000ceb565b5050505b505050565b815167ffffffffffffffff81111562000d265762000d266200091f565b62000d3e8162000d37845462000c7a565b8462000cb6565b602080601f83116001811462000d76576000841562000d5d5750858301515b600019600386901b1c1916600185901b17855562000d00565b600085815260208120601f198616915b8281101562000da75788860151825594840194600190910190840162000d86565b508582101562000dc65787850151600019600388901b60f8161c191681555b5050505050600190811b01905550565b60c08152600062000deb60c083018962000ae6565b828103602084015262000dff818962000ae6565b6040840197909752505092151560608401529015156080830152151560a09091015292915050565b634e487b7160e01b600052603260045260246000fd5b60006001820162000e5e57634e487b7160e01b600052601160045260246000fd5b506001019056fe60806040523480156200001157600080fd5b5060405162001f6f38038062001f6f83398101604081905262000034916200023c565b8088886000620000458382620003b1565b506001620000548282620003b1565b5050506001600160a01b0381166200008657604051631e4fbdf760e01b81526000600482015260240160405180910390fd5b6200009181620000f7565b506007620000a08782620003b1565b50506008939093556009805461ffff191692151561ff00191692909217610100911515919091021762ff00001916620100009215159290920291909117905550506000600a5550600b805460ff191690556200047d565b600680546001600160a01b038381166001600160a01b0319831681179093556040519116919082907f8be0079c531659141344cd1fd0a4f28419497f9722a3daafe3b4186f6b6457e090600090a35050565b634e487b7160e01b600052604160045260246000fd5b600082601f8301126200017157600080fd5b81516001600160401b03808211156200018e576200018e62000149565b604051601f8301601f19908116603f01168101908282118183101715620001b957620001b962000149565b81604052838152602092508683858801011115620001d657600080fd5b600091505b83821015620001fa5785820183015181830184015290820190620001db565b600093810190920192909252949350505050565b805180151581146200021f57600080fd5b919050565b80516001600160a01b03811681146200021f57600080fd5b600080600080600080600080610100898b0312156200025a57600080fd5b88516001600160401b03808211156200027257600080fd5b620002808c838d016200015f565b995060208b01519150808211156200029757600080fd5b620002a58c838d016200015f565b985060408b0151915080821115620002bc57600080fd5b50620002cb8b828c016200015f565b96505060608901519450620002e360808a016200020e565b9350620002f360a08a016200020e565b92506200030360c08a016200020e565b91506200031360e08a0162000224565b90509295985092959890939650565b600181811c908216806200033757607f821691505b6020821081036200035857634e487b7160e01b600052602260045260246000fd5b50919050565b601f821115620003ac57600081815260208120601f850160051c81016020861015620003875750805b601f850160051c820191505b81811015620003a85782815560010162000393565b5050505b505050565b81516001600160401b03811115620003cd57620003cd62000149565b620003e581620003de845462000322565b846200035e565b602080601f8311600181146200041d5760008415620004045750858301515b600019600386901b1c1916600185901b178555620003a8565b600085815260208120601f198616915b828110156200044e578886015182559484019460019091019084016200042d565b50858210156200046d5787850151600019600388901b60f8161c191681555b5050505050600190811b01905550565b611ae2806200048d6000396000f3fe608060405234801561001057600080fd5b50600436106101c45760003560e01c8063715018a6116100f9578063a22cb46511610097578063c87b56dd11610071578063c87b56dd14610373578063d0def52114610386578063e985e9c514610399578063f2fde38b146103ac57600080fd5b8063a22cb46514610342578063b187bd2614610355578063b88d4fde1461036057600080fd5b8063883356d9116100d3578063883356d9146103085780638da5cb5b1461031857806395d89b4114610329578063a09a16011461033157600080fd5b8063715018a6146102f0578063771282f6146102f85780638456cb591461030057600080fd5b806342966c681161016657806355f804b31161014057806355f804b3146102a45780636352211e146102b757806364ba144e146102ca57806370a08231146102dd57600080fd5b806342966c681461027457806346b45af7146102875780634c0f38c21461029257600080fd5b8063095ea7b3116101a2578063095ea7b31461023157806323b872dd146102465780633f4ba83a1461025957806342842e0e1461026157600080fd5b806301ffc9a7146101c957806306fdde03146101f1578063081812fc14610206575b600080fd5b6101dc6101d73660046112f9565b6103bf565b60405190151581526020015b60405180910390f35b6101f9610411565b6040516101e8919061136d565b610219610214366004611380565b6104a3565b6040516001600160a01b0390911681526020016101e8565b61024461023f3660046113b5565b6104cc565b005b6102446102543660046113df565b6104db565b61024461056b565b61024461026f3660046113df565b61057f565b610244610282366004611380565b61059f565b60095460ff166101dc565b6008545b6040519081526020016101e8565b6102446102b23660046114da565b61065e565b6102196102c5366004611380565b610672565b6102446102d83660046115c3565b61067d565b6102966102eb366004611683565b61084b565b610244610893565b600a54610296565b6102446108a7565b600954610100900460ff166101dc565b6006546001600160a01b0316610219565b6101f961090c565b60095462010000900460ff166101dc565b61024461035036600461169e565b61091b565b600b5460ff166101dc565b61024461036e3660046116da565b610926565b6101f9610381366004611380565b61093d565b610244610394366004611756565b610a1e565b6101dc6103a736600461179a565b610b35565b6102446103ba366004611683565b610b63565b60006001600160e01b031982166380ac58cd60e01b14806103f057506001600160e01b03198216635b5e139f60e01b145b8061040b57506301ffc9a760e01b6001600160e01b03198316145b92915050565b606060008054610420906117cd565b80601f016020809104026020016040519081016040528092919081815260200182805461044c906117cd565b80156104995780601f1061046e57610100808354040283529160200191610499565b820191906000526020600020905b81548152906001019060200180831161047c57829003601f168201915b5050505050905090565b60006104ae82610b9e565b506000828152600460205260409020546001600160a01b031661040b565b6104d7828233610bd7565b5050565b6001600160a01b03821661050a57604051633250574960e11b8152600060048201526024015b60405180910390fd5b6000610517838333610be4565b9050836001600160a01b0316816001600160a01b031614610565576040516364283d7b60e01b81526001600160a01b0380861660048301526024820184905282166044820152606401610501565b50505050565b610573610cdd565b600b805460ff19169055565b61059a83838360405180602001604052806000815250610926565b505050565b600954610100900460ff166105ec5760405162461bcd60e51b8152602060048201526013602482015272109d5c9b9a5b99c81a5cc8191a5cd8589b1959606a1b6044820152606401610501565b336105f682610672565b6001600160a01b0316148061061557506006546001600160a01b031633145b6106525760405162461bcd60e51b815260206004820152600e60248201526d139bdd08185d5d1a1bdc9a5e995960921b6044820152606401610501565b61065b81610d0a565b50565b610666610cdd565b60076104d78282611855565b600061040b82610b9e565b610685610cdd565b60095460ff166106cd5760405162461bcd60e51b8152602060048201526013602482015272135a5b9d1a5b99c81a5cc8191a5cd8589b1959606a1b6044820152606401610501565b600b5460ff16156107155760405162461bcd60e51b815260206004820152601260248201527110dbdb9d1c9858dd081a5cc81c185d5cd95960721b6044820152606401610501565b805182511461075f5760405162461bcd60e51b8152602060048201526016602482015275082e4e4c2f2e640d8cadccee8d040dad2e6dac2e8c6d60531b6044820152606401610501565b600854158061077e57506008548251600a5461077b919061192b565b11155b6107ca5760405162461bcd60e51b815260206004820152601c60248201527f4d617820737570706c7920776f756c64206265206578636565646564000000006044820152606401610501565b60005b825181101561059a57600a80549060006107e68361193e565b91905055506000600a54905061081584838151811061080757610807611957565b602002602001015182610d45565b6108388184848151811061082b5761082b611957565b6020026020010151610d5f565b50806108438161193e565b9150506107cd565b60006001600160a01b038216610877576040516322718ad960e21b815260006004820152602401610501565b506001600160a01b031660009081526003602052604090205490565b61089b610cdd565b6108a56000610d77565b565b6108af610cdd565b60095462010000900460ff166108fd5760405162461bcd60e51b815260206004820152601360248201527214185d5cda5b99c81a5cc8191a5cd8589b1959606a1b6044820152606401610501565b600b805460ff19166001179055565b606060018054610420906117cd565b6104d7338383610dc9565b6109318484846104db565b61056584848484610e68565b6000818152600c602052604081208054606092919061095b906117cd565b80601f0160208091040260200160405190810160405280929190818152602001828054610987906117cd565b80156109d45780601f106109a9576101008083540402835291602001916109d4565b820191906000526020600020905b8154815290600101906020018083116109b757829003601f168201915b505050505090506000815111156109eb5792915050565b60076109f684610f91565b604051602001610a0792919061196d565b604051602081830303815290604052915050919050565b610a26610cdd565b60095460ff16610a6e5760405162461bcd60e51b8152602060048201526013602482015272135a5b9d1a5b99c81a5cc8191a5cd8589b1959606a1b6044820152606401610501565b600b5460ff1615610ab65760405162461bcd60e51b815260206004820152601260248201527110dbdb9d1c9858dd081a5cc81c185d5cd95960721b6044820152606401610501565b6008541580610ac85750600854600a54105b610b095760405162461bcd60e51b815260206004820152601260248201527113585e081cdd5c1c1b1e481c995858da195960721b6044820152606401610501565b600a8054906000610b198361193e565b9091555050600a54610b2b8382610d45565b61059a8183610d5f565b6001600160a01b03918216600090815260056020908152604080832093909416825291909152205460ff1690565b610b6b610cdd565b6001600160a01b038116610b9557604051631e4fbdf760e01b815260006004820152602401610501565b61065b81610d77565b6000818152600260205260408120546001600160a01b03168061040b57604051637e27328960e01b815260048101849052602401610501565b61059a838383600161109a565b6000828152600260205260408120546001600160a01b0390811690831615610c1157610c118184866111a0565b6001600160a01b03811615610c4f57610c2e60008560008061109a565b6001600160a01b038116600090815260036020526040902080546000190190555b6001600160a01b03851615610c7e576001600160a01b0385166000908152600360205260409020805460010190555b60008481526002602052604080822080546001600160a01b0319166001600160a01b0389811691821790925591518793918516917fddf252ad1be2c89b69c2b068fc378daa952ba7f163c4a11628f55a4df523b3ef91a4949350505050565b6006546001600160a01b031633146108a55760405163118cdaa760e01b8152336004820152602401610501565b6000610d196000836000610be4565b90506001600160a01b0381166104d757604051637e27328960e01b815260048101839052602401610501565b6104d7828260405180602001604052806000815250611204565b6000828152600c6020526040902061059a8282611855565b600680546001600160a01b038381166001600160a01b0319831681179093556040519116919082907f8be0079c531659141344cd1fd0a4f28419497f9722a3daafe3b4186f6b6457e090600090a35050565b6001600160a01b038216610dfb57604051630b61174360e31b81526001600160a01b0383166004820152602401610501565b6001600160a01b03838116600081815260056020908152604080832094871680845294825291829020805460ff191686151590811790915591519182527f17307eab39ab6107e8899845ad3d59bd9653f200f220920489ca2b5937696c31910160405180910390a3505050565b6001600160a01b0383163b1561056557604051630a85bd0160e11b81526001600160a01b0384169063150b7a0290610eaa903390889087908790600401611a01565b6020604051808303816000875af1925050508015610ee5575060408051601f3d908101601f19168201909252610ee291810190611a3e565b60015b610f4e573d808015610f13576040519150601f19603f3d011682016040523d82523d6000602084013e610f18565b606091505b508051600003610f4657604051633250574960e11b81526001600160a01b0385166004820152602401610501565b805181602001fd5b6001600160e01b03198116630a85bd0160e11b14610f8a57604051633250574960e11b81526001600160a01b0385166004820152602401610501565b5050505050565b606081600003610fb85750506040805180820190915260018152600360fc1b602082015290565b8160005b8115610fe25780610fcc8161193e565b9150610fdb9050600a83611a71565b9150610fbc565b60008167ffffffffffffffff811115610ffd57610ffd61141b565b6040519080825280601f01601f191660200182016040528015611027576020820181803683370190505b5090505b84156110925761103c600183611a85565b9150611049600a86611a98565b61105490603061192b565b60f81b81838151811061106957611069611957565b60200101906001600160f81b031916908160001a90535061108b600a86611a71565b945061102b565b949350505050565b80806110ae57506001600160a01b03821615155b156111705760006110be84610b9e565b90506001600160a01b038316158015906110ea5750826001600160a01b0316816001600160a01b031614155b80156110fd57506110fb8184610b35565b155b156111265760405163a9fbf51f60e01b81526001600160a01b0384166004820152602401610501565b811561116e5783856001600160a01b0316826001600160a01b03167f8c5be1e5ebec7d5bd14f71427d1e84f3dd0314c0f7b2291e5b200ac8c7c3b92560405160405180910390a45b505b5050600090815260046020526040902080546001600160a01b0319166001600160a01b0392909216919091179055565b6111ab83838361121b565b61059a576001600160a01b0383166111d957604051637e27328960e01b815260048101829052602401610501565b60405163177e802f60e01b81526001600160a01b038316600482015260248101829052604401610501565b61120e838361127e565b61059a6000848484610e68565b60006001600160a01b038316158015906110925750826001600160a01b0316846001600160a01b0316148061125557506112558484610b35565b806110925750506000908152600460205260409020546001600160a01b03908116911614919050565b6001600160a01b0382166112a857604051633250574960e11b815260006004820152602401610501565b60006112b683836000610be4565b90506001600160a01b0381161561059a576040516339e3563760e11b815260006004820152602401610501565b6001600160e01b03198116811461065b57600080fd5b60006020828403121561130b57600080fd5b8135611316816112e3565b9392505050565b60005b83811015611338578181015183820152602001611320565b50506000910152565b6000815180845261135981602086016020860161131d565b601f01601f19169290920160200192915050565b6020815260006113166020830184611341565b60006020828403121561139257600080fd5b5035919050565b80356001600160a01b03811681146113b057600080fd5b919050565b600080604083850312156113c857600080fd5b6113d183611399565b946020939093013593505050565b6000806000606084860312156113f457600080fd5b6113fd84611399565b925061140b60208501611399565b9150604084013590509250925092565b634e487b7160e01b600052604160045260246000fd5b604051601f8201601f1916810167ffffffffffffffff8111828210171561145a5761145a61141b565b604052919050565b600067ffffffffffffffff83111561147c5761147c61141b565b61148f601f8401601f1916602001611431565b90508281528383830111156114a357600080fd5b828260208301376000602084830101529392505050565b600082601f8301126114cb57600080fd5b61131683833560208501611462565b6000602082840312156114ec57600080fd5b813567ffffffffffffffff81111561150357600080fd5b611092848285016114ba565b600067ffffffffffffffff8211156115295761152961141b565b5060051b60200190565b600082601f83011261154457600080fd5b813560206115596115548361150f565b611431565b82815260059290921b8401810191818101908684111561157857600080fd5b8286015b848110156115b857803567ffffffffffffffff81111561159c5760008081fd5b6115aa8986838b01016114ba565b84525091830191830161157c565b509695505050505050565b600080604083850312156115d657600080fd5b823567ffffffffffffffff808211156115ee57600080fd5b818501915085601f83011261160257600080fd5b813560206116126115548361150f565b82815260059290921b8401810191818101908984111561163157600080fd5b948201945b838610156116565761164786611399565b82529482019490820190611636565b9650508601359250508082111561166c57600080fd5b5061167985828601611533565b9150509250929050565b60006020828403121561169557600080fd5b61131682611399565b600080604083850312156116b157600080fd5b6116ba83611399565b9150602083013580151581146116cf57600080fd5b809150509250929050565b600080600080608085870312156116f057600080fd5b6116f985611399565b935061170760208601611399565b925060408501359150606085013567ffffffffffffffff81111561172a57600080fd5b8501601f8101871361173b57600080fd5b61174a87823560208401611462565b91505092959194509250565b6000806040838503121561176957600080fd5b61177283611399565b9150602083013567ffffffffffffffff81111561178e57600080fd5b611679858286016114ba565b600080604083850312156117ad57600080fd5b6117b683611399565b91506117c460208401611399565b90509250929050565b600181811c908216806117e157607f821691505b60208210810361180157634e487b7160e01b600052602260045260246000fd5b50919050565b601f82111561059a57600081815260208120601f850160051c8101602086101561182e5750805b601f850160051c820191505b8181101561184d5782815560010161183a565b505050505050565b815167ffffffffffffffff81111561186f5761186f61141b565b6118838161187d84546117cd565b84611807565b602080601f8311600181146118b857600084156118a05750858301515b600019600386901b1c1916600185901b17855561184d565b600085815260208120601f198616915b828110156118e7578886015182559484019460019091019084016118c8565b50858210156119055787850151600019600388901b60f8161c191681555b5050505050600190811b01905550565b634e487b7160e01b600052601160045260246000fd5b8082018082111561040b5761040b611915565b60006001820161195057611950611915565b5060010190565b634e487b7160e01b600052603260045260246000fd5b600080845461197b816117cd565b6001828116801561199357600181146119a8576119d7565b60ff19841687528215158302870194506119d7565b8860005260208060002060005b858110156119ce5781548a8201529084019082016119b5565b50505082870194505b50602f60f81b8452865192506119f38382860160208a0161131d565b919092010195945050505050565b6001600160a01b0385811682528416602082015260408101839052608060608201819052600090611a3490830184611341565b9695505050505050565b600060208284031215611a5057600080fd5b8151611316816112e3565b634e487b7160e01b600052601260045260246000fd5b600082611a8057611a80611a5b565b500490565b8181038181111561040b5761040b611915565b600082611aa757611aa7611a5b565b50069056fea2646970667358221220dc8d629a1c5fb2b8228665d4c54753436acc9d2508566f228ec8015b43bbd27f64736f6c63430008140033a2646970667358221220336d988d389f63a8e3739700cbeef26ff3e6b876b8e1a80aa9f850c50abdfdd464736f6c63430008140033",
  "linkReferences": {},
  "deployedLinkReferences": {}
}