{
  "_format": "hh3-artifact-1",
  "contractName": "ContractTemplates",
  "sourceName": "contracts/ContractTemplates.sol",
  "abi": [
    {
      "inputs": [],
      "stateMutability": "nonpayable",
      "type": "constructor"
    },
    {
      "inputs": [
        {
          "internalType": "address",
          "name": "owner",
          "type": "address"
        }
      ],
      "name": "OwnableInvalidOwner",
      "type": "error"
    },
    {
      "inputs": [
        {
          "internalType": "address",
          "name": "account",
          "type": "address"
        }
      ],
      "name": "OwnableUnauthorizedAccount",
      "type": "error"
    },
    {
      "inputs": [],
      "name": "ReentrancyGuardReentrantCall",
      "type": "error"
    },
    {
      "anonymous": false,
      "inputs": [
        {
          "indexed": true,
          "internalType": "address",
          "name": "contractAddress",
          "type": "address"
        },
        {
          "indexed": false,
          "internalType": "address[]",
          "name": "owners",
          "type": "address[]"
        }
      ],
      "name": "MultiSigDeployed",
      "type": "event"
    },
    {
      "anonymous": false,
      "inputs": [
        {
          "indexed": true,
          "internalType": "address",
          "name": "previousOwner",
          "type": "address"
        },
        {
          "indexed": true,
          "internalType": "address",
          "name": "newOwner",
          "type": "address"
        }
      ],
      "name": "OwnershipTransferred",
      "type": "event"
    },
    {
      "anonymous": false,
      "inputs": [
        {
          "indexed": true,
          "internalType": "address",
          "name": "contractAddress",
          "type": "address"
        },
        {
          "indexed": true,
          "internalType": "address",
          "name": "owner",
          "type": "address"
        }
      ],
      "name": "StakingContractDeployed",
      "type": "event"
    },
    {
      "anonymous": false,
      "inputs": [
        {
          "indexed": true,
          "internalType": "address",
          "name": "contractAddress",
          "type": "address"
        },
        {
          "indexed": true,
          "internalType": "address",
          "name": "beneficiary",
          "type": "address"
        }
      ],
      "name": "VestingContractDeployed",
      "type": "event"
    },
    {
      "inputs": [
        {
          "internalType": "address[]",
          "name": "owners",
          "type": "address[]"
        },
        {
          "internalType": "uint256",
          "name": "requiredSignatures",
          "type": "uint256"
        }
      ],
      "name": "deployMultiSigWallet",
      "outputs": [
        {
          "internalType": "address",
          "name": "contractAddress",
          "type": "address"
        }
      ],
      "stateMutability": "nonpayable",
      "type": "function"
    },
    {
      "inputs": [
        {
          "internalType": "address",
          "name": "stakingToken",
          "type": "address"
        },
        {
          "internalType": "address",
          "name": "rewardToken",
          "type": "address"
        },
        {
          "internalType": "uint256",
          "name": "rewardRate",
          "type": "uint256"
        }
      ],
      "name": "deployStakingContract",
      "outputs": [
        {
          "internalType": "address",
          "name": "contractAddress",
          "type": "address"
        }
      ],
      "stateMutability": "nonpayable",
      "type": "function"
    },
    {
      "inputs": [
        {
          "internalType": "address",
          "name": "token",
          "type": "address"
        },
        {
          "internalType": "address",
          "name": "beneficiary",
          "type": "address"
        },
        {
          "internalType": "uint256",
          "name": "totalAmount",
          "type": "uint256"
        },
        {
          "internalType": "uint256",
          "name": "startTime",
          "type": "uint256"
        },
        {
          "internalType": "uint256",
          "name": "duration",
          "type": "uint256"
        }
      ],
      "name": "deployVestingContract",
      "outputs": [
        {
          "internalType": "address",
          "name": "contractAddress",
          "type": "address"
        }
      ],
      "stateMutability": "nonpayable",
      "type": "function"
    },
    {
      "inputs": [],
      "name": "owner",
      "outputs": [
        {
          "internalType": "address",
          "name": "",
          "type": "address"
        }
      ],
      "stateMutability": "view",
      "type": "function"
    },
    {
      "inputs": [],
      "name": "renounceOwnership",
      "outputs": [],
      "stateMutability": "nonpayable",
      "type": "function"
    },
    {
      "inputs": [
        {
          "internalType": "address",
          "name": "newOwner",
          "type": "address"
        }
      ],
      "name": "transferOwnership",
      "outputs": [],
      "stateMutability": "nonpayable",
      "type": "function"
    }
  ],
  "bytecode": "0x6080604052348015600e575f5ffd5b503380603357604051631e4fbdf760e01b81525f600482015260240160405180910390fd5b603a816043565b50600180556092565b5f80546001600160a01b038381166001600160a01b0319831681178455604051919092169283917f8be0079c531659141344cd1fd0a4f28419497f9722a3daafe3b4186f6b6457e09190a35050565b6132a88061009f5f395ff3fe608060405234801561000f575f5ffd5b5060043610610060575f3560e01c80634115c92d14610064578063715018a6146100935780638da5cb5b1461009d578063c057b574146100ad578063d53e091b146100c0578063f2fde38b146100d3575b5f5ffd5b6100776100723660046107c4565b6100e6565b6040516001600160a01b03909116815260200160405180910390f35b61009b610288565b005b5f546001600160a01b0316610077565b6100776100bb3660046107fe565b61029b565b6100776100ce36600461085b565b6104de565b61009b6100e136600461092e565b6106a0565b5f6100ef6106dd565b6001600160a01b0384166101425760405162461bcd60e51b815260206004820152601560248201527424b73b30b634b21039ba30b5b4b733903a37b5b2b760591b60448201526064015b60405180910390fd5b6001600160a01b03831661018f5760405162461bcd60e51b815260206004820152601460248201527324b73b30b634b2103932bbb0b932103a37b5b2b760611b6044820152606401610139565b5f82116101e95760405162461bcd60e51b815260206004820152602260248201527f5265776172642072617465206d7573742062652067726561746572207468616e604482015261020360f41b6064820152608401610139565b5f848484336040516101fa90610782565b6001600160a01b039485168152928416602084015260408301919091529091166060820152608001604051809103905ff08015801561023b573d5f5f3e3d5ffd5b5060405190925082915033906001600160a01b038316907fb33ca3007e6963e931eb002c84c2de907193c5e7d89466074057939fedda2c8a905f90a35061028160018055565b9392505050565b610290610707565b6102995f610733565b565b5f6102a46106dd565b6001600160a01b0386166102ea5760405162461bcd60e51b815260206004820152600d60248201526c24b73b30b634b2103a37b5b2b760991b6044820152606401610139565b6001600160a01b0385166103365760405162461bcd60e51b8152602060048201526013602482015272496e76616c69642062656e656669636961727960681b6044820152606401610139565b5f84116103915760405162461bcd60e51b815260206004820152602360248201527f546f74616c20616d6f756e74206d75737420626520677265617465722074686160448201526206e20360ec1b6064820152608401610139565b4283116103e05760405162461bcd60e51b815260206004820181905260248201527f53746172742074696d65206d75737420626520696e20746865206675747572656044820152606401610139565b5f821161042f5760405162461bcd60e51b815260206004820152601f60248201527f4475726174696f6e206d7573742062652067726561746572207468616e2030006044820152606401610139565b5f86868686866040516104419061078f565b6001600160a01b03958616815294909316602085015260408401919091526060830152608082015260a001604051809103905ff080158015610485573d5f5f3e3d5ffd5b509050809150856001600160a01b0316826001600160a01b03167f739fe22b8edefd6ce1fe32460f9cd54bf8e66fc7447f4c8a8131ce078a1988af60405160405180910390a3506104d560018055565b95945050505050565b5f6104e76106dd565b60028351101561054d5760405162461bcd60e51b815260206004820152602b60248201527f4d756c74692d7369672077616c6c6574207265717569726573206174206c656160448201526a73742032206f776e65727360a81b6064820152608401610139565b5f82116105af5760405162461bcd60e51b815260206004820152602a60248201527f5265717569726564207369676e617475726573206d75737420626520677265616044820152690746572207468616e20360b41b6064820152608401610139565b82518211156106165760405162461bcd60e51b815260206004820152602d60248201527f5265717569726564207369676e6174757265732063616e6e6f7420657863656560448201526c19081bdddb995c8818dbdd5b9d609a1b6064820152608401610139565b5f83836040516106259061079c565b61063092919061098a565b604051809103905ff080158015610649573d5f5f3e3d5ffd5b509050809150816001600160a01b03167f05eaf7382b122fb5f72db0ea2d1b09bfb4b5c3dc8cbff6ce35cd7c6316c72bc08560405161068891906109ab565b60405180910390a25061069a60018055565b92915050565b6106a8610707565b6001600160a01b0381166106d157604051631e4fbdf760e01b81525f6004820152602401610139565b6106da81610733565b50565b60026001540361070057604051633ee5aeb560e01b815260040160405180910390fd5b6002600155565b5f546001600160a01b031633146102995760405163118cdaa760e01b8152336004820152602401610139565b5f80546001600160a01b038381166001600160a01b0319831681178455604051919092169283917f8be0079c531659141344cd1fd0a4f28419497f9722a3daafe3b4186f6b6457e09190a35050565b610aa8806109be83390190565b6107228061146683390190565b6116eb80611b8883390190565b80356001600160a01b03811681146107bf575f5ffd5b919050565b5f5f5f606084860312156107d6575f5ffd5b6107df846107a9565b92506107ed602085016107a9565b929592945050506040919091013590565b5f5f5f5f5f60a08688031215610812575f5ffd5b61081b866107a9565b9450610829602087016107a9565b94979496505050506040830135926060810135926080909101359150565b634e487b7160e01b5f52604160045260245ffd5b5f5f6040838503121561086c575f5ffd5b823567ffffffffffffffff811115610882575f5ffd5b8301601f81018513610892575f5ffd5b803567ffffffffffffffff8111156108ac576108ac610847565b8060051b604051601f19603f830116810181811067ffffffffffffffff821117156108d9576108d9610847565b6040529182526020818401810192908101888411156108f6575f5ffd5b6020850194505b8385101561091c5761090e856107a9565b8152602094850194016108fd565b50976020969096013596505050505050565b5f6020828403121561093e575f5ffd5b610281826107a9565b5f8151808452602084019350602083015f5b828110156109805781516001600160a01b0316865260209586019590910190600101610959565b5093949350505050565b604081525f61099c6040830185610947565b90508260208301529392505050565b602081525f610281602083018461094756fe608060405234801561000f575f5ffd5b50604051610aa8380380610aa883398101604081905261002e91610113565b60015f55806001600160a01b03811661006057604051631e4fbdf760e01b81525f600482015260240160405180910390fd5b610069816100a7565b5050600280546001600160a01b039485166001600160a01b03199182161790915560038054939094169216919091179091556004554260065561015d565b600180546001600160a01b038381166001600160a01b0319831681179093556040519116919082907f8be0079c531659141344cd1fd0a4f28419497f9722a3daafe3b4186f6b6457e0905f90a35050565b80516001600160a01b038116811461010e575f5ffd5b919050565b5f5f5f5f60808587031215610126575f5ffd5b61012f856100f8565b935061013d602086016100f8565b925060408501519150610152606086016100f8565b905092959194509250565b61093e8061016a5f395ff3fe608060405234801561000f575f5ffd5b5060043610610105575f3560e01c80638b8763471161009e578063c8f33c911161006e578063c8f33c9114610212578063cd3daf9d1461021b578063df136d6514610223578063f2fde38b1461022c578063f7c618c11461023f575f5ffd5b80638b876347146101b05780638da5cb5b146101cf578063a694fc3a146101e0578063acc3a939146101f3575f5ffd5b8063715018a6116100d9578063715018a61461016b57806372f702f3146101735780637b0a47ee1461019e578063817b1cd2146101a7575f5ffd5b80628cc262146101095780630700037d1461012f5780632e1a7d4d1461014e5780633d18b91214610163575b5f5ffd5b61011c610117366004610835565b610252565b6040519081526020015b60405180910390f35b61011c61013d366004610835565b600a6020525f908152604090205481565b61016161015c366004610862565b6102cd565b005b610161610472565b61016161055f565b600254610186906001600160a01b031681565b6040516001600160a01b039091168152602001610126565b61011c60045481565b61011c60055481565b61011c6101be366004610835565b60096020525f908152604090205481565b6001546001600160a01b0316610186565b6101616101ee366004610862565b610570565b61011c610201366004610835565b60086020525f908152604090205481565b61011c60065481565b61011c6106a5565b61011c60075481565b61016161023a366004610835565b610701565b600354610186906001600160a01b031681565b6001600160a01b0381165f908152600a60209081526040808320546009909252822054670de0b6b3a7640000906102876106a5565b610291919061088d565b6001600160a01b0385165f908152600860205260409020546102b391906108a0565b6102bd91906108b7565b6102c791906108d6565b92915050565b6102d561073b565b5f811161031d5760405162461bcd60e51b8152602060048201526011602482015270043616e6e6f74207769746864726177203607c1b60448201526064015b60405180910390fd5b335f9081526008602052604090205481111561037b5760405162461bcd60e51b815260206004820152601a60248201527f496e73756666696369656e74207374616b656420616d6f756e740000000000006044820152606401610314565b61038433610763565b8060055f828254610395919061088d565b9091555050335f90815260086020526040812080548392906103b890849061088d565b909155505060025460405163a9059cbb60e01b8152336004820152602481018390526001600160a01b039091169063a9059cbb906044016020604051808303815f875af115801561040b573d5f5f3e3d5ffd5b505050506040513d601f19601f8201168201806040525081019061042f91906108e9565b5060405181815233907f7084f5476618d8e60b11ef0d7d3f06914655adb8793e28ff7f018d4c76d505d5906020015b60405180910390a261046f60015f55565b50565b61047a61073b565b61048333610763565b335f908152600a6020526040902054801561055357335f818152600a602052604080822091909155600354905163a9059cbb60e01b81526004810192909252602482018390526001600160a01b03169063a9059cbb906044016020604051808303815f875af11580156104f8573d5f5f3e3d5ffd5b505050506040513d601f19601f8201168201806040525081019061051c91906108e9565b5060405181815233907fe2403640ba68fed3a2f88b7557551d1993f84b99bb10ff833f0cf8db0c5e04869060200160405180910390a25b5061055d60015f55565b565b6105676107b7565b61055d5f6107e4565b61057861073b565b5f81116105b85760405162461bcd60e51b815260206004820152600e60248201526d043616e6e6f74207374616b6520360941b6044820152606401610314565b6105c133610763565b8060055f8282546105d291906108d6565b9091555050335f90815260086020526040812080548392906105f59084906108d6565b90915550506002546040516323b872dd60e01b8152336004820152306024820152604481018390526001600160a01b03909116906323b872dd906064016020604051808303815f875af115801561064e573d5f5f3e3d5ffd5b505050506040513d601f19601f8201168201806040525081019061067291906108e9565b5060405181815233907f9e71bc8eea02a63969f509818f2dafb9254532904319f9dbda79b67bd34a5f3d9060200161045e565b5f6005545f036106b6575060075490565b6005546004546006546106c9904261088d565b6106d391906108a0565b6106e590670de0b6b3a76400006108a0565b6106ef91906108b7565b6007546106fc91906108d6565b905090565b6107096107b7565b6001600160a01b03811661073257604051631e4fbdf760e01b81525f6004820152602401610314565b61046f816107e4565b60025f540361075d57604051633ee5aeb560e01b815260040160405180910390fd5b60025f55565b61076b6106a5565b600755426006556001600160a01b0381161561046f5761078a81610252565b6001600160a01b0382165f908152600a602090815260408083209390935560075460099091529190205550565b6001546001600160a01b0316331461055d5760405163118cdaa760e01b8152336004820152602401610314565b600180546001600160a01b038381166001600160a01b0319831681179093556040519116919082907f8be0079c531659141344cd1fd0a4f28419497f9722a3daafe3b4186f6b6457e0905f90a35050565b5f60208284031215610845575f5ffd5b81356001600160a01b038116811461085b575f5ffd5b9392505050565b5f60208284031215610872575f5ffd5b5035919050565b634e487b7160e01b5f52601160045260245ffd5b818103818111156102c7576102c7610879565b80820281158282048414176102c7576102c7610879565b5f826108d157634e487b7160e01b5f52601260045260245ffd5b500490565b808201808211156102c7576102c7610879565b5f602082840312156108f9575f5ffd5b8151801515811461085b575f5ffdfea26469706673582212201bc6477975c17e7762f327b5f0743ed3ca921cd66b0ed5f55123de9e319d1e9b64736f6c634300081c0033608060405234801561000f575f5ffd5b5060405161072238038061072283398101604081905261002e91610108565b338061005357604051631e4fbdf760e01b81525f600482015260240160405180910390fd5b61005c8161009e565b50600180546001600160a01b039687166001600160a01b0319918216179091556002805495909616941693909317909355600355600491909155600555610152565b5f80546001600160a01b038381166001600160a01b0319831681178455604051919092169283917f8be0079c531659141344cd1fd0a4f28419497f9722a3daafe3b4186f6b6457e09190a35050565b80516001600160a01b0381168114610103575f5ffd5b919050565b5f5f5f5f5f60a0868803121561011c575f5ffd5b610125866100ed565b9450610133602087016100ed565b6040870151606088015160809098015196999198509695945092505050565b6105c38061015f5f395ff3fe608060405234801561000f575f5ffd5b50600436106100cb575f3560e01c806378e97925116100885780639613252111610063578063961325211461015a578063dc25a30014610163578063f2fde38b146101a2578063fc0c546a146101b5575f5ffd5b806378e979251461013957806386d1a69f146101425780638da5cb5b1461014a575f5ffd5b80630fb5a6b4146100cf5780631a39d8ef146100eb57806338af3eed146100f457806344b1231f1461011f5780635b94008114610127578063715018a61461012f575b5f5ffd5b6100d860055481565b6040519081526020015b60405180910390f35b6100d860035481565b600254610107906001600160a01b031681565b6040516001600160a01b0390911681526020016100e2565b6100d86101c8565b6100d8610221565b610137610237565b005b6100d860045481565b61013761024a565b5f546001600160a01b0316610107565b6100d860065481565b61016b6103d1565b604080516001600160a01b0390971687526020870195909552938501929092526060840152608083015260a082015260c0016100e2565b6101376101b03660046104cb565b610413565b600154610107906001600160a01b031681565b5f6004544210156101d857505f90565b6005546004546101e8919061050c565b42106101f5575060035490565b6005546004546102059042610525565b6003546102129190610538565b61021c919061054f565b905090565b5f60065461022d6101c8565b61021c9190610525565b61023f610450565b6102485f61047c565b565b6004544210156102a15760405162461bcd60e51b815260206004820152601760248201527f56657374696e6720686173206e6f74207374617274656400000000000000000060448201526064015b60405180910390fd5b5f6006546102ad6101c8565b6102b79190610525565b90505f81116102ff5760405162461bcd60e51b81526020600482015260146024820152734e6f20746f6b656e7320746f2072656c6561736560601b6044820152606401610298565b8060065f828254610310919061050c565b909155505060015460025460405163a9059cbb60e01b81526001600160a01b0391821660048201526024810184905291169063a9059cbb906044016020604051808303815f875af1158015610367573d5f5f3e3d5ffd5b505050506040513d601f19601f8201168201806040525081019061038b919061056e565b506002546040518281526001600160a01b03909116907fc7798891864187665ac6dd119286e44ec13f014527aeeb2b8eb3fd413df931799060200160405180910390a250565b5f5f5f5f5f5f60025f9054906101000a90046001600160a01b03166003546004546005546006546104006101c8565b949b939a50919850965094509092509050565b61041b610450565b6001600160a01b03811661044457604051631e4fbdf760e01b81525f6004820152602401610298565b61044d8161047c565b50565b5f546001600160a01b031633146102485760405163118cdaa760e01b8152336004820152602401610298565b5f80546001600160a01b038381166001600160a01b0319831681178455604051919092169283917f8be0079c531659141344cd1fd0a4f28419497f9722a3daafe3b4186f6b6457e09190a35050565b5f602082840312156104db575f5ffd5b81356001600160a01b03811681146104f1575f5ffd5b9392505050565b634e487b7160e01b5f52601160045260245ffd5b8082018082111561051f5761051f6104f8565b92915050565b8181038181111561051f5761051f6104f8565b808202811582820484141761051f5761051f6104f8565b5f8261056957634e487b7160e01b5f52601260045260245ffd5b500490565b5f6020828403121561057e575f5ffd5b815180151581146104f1575f5ffdfea26469706673582212202259f87a762bcbdee83d180702e02d37c5b2c2fcddad6551d840b610713fc8ba64736f6c634300081c0033608060405234801561000f575f5ffd5b506040516116eb3803806116eb83398101604081905261002e91610352565b338061005457604051631e4fbdf760e01b81525f60048201526024015b60405180910390fd5b61005d816102d4565b506002825110156100c45760405162461bcd60e51b815260206004820152602b60248201527f4d756c74692d7369672077616c6c6574207265717569726573206174206c656160448201526a73742032206f776e65727360a81b606482015260840161004b565b5f81116101265760405162461bcd60e51b815260206004820152602a60248201527f5265717569726564207369676e617475726573206d75737420626520677265616044820152690746572207468616e20360b41b606482015260840161004b565b815181111561018d5760405162461bcd60e51b815260206004820152602d60248201527f5265717569726564207369676e6174757265732063616e6e6f7420657863656560448201526c19081bdddb995c8818dbdd5b9d609a1b606482015260840161004b565b5f5b82518110156102ca575f8382815181106101ab576101ab610426565b602002602001015190505f6001600160a01b0316816001600160a01b0316036102065760405162461bcd60e51b815260206004820152600d60248201526c24b73b30b634b21037bbb732b960991b604482015260640161004b565b6001600160a01b0381165f9081526001602052604090205460ff16156102615760405162461bcd60e51b815260206004820152601060248201526f4f776e6572206e6f7420756e6971756560801b604482015260640161004b565b6001600160a01b03165f8181526001602081905260408220805460ff19168217905560028054808301825592527f405787fa12a823e0f2b7631cc41b3ba8828b3321ca811111fa75cd3aa3bb5ace90910180546001600160a01b0319169092179091550161018f565b506003555061043a565b5f80546001600160a01b038381166001600160a01b0319831681178455604051919092169283917f8be0079c531659141344cd1fd0a4f28419497f9722a3daafe3b4186f6b6457e09190a35050565b634e487b7160e01b5f52604160045260245ffd5b80516001600160a01b038116811461034d575f5ffd5b919050565b5f5f60408385031215610363575f5ffd5b82516001600160401b03811115610378575f5ffd5b8301601f81018513610388575f5ffd5b80516001600160401b038111156103a1576103a1610323565b604051600582901b90603f8201601f191681016001600160401b03811182821017156103cf576103cf610323565b6040529182526020818401810192908101888411156103ec575f5ffd5b6020850194505b838510156104125761040485610337565b8152602094850194016103f3565b506020969096015195979596505050505050565b634e487b7160e01b5f52603260045260245ffd5b6112a4806104475f395ff3fe6080604052600436106100fd575f3560e01c806380f59a6511610092578063a0e67e2b11610062578063a0e67e2b146102e8578063c01a8c8414610309578063c642747414610328578063ee22610b14610347578063f2fde38b14610366575f5ffd5b806380f59a651461025f5780638d068043146102985780638da5cb5b146102ad5780639ace38c2146102c9575f5ffd5b806333ea3dc8116100cd57806333ea3dc8146101c1578063568d9c2e146101f157806368ea8f1f14610214578063715018a61461024b575f5ffd5b8063025e7c271461010857806320ea8d86146101445780632e7700f0146101655780632f54bf6e14610183575f5ffd5b3661010457005b5f5ffd5b348015610113575f5ffd5b50610127610122366004610da8565b610385565b6040516001600160a01b0390911681526020015b60405180910390f35b34801561014f575f5ffd5b5061016361015e366004610da8565b6103ad565b005b348015610170575f5ffd5b506005545b60405190815260200161013b565b34801561018e575f5ffd5b506101b161019d366004610dda565b60016020525f908152604090205460ff1681565b604051901515815260200161013b565b3480156101cc575f5ffd5b506101e06101db366004610da8565b610542565b60405161013b959493929190610dfa565b3480156101fc575f5ffd5b50610205610637565b60405161013b93929190610e98565b34801561021f575f5ffd5b506101b161022e366004610dda565b6001600160a01b03165f9081526001602052604090205460ff1690565b348015610256575f5ffd5b506101636106ab565b34801561026a575f5ffd5b506101b1610279366004610ebc565b600460209081525f928352604080842090915290825290205460ff1681565b3480156102a3575f5ffd5b5061017560035481565b3480156102b8575f5ffd5b505f546001600160a01b0316610127565b3480156102d4575f5ffd5b506101e06102e3366004610da8565b6106be565b3480156102f3575f5ffd5b506102fc610793565b60405161013b9190610ee6565b348015610314575f5ffd5b50610163610323366004610da8565b6107f3565b348015610333575f5ffd5b50610175610342366004610ef8565b610985565b348015610352575f5ffd5b50610163610361366004610da8565b610ae7565b348015610371575f5ffd5b50610163610380366004610dda565b610cf0565b60028181548110610394575f80fd5b5f918252602090912001546001600160a01b0316905081565b335f9081526001602052604090205460ff166103e45760405162461bcd60e51b81526004016103db90610f7b565b60405180910390fd5b600554819081106104075760405162461bcd60e51b81526004016103db90610fa1565b816005818154811061041b5761041b610fd8565b5f91825260209091206003600590920201015460ff161561044e5760405162461bcd60e51b81526004016103db90610fec565b5f6005848154811061046257610462610fd8565b5f91825260208083208784526004825260408085203386529092529220546005909102909101915060ff166104d95760405162461bcd60e51b815260206004820152601d60248201527f5472616e73616374696f6e20616c726561647920636f6e6669726d656400000060448201526064016103db565b6001816004015f8282546104ed9190611037565b90915550505f848152600460209081526040808320338085529252808320805460ff1916905551909186917f4cd471041f6b9ff47536a54a3d3ab62d0fa9dd5e36c0418b294b1673acb318819190a350505050565b5f5f60605f5f5f6005878154811061055c5761055c610fd8565b5f918252602090912060059091020180546001820154600383015460048401546002850180549596506001600160a01b039094169492939260ff9092169183906105a590611050565b80601f01602080910402602001604051908101604052809291908181526020018280546105d190611050565b801561061c5780601f106105f35761010080835404028352916020019161061c565b820191905f5260205f20905b8154815290600101906020018083116105ff57829003601f168201915b50505050509250955095509550955095505091939590929450565b60605f5f60026003546002805490508280548060200260200160405190810160405280929190818152602001828054801561069957602002820191905f5260205f20905b81546001600160a01b0316815260019091019060200180831161067b575b50505050509250925092509250909192565b6106b3610d2d565b6106bc5f610d59565b565b600581815481106106cd575f80fd5b5f9182526020909120600590910201805460018201546002830180546001600160a01b03909316945090929161070290611050565b80601f016020809104026020016040519081016040528092919081815260200182805461072e90611050565b80156107795780601f1061075057610100808354040283529160200191610779565b820191905f5260205f20905b81548152906001019060200180831161075c57829003601f168201915b505050506003830154600490930154919260ff1691905085565b606060028054806020026020016040519081016040528092919081815260200182805480156107e957602002820191905f5260205f20905b81546001600160a01b031681526001909101906020018083116107cb575b5050505050905090565b335f9081526001602052604090205460ff166108215760405162461bcd60e51b81526004016103db90610f7b565b600554819081106108445760405162461bcd60e51b81526004016103db90610fa1565b816005818154811061085857610858610fd8565b5f91825260209091206003600590920201015460ff161561088b5760405162461bcd60e51b81526004016103db90610fec565b5f838152600460209081526040808320338452909152902054839060ff16156108f65760405162461bcd60e51b815260206004820152601d60248201527f5472616e73616374696f6e20616c726561647920636f6e6669726d656400000060448201526064016103db565b5f6005858154811061090a5761090a610fd8565b905f5260205f20906005020190506001816004015f82825461092c9190611088565b90915550505f858152600460209081526040808320338085529252808320805460ff1916600117905551909187917f15c2f311c9e0f53b50388279894aeff029a3457884a6601e924fca879e12adcc9190a35050505050565b335f9081526001602052604081205460ff166109b35760405162461bcd60e51b81526004016103db90610f7b565b600580549050905060056040518060a00160405280876001600160a01b0316815260200186815260200185858080601f0160208091040260200160405190810160405280939291908181526020018383808284375f9201829052509385525050506020808301829052604092830182905284546001808201875595835291819020845160059093020180546001600160a01b0319166001600160a01b03909316929092178255830151938101939093558101519091906002820190610a7890826110fb565b50606082015160038201805460ff1916911515919091179055608090910151600490910155604051339082907f2ecf8c4571be1f8a0b1e6feaa711128f3f8038e97869aa59d0f595e21f50eaa090610ad79089908990899089906111b6565b60405180910390a3949350505050565b335f9081526001602052604090205460ff16610b155760405162461bcd60e51b81526004016103db90610f7b565b60055481908110610b385760405162461bcd60e51b81526004016103db90610fa1565b8160058181548110610b4c57610b4c610fd8565b5f91825260209091206003600590920201015460ff1615610b7f5760405162461bcd60e51b81526004016103db90610fec565b5f60058481548110610b9357610b93610fd8565b905f5260205f209060050201905060035481600401541015610bf75760405162461bcd60e51b815260206004820152601a60248201527f43616e6e6f742065786563757465207472616e73616374696f6e00000000000060448201526064016103db565b60038101805460ff191660019081179091558154908201546040515f926001600160a01b03169190610c2d9060028601906111fd565b5f6040518083038185875af1925050503d805f8114610c67576040519150601f19603f3d011682016040523d82523d5f602084013e610c6c565b606091505b5050905080610cbd5760405162461bcd60e51b815260206004820152601c60248201527f5472616e73616374696f6e20657865637574696f6e206661696c65640000000060448201526064016103db565b604051339086907fefc13bdcf58f184ea7cae26b499fb33b539e01d0197cea456f3ada289b8cf19b905f90a35050505050565b610cf8610d2d565b6001600160a01b038116610d2157604051631e4fbdf760e01b81525f60048201526024016103db565b610d2a81610d59565b50565b5f546001600160a01b031633146106bc5760405163118cdaa760e01b81523360048201526024016103db565b5f80546001600160a01b038381166001600160a01b0319831681178455604051919092169283917f8be0079c531659141344cd1fd0a4f28419497f9722a3daafe3b4186f6b6457e09190a35050565b5f60208284031215610db8575f5ffd5b5035919050565b80356001600160a01b0381168114610dd5575f5ffd5b919050565b5f60208284031215610dea575f5ffd5b610df382610dbf565b9392505050565b60018060a01b038616815284602082015260a060408201525f84518060a0840152806020870160c085015e5f60c0828501015260c0601f19601f83011684010191505083151560608301528260808301529695505050505050565b5f8151808452602084019350602083015f5b82811015610e8e5781516001600160a01b0316865260209586019590910190600101610e67565b5093949350505050565b606081525f610eaa6060830186610e55565b60208301949094525060400152919050565b5f5f60408385031215610ecd575f5ffd5b82359150610edd60208401610dbf565b90509250929050565b602081525f610df36020830184610e55565b5f5f5f5f60608587031215610f0b575f5ffd5b610f1485610dbf565b935060208501359250604085013567ffffffffffffffff811115610f36575f5ffd5b8501601f81018713610f46575f5ffd5b803567ffffffffffffffff811115610f5c575f5ffd5b876020828401011115610f6d575f5ffd5b949793965060200194505050565b6020808252600c908201526b2737ba1030b71037bbb732b960a11b604082015260600190565b6020808252601a908201527f5472616e73616374696f6e20646f6573206e6f74206578697374000000000000604082015260600190565b634e487b7160e01b5f52603260045260245ffd5b6020808252601c908201527f5472616e73616374696f6e20616c726561647920657865637574656400000000604082015260600190565b634e487b7160e01b5f52601160045260245ffd5b8181038181111561104a5761104a611023565b92915050565b600181811c9082168061106457607f821691505b60208210810361108257634e487b7160e01b5f52602260045260245ffd5b50919050565b8082018082111561104a5761104a611023565b634e487b7160e01b5f52604160045260245ffd5b601f8211156110f657805f5260205f20601f840160051c810160208510156110d45750805b601f840160051c820191505b818110156110f3575f81556001016110e0565b50505b505050565b815167ffffffffffffffff8111156111155761111561109b565b611129816111238454611050565b846110af565b6020601f82116001811461115b575f83156111445750848201515b5f19600385901b1c1916600184901b1784556110f3565b5f84815260208120601f198516915b8281101561118a578785015182556020948501946001909201910161116a565b50848210156111a757868401515f19600387901b60f8161c191681555b50505050600190811b01905550565b6001600160a01b0385168152602081018490526060604082018190528101829052818360808301375f818301608090810191909152601f909201601f191601019392505050565b5f5f835461120a81611050565b600182168015611221576001811461123657611263565b60ff1983168652811515820286019350611263565b865f5260205f205f5b8381101561125b5781548882015260019091019060200161123f565b505081860193505b50919594505050505056fea2646970667358221220d697a949f894cc0ab44aac56202795a44fd2f610107e2b2b7d61aa166c0173ee64736f6c634300081c0033a26469706673582212204a5ca33bd4e6a9528a108f634fe25d315c8284647bf0fefde9812c351da5ad8864736f6c634300081c0033",
  "linkReferences": {},
  "deployedLinkReferences": {},
  "immutableReferences": {},
  "inputSourceName": "project/contracts/ContractTemplates.sol",
  "buildInfoId": "solc-0_8_28-fe6fc673f71bbbf5147e4e23aacdcfa8e443ad85"
}