{
  "_format": "hh3-artifact-1",
  "contractName": "DeFiUtils",
  "sourceName": "contracts/DeFiUtils.sol",
  "abi": [
    {
      "inputs": [],
      "stateMutability": "nonpayable",
      "type": "constructor"
    },
    {
      "inputs": [
        {
          "internalType": "address",
          "name": "owner",
          "type": "address"
        }
      ],
      "name": "OwnableInvalidOwner",
      "type": "error"
    },
    {
      "inputs": [
        {
          "internalType": "address",
          "name": "account",
          "type": "address"
        }
      ],
      "name": "OwnableUnauthorizedAccount",
      "type": "error"
    },
    {
      "anonymous": false,
      "inputs": [
        {
          "indexed": false,
          "internalType": "uint256",
          "name": "tokenAAmount",
          "type": "uint256"
        },
        {
          "indexed": false,
          "internalType": "uint256",
          "name": "tokenBAmount",
          "type": "uint256"
        },
        {
          "indexed": false,
          "internalType": "uint256",
          "name": "liquidityTokens",
          "type": "uint256"
        },
        {
          "indexed": false,
          "internalType": "uint256",
          "name": "fee",
          "type": "uint256"
        }
      ],
      "name": "LiquidityCalculated",
      "type": "event"
    },
    {
      "anonymous": false,
      "inputs": [
        {
          "indexed": true,
          "internalType": "address",
          "name": "previousOwner",
          "type": "address"
        },
        {
          "indexed": true,
          "internalType": "address",
          "name": "newOwner",
          "type": "address"
        }
      ],
      "name": "OwnershipTransferred",
      "type": "event"
    },
    {
      "anonymous": false,
      "inputs": [
        {
          "indexed": false,
          "internalType": "uint256",
          "name": "principal",
          "type": "uint256"
        },
        {
          "indexed": false,
          "internalType": "uint256",
          "name": "rate",
          "type": "uint256"
        },
        {
          "indexed": false,
          "internalType": "uint256",
          "name": "time",
          "type": "uint256"
        },
        {
          "indexed": false,
          "internalType": "uint256",
          "name": "yield",
          "type": "uint256"
        }
      ],
      "name": "YieldCalculated",
      "type": "event"
    },
    {
      "inputs": [],
      "name": "PRECISION",
      "outputs": [
        {
          "internalType": "uint256",
          "name": "",
          "type": "uint256"
        }
      ],
      "stateMutability": "view",
      "type": "function"
    },
    {
      "inputs": [],
      "name": "YEAR_IN_SECONDS",
      "outputs": [
        {
          "internalType": "uint256",
          "name": "",
          "type": "uint256"
        }
      ],
      "stateMutability": "view",
      "type": "function"
    },
    {
      "inputs": [
        {
          "internalType": "uint256",
          "name": "principal",
          "type": "uint256"
        },
        {
          "internalType": "uint256",
          "name": "rate",
          "type": "uint256"
        },
        {
          "internalType": "uint256",
          "name": "time",
          "type": "uint256"
        },
        {
          "internalType": "uint256",
          "name": "compoundFrequency",
          "type": "uint256"
        }
      ],
      "name": "calculateCompoundYield",
      "outputs": [
        {
          "internalType": "uint256",
          "name": "yield",
          "type": "uint256"
        }
      ],
      "stateMutability": "pure",
      "type": "function"
    },
    {
      "inputs": [
        {
          "internalType": "uint256",
          "name": "initialTokenAAmount",
          "type": "uint256"
        },
        {
          "internalType": "uint256",
          "name": "initialTokenBAmount",
          "type": "uint256"
        },
        {
          "internalType": "uint256",
          "name": "currentTokenAPrice",
          "type": "uint256"
        },
        {
          "internalType": "uint256",
          "name": "currentTokenBPrice",
          "type": "uint256"
        }
      ],
      "name": "calculateImpermanentLoss",
      "outputs": [
        {
          "internalType": "uint256",
          "name": "lossPercentage",
          "type": "uint256"
        }
      ],
      "stateMutability": "pure",
      "type": "function"
    },
    {
      "inputs": [
        {
          "internalType": "uint256",
          "name": "tokenAAmount",
          "type": "uint256"
        },
        {
          "internalType": "uint256",
          "name": "tokenBAmount",
          "type": "uint256"
        }
      ],
      "name": "calculateLiquidityTokens",
      "outputs": [
        {
          "internalType": "uint256",
          "name": "liquidityTokens",
          "type": "uint256"
        }
      ],
      "stateMutability": "pure",
      "type": "function"
    },
    {
      "inputs": [
        {
          "internalType": "uint256",
          "name": "tokenAPrice",
          "type": "uint256"
        },
        {
          "internalType": "uint256",
          "name": "tokenBPrice",
          "type": "uint256"
        },
        {
          "internalType": "uint256",
          "name": "totalValue",
          "type": "uint256"
        }
      ],
      "name": "calculateOptimalAmounts",
      "outputs": [
        {
          "internalType": "uint256",
          "name": "tokenAAmount",
          "type": "uint256"
        },
        {
          "internalType": "uint256",
          "name": "tokenBAmount",
          "type": "uint256"
        }
      ],
      "stateMutability": "pure",
      "type": "function"
    },
    {
      "inputs": [
        {
          "internalType": "uint256",
          "name": "principal",
          "type": "uint256"
        },
        {
          "internalType": "uint256",
          "name": "rate",
          "type": "uint256"
        },
        {
          "internalType": "uint256",
          "name": "time",
          "type": "uint256"
        }
      ],
      "name": "calculateSimpleYield",
      "outputs": [
        {
          "internalType": "uint256",
          "name": "yield",
          "type": "uint256"
        }
      ],
      "stateMutability": "pure",
      "type": "function"
    },
    {
      "inputs": [
        {
          "internalType": "uint256",
          "name": "inputAmount",
          "type": "uint256"
        },
        {
          "internalType": "uint256",
          "name": "outputAmount",
          "type": "uint256"
        },
        {
          "internalType": "uint256",
          "name": "expectedOutput",
          "type": "uint256"
        }
      ],
      "name": "calculateSlippage",
      "outputs": [
        {
          "internalType": "uint256",
          "name": "slippagePercentage",
          "type": "uint256"
        }
      ],
      "stateMutability": "pure",
      "type": "function"
    },
    {
      "inputs": [
        {
          "internalType": "uint256",
          "name": "amount",
          "type": "uint256"
        },
        {
          "internalType": "uint256",
          "name": "feeRate",
          "type": "uint256"
        }
      ],
      "name": "calculateSwapFee",
      "outputs": [
        {
          "internalType": "uint256",
          "name": "fee",
          "type": "uint256"
        }
      ],
      "stateMutability": "pure",
      "type": "function"
    },
    {
      "inputs": [],
      "name": "owner",
      "outputs": [
        {
          "internalType": "address",
          "name": "",
          "type": "address"
        }
      ],
      "stateMutability": "view",
      "type": "function"
    },
    {
      "inputs": [],
      "name": "renounceOwnership",
      "outputs": [],
      "stateMutability": "nonpayable",
      "type": "function"
    },
    {
      "inputs": [
        {
          "internalType": "address",
          "name": "newOwner",
          "type": "address"
        }
      ],
      "name": "transferOwnership",
      "outputs": [],
      "stateMutability": "nonpayable",
      "type": "function"
    }
  ],
  "bytecode": "0x6080604052348015600e575f5ffd5b503380603357604051631e4fbdf760e01b81525f600482015260240160405180910390fd5b603a81603f565b50608e565b5f80546001600160a01b038381166001600160a01b0319831681178455604051919092169283917f8be0079c531659141344cd1fd0a4f28419497f9722a3daafe3b4186f6b6457e09190a35050565b610dab8061009b5f395ff3fe608060405234801561000f575f5ffd5b50600436106100b1575f3560e01c80638f90d2101161006e5780638f90d21014610130578063aaf5eb6814610158578063d35178b714610167578063d3d8723b1461017a578063dd012ee91461018d578063f2fde38b146101a0575f5ffd5b8063359ab2a4146100b557806370c96009146100db578063715018a6146100ee5780637847ea53146100f85780637cf185bc146101035780638da5cb5b14610116575b5f5ffd5b6100c86100c3366004610c53565b6101b3565b6040519081526020015b60405180910390f35b6100c86100e9366004610c73565b61027d565b6100f6610409565b005b6100c86301e1338081565b6100c8610111366004610ca2565b61041c565b5f546040516001600160a01b0390911681526020016100d2565b61014361013e366004610ca2565b610572565b604080519283526020830191909152016100d2565b6100c8670de0b6b3a764000081565b6100c8610175366004610c53565b61067d565b6100c8610188366004610c73565b6106e5565b6100c861019b366004610ca2565b610918565b6100f66101ae366004610ccb565b610a43565b5f5f83116102085760405162461bcd60e51b815260206004820152601d60248201527f416d6f756e74206d7573742062652067726561746572207468616e203000000060448201526064015b60405180910390fd5b5f82116102575760405162461bcd60e51b815260206004820152601f60248201527f4665652072617465206d7573742062652067726561746572207468616e20300060448201526064016101ff565b670de0b6b3a764000061026a8385610d05565b6102749190610d30565b90505b92915050565b5f5f8511801561028c57505f84115b6102e75760405162461bcd60e51b815260206004820152602660248201527f496e697469616c20616d6f756e7473206d75737420626520677265617465722060448201526507468616e20360d41b60648201526084016101ff565b5f831180156102f557505f82115b61034f5760405162461bcd60e51b815260206004820152602560248201527f43757272656e7420707269636573206d75737420626520677265617465722074604482015264068616e20360dc1b60648201526084016101ff565b5f670de0b6b3a76400006103638487610d05565b61036d8689610d05565b6103779190610d4f565b6103819190610d30565b90505f6103966103918587610d05565b610a80565b90505f670de0b6b3a7640000826103ad898b610d4f565b6103b79190610d05565b6103c19190610d30565b9050808311156103fa5782670de0b6b3a76400006103df8383610d62565b6103e99190610d05565b6103f39190610d30565b93506103fe565b5f93505b505050949350505050565b610411610bd8565b61041a5f610c04565b565b5f5f84116104785760405162461bcd60e51b815260206004820152602360248201527f496e70757420616d6f756e74206d75737420626520677265617465722074686160448201526206e20360ec1b60648201526084016101ff565b5f83116104d35760405162461bcd60e51b8152602060048201526024808201527f4f757470757420616d6f756e74206d75737420626520677265617465722074686044820152630616e20360e41b60648201526084016101ff565b5f82116105315760405162461bcd60e51b815260206004820152602660248201527f4578706563746564206f7574707574206d75737420626520677265617465722060448201526507468616e20360d41b60648201526084016101ff565b828211156105685781670de0b6b3a764000061054d8583610d62565b6105579190610d05565b6105619190610d30565b905061056b565b505f5b9392505050565b5f5f5f8511801561058257505f84115b6105ce5760405162461bcd60e51b815260206004820152601d60248201527f507269636573206d7573742062652067726561746572207468616e203000000060448201526064016101ff565b5f83116106285760405162461bcd60e51b815260206004820152602260248201527f546f74616c2076616c7565206d7573742062652067726561746572207468616e604482015261020360f41b60648201526084016101ff565b5f610634600285610d30565b905085610649670de0b6b3a764000083610d05565b6106539190610d30565b925084610668670de0b6b3a764000083610d05565b6106729190610d30565b915050935093915050565b5f5f8311801561068c57505f82115b6106d85760405162461bcd60e51b815260206004820152601e60248201527f416d6f756e7473206d7573742062652067726561746572207468616e2030000060448201526064016101ff565b6102746103918385610d05565b5f5f85116107355760405162461bcd60e51b815260206004820181905260248201527f5072696e636970616c206d7573742062652067726561746572207468616e203060448201526064016101ff565b5f84116107845760405162461bcd60e51b815260206004820152601b60248201527f52617465206d7573742062652067726561746572207468616e2030000000000060448201526064016101ff565b5f83116107d35760405162461bcd60e51b815260206004820152601b60248201527f54696d65206d7573742062652067726561746572207468616e2030000000000060448201526064016101ff565b5f82116108345760405162461bcd60e51b815260206004820152602960248201527f436f6d706f756e64206672657175656e6379206d75737420626520677265617460448201526806572207468616e20360bc1b60648201526084016101ff565b5f6301e1338061084c670de0b6b3a764000086610d05565b6108569190610d30565b905082855f6108658383610d30565b61087790670de0b6b3a7640000610d4f565b90505f670de0b6b3a764000061088d8686610d05565b6108979190610d30565b905060648111156108a6575060645b670de0b6b3a76400005f5b828110156108e057670de0b6b3a76400006108cc8584610d05565b6108d69190610d30565b91506001016108b1565b508a670de0b6b3a76400006108f58383610d05565b6108ff9190610d30565b6109099190610d62565b9b9a5050505050505050505050565b5f5f84116109685760405162461bcd60e51b815260206004820181905260248201527f5072696e636970616c206d7573742062652067726561746572207468616e203060448201526064016101ff565b5f83116109b75760405162461bcd60e51b815260206004820152601b60248201527f52617465206d7573742062652067726561746572207468616e2030000000000060448201526064016101ff565b5f8211610a065760405162461bcd60e51b815260206004820152601b60248201527f54696d65206d7573742062652067726561746572207468616e2030000000000060448201526064016101ff565b610a1c670de0b6b3a76400006301e13380610d05565b82610a278587610d05565b610a319190610d05565b610a3b9190610d30565b949350505050565b610a4b610bd8565b6001600160a01b038116610a7457604051631e4fbdf760e01b81525f60048201526024016101ff565b610a7d81610c04565b50565b5f60018211610a8d575090565b816001600160801b8210610aa65760809190911c9060401b5b680100000000000000008210610ac15760409190911c9060201b5b6401000000008210610ad85760209190911c9060101b5b620100008210610aed5760109190911c9060081b5b6101008210610b015760089190911c9060041b5b60108210610b145760049190911c9060021b5b60048210610b205760011b5b600302600190811c90818581610b3857610b38610d1c565b048201901c90506001818581610b5057610b50610d1c565b048201901c90506001818581610b6857610b68610d1c565b048201901c90506001818581610b8057610b80610d1c565b048201901c90506001818581610b9857610b98610d1c565b048201901c90506001818581610bb057610bb0610d1c565b048201901c9050610bcf818581610bc957610bc9610d1c565b04821190565b90039392505050565b5f546001600160a01b0316331461041a5760405163118cdaa760e01b81523360048201526024016101ff565b5f80546001600160a01b038381166001600160a01b0319831681178455604051919092169283917f8be0079c531659141344cd1fd0a4f28419497f9722a3daafe3b4186f6b6457e09190a35050565b5f5f60408385031215610c64575f5ffd5b50508035926020909101359150565b5f5f5f5f60808587031215610c86575f5ffd5b5050823594602084013594506040840135936060013592509050565b5f5f5f60608486031215610cb4575f5ffd5b505081359360208301359350604090920135919050565b5f60208284031215610cdb575f5ffd5b81356001600160a01b038116811461056b575f5ffd5b634e487b7160e01b5f52601160045260245ffd5b808202811582820484141761027757610277610cf1565b634e487b7160e01b5f52601260045260245ffd5b5f82610d4a57634e487b7160e01b5f52601260045260245ffd5b500490565b8082018082111561027757610277610cf1565b8181038181111561027757610277610cf156fea26469706673582212206ae0f8fcd3c291d493591cdf0d2c71342494d1e274dd113faa12f60c765c49d264736f6c634300081c0033",
  "linkReferences": {},
  "deployedLinkReferences": {},
  "immutableReferences": {},
  "inputSourceName": "project/contracts/DeFiUtils.sol",
  "buildInfoId": "solc-0_8_28-f79fdc16fce82e0ff8affa2b6afe63c770ca4f03"
}