{
  "_format": "hh3-artifact-1",
  "contractName": "ERC1155Factory",
  "sourceName": "contracts/ERC1155Factory.sol",
  "abi": [
    {
      "inputs": [],
      "stateMutability": "nonpayable",
      "type": "constructor"
    },
    {
      "inputs": [
        {
          "internalType": "address",
          "name": "owner",
          "type": "address"
        }
      ],
      "name": "OwnableInvalidOwner",
      "type": "error"
    },
    {
      "inputs": [
        {
          "internalType": "address",
          "name": "account",
          "type": "address"
        }
      ],
      "name": "OwnableUnauthorizedAccount",
      "type": "error"
    },
    {
      "anonymous": false,
      "inputs": [
        {
          "indexed": true,
          "internalType": "address",
          "name": "contractAddress",
          "type": "address"
        },
        {
          "indexed": false,
          "internalType": "string",
          "name": "name",
          "type": "string"
        },
        {
          "indexed": false,
          "internalType": "string",
          "name": "uri",
          "type": "string"
        },
        {
          "indexed": true,
          "internalType": "address",
          "name": "creator",
          "type": "address"
        },
        {
          "indexed": false,
          "internalType": "bool",
          "name": "mintable",
          "type": "bool"
        },
        {
          "indexed": false,
          "internalType": "bool",
          "name": "burnable",
          "type": "bool"
        },
        {
          "indexed": false,
          "internalType": "bool",
          "name": "pausable",
          "type": "bool"
        },
        {
          "indexed": false,
          "internalType": "bool",
          "name": "supplyTracked",
          "type": "bool"
        }
      ],
      "name": "MultiTokenCreated",
      "type": "event"
    },
    {
      "anonymous": false,
      "inputs": [
        {
          "indexed": true,
          "internalType": "address",
          "name": "previousOwner",
          "type": "address"
        },
        {
          "indexed": true,
          "internalType": "address",
          "name": "newOwner",
          "type": "address"
        }
      ],
      "name": "OwnershipTransferred",
      "type": "event"
    },
    {
      "inputs": [
        {
          "internalType": "address",
          "name": "",
          "type": "address"
        }
      ],
      "name": "contractCreators",
      "outputs": [
        {
          "internalType": "address",
          "name": "",
          "type": "address"
        }
      ],
      "stateMutability": "view",
      "type": "function"
    },
    {
      "inputs": [
        {
          "internalType": "string",
          "name": "name",
          "type": "string"
        },
        {
          "internalType": "string",
          "name": "uri",
          "type": "string"
        },
        {
          "internalType": "bool",
          "name": "mintable",
          "type": "bool"
        },
        {
          "internalType": "bool",
          "name": "burnable",
          "type": "bool"
        },
        {
          "internalType": "bool",
          "name": "pausable",
          "type": "bool"
        },
        {
          "internalType": "bool",
          "name": "supplyTracked",
          "type": "bool"
        }
      ],
      "name": "createMultiToken",
      "outputs": [
        {
          "internalType": "address",
          "name": "",
          "type": "address"
        }
      ],
      "stateMutability": "nonpayable",
      "type": "function"
    },
    {
      "inputs": [
        {
          "internalType": "uint256",
          "name": "",
          "type": "uint256"
        }
      ],
      "name": "createdContracts",
      "outputs": [
        {
          "internalType": "address",
          "name": "",
          "type": "address"
        }
      ],
      "stateMutability": "view",
      "type": "function"
    },
    {
      "inputs": [],
      "name": "getAllContracts",
      "outputs": [
        {
          "internalType": "address[]",
          "name": "",
          "type": "address[]"
        }
      ],
      "stateMutability": "view",
      "type": "function"
    },
    {
      "inputs": [],
      "name": "getContractCount",
      "outputs": [
        {
          "internalType": "uint256",
          "name": "",
          "type": "uint256"
        }
      ],
      "stateMutability": "view",
      "type": "function"
    },
    {
      "inputs": [
        {
          "internalType": "address",
          "name": "creator",
          "type": "address"
        }
      ],
      "name": "getContractsByCreator",
      "outputs": [
        {
          "internalType": "address[]",
          "name": "",
          "type": "address[]"
        }
      ],
      "stateMutability": "view",
      "type": "function"
    },
    {
      "inputs": [
        {
          "internalType": "address",
          "name": "",
          "type": "address"
        }
      ],
      "name": "multiTokens",
      "outputs": [
        {
          "internalType": "string",
          "name": "name",
          "type": "string"
        },
        {
          "internalType": "string",
          "name": "uri",
          "type": "string"
        },
        {
          "internalType": "address",
          "name": "creator",
          "type": "address"
        },
        {
          "internalType": "bool",
          "name": "mintable",
          "type": "bool"
        },
        {
          "internalType": "bool",
          "name": "burnable",
          "type": "bool"
        },
        {
          "internalType": "bool",
          "name": "pausable",
          "type": "bool"
        },
        {
          "internalType": "bool",
          "name": "supplyTracked",
          "type": "bool"
        },
        {
          "internalType": "uint256",
          "name": "createdAt",
          "type": "uint256"
        }
      ],
      "stateMutability": "view",
      "type": "function"
    },
    {
      "inputs": [],
      "name": "owner",
      "outputs": [
        {
          "internalType": "address",
          "name": "",
          "type": "address"
        }
      ],
      "stateMutability": "view",
      "type": "function"
    },
    {
      "inputs": [],
      "name": "renounceOwnership",
      "outputs": [],
      "stateMutability": "nonpayable",
      "type": "function"
    },
    {
      "inputs": [
        {
          "internalType": "address",
          "name": "newOwner",
          "type": "address"
        }
      ],
      "name": "transferOwnership",
      "outputs": [],
      "stateMutability": "nonpayable",
      "type": "function"
    }
  ],
  "bytecode": "0x6080604052348015600e575f5ffd5b503380603357604051631e4fbdf760e01b81525f600482015260240160405180910390fd5b603a81603f565b50608e565b5f80546001600160a01b038381166001600160a01b0319831681178455604051919092169283917f8be0079c531659141344cd1fd0a4f28419497f9722a3daafe3b4186f6b6457e09190a35050565b612ea38061009b5f395ff3fe608060405234801561000f575f5ffd5b506004361061009b575f3560e01c8063857147681161006357806385714768146101285780638da5cb5b146101505780639399869d14610160578063b57adcfd14610171578063f2fde38b14610184575f5ffd5b8063088113971461009f57806318d3ce96146100cf57806328582ee4146100e4578063715018a6146100f757806384939af814610101575b5f5ffd5b6100b26100ad366004610879565b610197565b6040516001600160a01b0390911681526020015b60405180910390f35b6100d76101bf565b6040516100c69190610890565b6100b26100f236600461098e565b61021f565b6100ff6104ac565b005b61011461010f366004610a32565b6104bf565b6040516100c6989796959493929190610a8d565b6100b2610136366004610a32565b60026020525f90815260409020546001600160a01b031681565b5f546001600160a01b03166100b2565b6001546040519081526020016100c6565b6100d761017f366004610a32565b610625565b6100ff610192366004610a32565b6107b4565b600181815481106101a6575f80fd5b5f918252602090912001546001600160a01b0316905081565b6060600180548060200260200160405190810160405280929190818152602001828054801561021557602002820191905f5260205f20905b81546001600160a01b031681526001909101906020018083116101f7575b5050505050905090565b5f5f87511161026c5760405162461bcd60e51b81526020600482015260146024820152734e616d652063616e6e6f7420626520656d70747960601b60448201526064015b60405180910390fd5b5f8651116102b25760405162461bcd60e51b81526020600482015260136024820152725552492063616e6e6f7420626520656d70747960681b6044820152606401610263565b5f878787878787336040516102c69061086c565b6102d69796959493929190610af1565b604051809103905ff0801580156102ef573d5f5f3e3d5ffd5b50600180548082019091557fb10e2d527612073b26eecdfd717e6a320cf44b4afac2b0732d9fcbe2b7fa0cf60180546001600160a01b03199081166001600160a01b0384169081179092555f8281526002602090815260408083208054339516851790558051610100810182528e81528083018e9052808201949094528b151560608501528a1515608085015289151560a085015288151560c08501524260e085015293825260039052919091208151929350839281906103b09082610bcf565b50602082015160018201906103c59082610bcf565b506040828101516002830180546060860151608087015160a088015160c08901511515600160b81b0260ff60b81b19911515600160b01b0260ff60b01b19931515600160a81b029390931661ffff60a81b19941515600160a01b026001600160a81b03199096166001600160a01b0398891617959095179390931693909317179190911617905560e0909301516003909201919091555133918316907fb3b6b313cfd754d6e42615d513c1773e725ff0f88859e2bb750c5644e312241690610498908d908d908d908d908d908d90610c8a565b60405180910390a398975050505050505050565b6104b46107f1565b6104bd5f61081d565b565b60036020525f90815260409020805481906104d990610b4b565b80601f016020809104026020016040519081016040528092919081815260200182805461050590610b4b565b80156105505780601f1061052757610100808354040283529160200191610550565b820191905f5260205f20905b81548152906001019060200180831161053357829003601f168201915b50505050509080600101805461056590610b4b565b80601f016020809104026020016040519081016040528092919081815260200182805461059190610b4b565b80156105dc5780601f106105b3576101008083540402835291602001916105dc565b820191905f5260205f20905b8154815290600101906020018083116105bf57829003601f168201915b505050600284015460039094015492936001600160a01b0381169360ff600160a01b830481169450600160a81b830481169350600160b01b8304811692600160b81b9004169088565b60605f805b60015481101561069957836001600160a01b031660025f6001848154811061065457610654610cd6565b5f9182526020808320909101546001600160a01b0390811684529083019390935260409091019020541603610691578161068d81610cea565b9250505b60010161062a565b505f8167ffffffffffffffff8111156106b4576106b46108db565b6040519080825280602002602001820160405280156106dd578160200160208202803683370190505b5090505f805b6001548110156107aa57856001600160a01b031660025f6001848154811061070d5761070d610cd6565b5f9182526020808320909101546001600160a01b03908116845290830193909352604090910190205416036107a2576001818154811061074f5761074f610cd6565b905f5260205f20015f9054906101000a90046001600160a01b031683838151811061077c5761077c610cd6565b6001600160a01b03909216602092830291909101909101528161079e81610cea565b9250505b6001016106e3565b5090949350505050565b6107bc6107f1565b6001600160a01b0381166107e557604051631e4fbdf760e01b81525f6004820152602401610263565b6107ee8161081d565b50565b5f546001600160a01b031633146104bd5760405163118cdaa760e01b8152336004820152602401610263565b5f80546001600160a01b038381166001600160a01b0319831681178455604051919092169283917f8be0079c531659141344cd1fd0a4f28419497f9722a3daafe3b4186f6b6457e09190a35050565b61215f80610d0f83390190565b5f60208284031215610889575f5ffd5b5035919050565b602080825282518282018190525f918401906040840190835b818110156108d05783516001600160a01b03168352602093840193909201916001016108a9565b509095945050505050565b634e487b7160e01b5f52604160045260245ffd5b5f82601f8301126108fe575f5ffd5b813567ffffffffffffffff811115610918576109186108db565b604051601f8201601f19908116603f0116810167ffffffffffffffff81118282101715610947576109476108db565b60405281815283820160200185101561095e575f5ffd5b816020850160208301375f918101602001919091529392505050565b80358015158114610989575f5ffd5b919050565b5f5f5f5f5f5f60c087890312156109a3575f5ffd5b863567ffffffffffffffff8111156109b9575f5ffd5b6109c589828a016108ef565b965050602087013567ffffffffffffffff8111156109e1575f5ffd5b6109ed89828a016108ef565b9550506109fc6040880161097a565b9350610a0a6060880161097a565b9250610a186080880161097a565b9150610a2660a0880161097a565b90509295509295509295565b5f60208284031215610a42575f5ffd5b81356001600160a01b0381168114610a58575f5ffd5b9392505050565b5f81518084528060208401602086015e5f602082860101526020601f19601f83011685010191505092915050565b61010081525f610aa161010083018b610a5f565b8281036020840152610ab3818b610a5f565b6001600160a01b0399909916604084015250509415156060860152921515608085015290151560a0840152151560c083015260e09091015292915050565b60e081525f610b0360e083018a610a5f565b8281036020840152610b15818a610a5f565b9715156040840152505093151560608501529115156080840152151560a08301526001600160a01b031660c09091015292915050565b600181811c90821680610b5f57607f821691505b602082108103610b7d57634e487b7160e01b5f52602260045260245ffd5b50919050565b601f821115610bca57805f5260205f20601f840160051c81016020851015610ba85750805b601f840160051c820191505b81811015610bc7575f8155600101610bb4565b50505b505050565b815167ffffffffffffffff811115610be957610be96108db565b610bfd81610bf78454610b4b565b84610b83565b6020601f821160018114610c2f575f8315610c185750848201515b5f19600385901b1c1916600184901b178455610bc7565b5f84815260208120601f198516915b82811015610c5e5787850151825560209485019460019092019101610c3e565b5084821015610c7b57868401515f19600387901b60f8161c191681555b50505050600190811b01905550565b60c081525f610c9c60c0830189610a5f565b8281036020840152610cae8189610a5f565b9615156040840152505092151560608401529015156080830152151560a09091015292915050565b634e487b7160e01b5f52603260045260245ffd5b5f60018201610d0757634e487b7160e01b5f52601160045260245ffd5b506001019056fe608060405234801561000f575f5ffd5b5060405161215f38038061215f83398101604081905261002e916101ec565b8086610039816100da565b506001600160a01b03811661006757604051631e4fbdf760e01b81525f600482015260240160405180910390fd5b610070816100ea565b50600461007d8882610335565b50506005805461ffff191694151561ff00191694909417610100931515939093029290921763ffff00001916620100009115159190910263ff0000001916176301000000911515919091021760ff60201b19169055506103ef9050565b60026100e68282610335565b5050565b600380546001600160a01b038381166001600160a01b0319831681179093556040519116919082907f8be0079c531659141344cd1fd0a4f28419497f9722a3daafe3b4186f6b6457e0905f90a35050565b634e487b7160e01b5f52604160045260245ffd5b5f82601f83011261015e575f5ffd5b81516001600160401b038111156101775761017761013b565b604051601f8201601f19908116603f011681016001600160401b03811182821017156101a5576101a561013b565b6040528181528382016020018510156101bc575f5ffd5b8160208501602083015e5f918101602001919091529392505050565b805180151581146101e7575f5ffd5b919050565b5f5f5f5f5f5f5f60e0888a031215610202575f5ffd5b87516001600160401b03811115610217575f5ffd5b6102238a828b0161014f565b60208a015190985090506001600160401b03811115610240575f5ffd5b61024c8a828b0161014f565b96505061025b604089016101d8565b9450610269606089016101d8565b9350610277608089016101d8565b925061028560a089016101d8565b60c08901519092506001600160a01b03811681146102a1575f5ffd5b8091505092959891949750929550565b600181811c908216806102c557607f821691505b6020821081036102e357634e487b7160e01b5f52602260045260245ffd5b50919050565b601f82111561033057805f5260205f20601f840160051c8101602085101561030e5750805b601f840160051c820191505b8181101561032d575f815560010161031a565b50505b505050565b81516001600160401b0381111561034e5761034e61013b565b6103628161035c84546102b1565b846102e9565b6020601f821160018114610394575f831561037d5750848201515b5f19600385901b1c1916600184901b17845561032d565b5f84815260208120601f198516915b828110156103c357878501518255602094850194600190920191016103a3565b50848210156103e057868401515f19600387901b60f8161c191681555b50505050600190811b01905550565b611d63806103fc5f395ff3fe608060405234801561000f575f5ffd5b506004361061016c575f3560e01c8063731133e9116100d9578063a22cb46511610093578063e985e9c51161006e578063e985e9c51461030c578063f242432a1461031f578063f2fde38b14610332578063f5298aca14610345575f5ffd5b8063a22cb465146102d4578063b187bd26146102e7578063e89da310146102fa575f5ffd5b8063731133e91461026a5780638456cb591461027d578063883356d9146102855780638da5cb5b1461029557806392ab723e146102b0578063a09a1601146102c3575f5ffd5b80632eb2c2d61161012a5780632eb2c2d6146102095780633f4ba83a1461021c57806346b45af7146102245780634e1273f41461022f5780636b20c4541461024f578063715018a614610262575f5ffd5b8062fdd58e1461017057806301ffc9a71461019657806302fe5305146101b957806306fdde03146101ce5780630e89341c146101e35780631f7fdffa146101f6575b5f5ffd5b61018361017e366004611467565b610358565b6040519081526020015b60405180910390f35b6101a96101a43660046114a4565b61037f565b604051901515815260200161018d565b6101cc6101c7366004611562565b6103ce565b005b6101d66103e2565b60405161018d91906115dc565b6101d66101f13660046115ee565b610472565b6101cc6102043660046116af565b610504565b6101cc61021736600461174b565b610683565b6101cc6106ea565b60055460ff166101a9565b61024261023d3660046117f7565b610702565b60405161018d91906118f2565b6101cc61025d366004611904565b6107cc565b6101cc61094f565b6101cc610278366004611976565b610962565b6101cc610a43565b600554610100900460ff166101a9565b6003546040516001600160a01b03909116815260200161018d565b6101836102be3660046115ee565b610ab0565b60055462010000900460ff166101a9565b6101cc6102e23660046119ba565b610add565b600554640100000000900460ff166101a9565b6005546301000000900460ff166101a9565b6101a961031a3660046119f3565b610aec565b6101cc61032d366004611a24565b610b19565b6101cc610340366004611a77565b610b78565b6101cc610353366004611a90565b610bb2565b5f818152602081815260408083206001600160a01b03861684529091529020545b92915050565b5f6001600160e01b03198216636cdb3d1360e11b14806103af57506001600160e01b031982166303a24d0760e21b145b8061037957506301ffc9a760e01b6001600160e01b0319831614610379565b6103d6610c9d565b6103df81610cca565b50565b6060600480546103f190611ac0565b80601f016020809104026020016040519081016040528092919081815260200182805461041d90611ac0565b80156104685780601f1061043f57610100808354040283529160200191610468565b820191905f5260205f20905b81548152906001019060200180831161044b57829003601f168201915b5050505050905090565b60606002805461048190611ac0565b80601f01602080910402602001604051908101604052809291908181526020018280546104ad90611ac0565b80156104f85780601f106104cf576101008083540402835291602001916104f8565b820191905f5260205f20905b8154815290600101906020018083116104db57829003601f168201915b50505050509050919050565b61050c610c9d565b60055460ff166105595760405162461bcd60e51b8152602060048201526013602482015272135a5b9d1a5b99c81a5cc8191a5cd8589b1959606a1b60448201526064015b60405180910390fd5b600554640100000000900460ff16156105a95760405162461bcd60e51b815260206004820152601260248201527110dbdb9d1c9858dd081a5cc81c185d5cd95960721b6044820152606401610550565b81518351146105f35760405162461bcd60e51b8152602060048201526016602482015275082e4e4c2f2e640d8cadccee8d040dad2e6dac2e8c6d60531b6044820152606401610550565b6005546301000000900460ff1615610671575f5b835181101561066f5782818151811061062257610622611af8565b602002602001015160065f86848151811061063f5761063f611af8565b602002602001015181526020019081526020015f205f8282546106629190611b20565b9091555050600101610607565b505b61067d84848484610cd6565b50505050565b336001600160a01b03861681148015906106a457506106a28682610aec565b155b156106d55760405163711bec9160e11b81526001600160a01b03808316600483015287166024820152604401610550565b6106e28686868686610d0c565b505050505050565b6106f2610c9d565b6005805464ff0000000019169055565b606081518351146107335781518351604051635b05999160e01b815260048101929092526024820152604401610550565b5f83516001600160401b0381111561074d5761074d6114c6565b604051908082528060200260200182016040528015610776578160200160208202803683370190505b5090505f5b84518110156107c45760208082028601015161079f90602080840287010151610358565b8282815181106107b1576107b1611af8565b602090810291909101015260010161077b565b509392505050565b600554610100900460ff166108195760405162461bcd60e51b8152602060048201526013602482015272109d5c9b9a5b99c81a5cc8191a5cd8589b1959606a1b6044820152606401610550565b6001600160a01b03831633148061083a57506003546001600160a01b031633145b6108775760405162461bcd60e51b815260206004820152600e60248201526d139bdd08185d5d1a1bdc9a5e995960921b6044820152606401610550565b80518251146108c15760405162461bcd60e51b8152602060048201526016602482015275082e4e4c2f2e640d8cadccee8d040dad2e6dac2e8c6d60531b6044820152606401610550565b6005546301000000900460ff161561093f575f5b825181101561093d578181815181106108f0576108f0611af8565b602002602001015160065f85848151811061090d5761090d611af8565b602002602001015181526020019081526020015f205f8282546109309190611b33565b90915550506001016108d5565b505b61094a838383610d71565b505050565b610957610c9d565b6109605f610db4565b565b61096a610c9d565b60055460ff166109b25760405162461bcd60e51b8152602060048201526013602482015272135a5b9d1a5b99c81a5cc8191a5cd8589b1959606a1b6044820152606401610550565b600554640100000000900460ff1615610a025760405162461bcd60e51b815260206004820152601260248201527110dbdb9d1c9858dd081a5cc81c185d5cd95960721b6044820152606401610550565b6005546301000000900460ff1615610a37575f8381526006602052604081208054849290610a31908490611b20565b90915550505b61067d84848484610e05565b610a4b610c9d565b60055462010000900460ff16610a995760405162461bcd60e51b815260206004820152601360248201527214185d5cda5b99c81a5cc8191a5cd8589b1959606a1b6044820152606401610550565b6005805464ff000000001916640100000000179055565b6005545f906301000000900460ff1615610ad657505f9081526006602052604090205490565b505f919050565b610ae8338383610e60565b5050565b6001600160a01b039182165f90815260016020908152604080832093909416825291909152205460ff1690565b336001600160a01b0386168114801590610b3a5750610b388682610aec565b155b15610b6b5760405163711bec9160e11b81526001600160a01b03808316600483015287166024820152604401610550565b6106e28686868686610ef4565b610b80610c9d565b6001600160a01b038116610ba957604051631e4fbdf760e01b81525f6004820152602401610550565b6103df81610db4565b600554610100900460ff16610bff5760405162461bcd60e51b8152602060048201526013602482015272109d5c9b9a5b99c81a5cc8191a5cd8589b1959606a1b6044820152606401610550565b6001600160a01b038316331480610c2057506003546001600160a01b031633145b610c5d5760405162461bcd60e51b815260206004820152600e60248201526d139bdd08185d5d1a1bdc9a5e995960921b6044820152606401610550565b6005546301000000900460ff1615610c92575f8281526006602052604081208054839290610c8c908490611b33565b90915550505b61094a838383610f80565b6003546001600160a01b031633146109605760405163118cdaa760e01b8152336004820152602401610550565b6002610ae88282611b8a565b6001600160a01b038416610cff57604051632bfa23e760e11b81525f6004820152602401610550565b61067d5f85858585610fe2565b6001600160a01b038416610d3557604051632bfa23e760e11b81525f6004820152602401610550565b6001600160a01b038516610d5d57604051626a0d4560e21b81525f6004820152602401610550565b610d6a8585858585610fe2565b5050505050565b6001600160a01b038316610d9957604051626a0d4560e21b81525f6004820152602401610550565b61094a835f848460405180602001604052805f815250610fe2565b600380546001600160a01b038381166001600160a01b0319831681179093556040519116919082907f8be0079c531659141344cd1fd0a4f28419497f9722a3daafe3b4186f6b6457e0905f90a35050565b6001600160a01b038416610e2e57604051632bfa23e760e11b81525f6004820152602401610550565b604080516001808252602082018690528183019081526060820185905260808201909252906106e25f87848487610fe2565b6001600160a01b038216610e885760405162ced3e160e81b81525f6004820152602401610550565b6001600160a01b038381165f81815260016020908152604080832094871680845294825291829020805460ff191686151590811790915591519182527f17307eab39ab6107e8899845ad3d59bd9653f200f220920489ca2b5937696c31910160405180910390a3505050565b6001600160a01b038416610f1d57604051632bfa23e760e11b81525f6004820152602401610550565b6001600160a01b038516610f4557604051626a0d4560e21b81525f6004820152602401610550565b60408051600180825260208201869052818301908152606082018590526080820190925290610f778787848487610fe2565b50505050505050565b6001600160a01b038316610fa857604051626a0d4560e21b81525f6004820152602401610550565b604080516001808252602082018590528183019081526060820184905260a082019092525f60808201818152919291610d6a918791859085905b610fee85858585611035565b6001600160a01b03841615610d6a57825133906001036110275760208481015190840151611020838989858589611244565b50506106e2565b6106e2818787878787611365565b80518251146110645781518151604051635b05999160e01b815260048101929092526024820152604401610550565b335f5b8351811015611166576020818102858101820151908501909101516001600160a01b03881615611118575f828152602081815260408083206001600160a01b038c168452909152902054818110156110f2576040516303dee4c560e01b81526001600160a01b038a166004820152602481018290526044810183905260648101849052608401610550565b5f838152602081815260408083206001600160a01b038d16845290915290209082900390555b6001600160a01b0387161561115c575f828152602081815260408083206001600160a01b038b16845290915281208054839290611156908490611b20565b90915550505b5050600101611067565b5082516001036111e65760208301515f906020840151909150856001600160a01b0316876001600160a01b0316846001600160a01b03167fc3d58168c5ae7397731d063d5bbf3d657854427343f4c083240f7aacaa2d0f6285856040516111d7929190918252602082015260400190565b60405180910390a45050610d6a565b836001600160a01b0316856001600160a01b0316826001600160a01b03167f4a39dc06d4c0dbc64b70af90fd698a233a518aa5d07e595d983b8c0526c8f7fb8686604051611235929190611c44565b60405180910390a45050505050565b6001600160a01b0384163b156106e25760405163f23a6e6160e01b81526001600160a01b0385169063f23a6e61906112889089908990889088908890600401611c71565b6020604051808303815f875af19250505080156112c2575060408051601f3d908101601f191682019092526112bf91810190611cb5565b60015b611329573d8080156112ef576040519150601f19603f3d011682016040523d82523d5f602084013e6112f4565b606091505b5080515f0361132157604051632bfa23e760e11b81526001600160a01b0386166004820152602401610550565b805160208201fd5b6001600160e01b0319811663f23a6e6160e01b14610f7757604051632bfa23e760e11b81526001600160a01b0386166004820152602401610550565b6001600160a01b0384163b156106e25760405163bc197c8160e01b81526001600160a01b0385169063bc197c81906113a99089908990889088908890600401611cd0565b6020604051808303815f875af19250505080156113e3575060408051601f3d908101601f191682019092526113e091810190611cb5565b60015b611410573d8080156112ef576040519150601f19603f3d011682016040523d82523d5f602084013e6112f4565b6001600160e01b0319811663bc197c8160e01b14610f7757604051632bfa23e760e11b81526001600160a01b0386166004820152602401610550565b80356001600160a01b0381168114611462575f5ffd5b919050565b5f5f60408385031215611478575f5ffd5b6114818361144c565b946020939093013593505050565b6001600160e01b0319811681146103df575f5ffd5b5f602082840312156114b4575f5ffd5b81356114bf8161148f565b9392505050565b634e487b7160e01b5f52604160045260245ffd5b604051601f8201601f191681016001600160401b0381118282101715611502576115026114c6565b604052919050565b5f5f6001600160401b03841115611523576115236114c6565b50601f8301601f1916602001611538816114da565b91505082815283838301111561154c575f5ffd5b828260208301375f602084830101529392505050565b5f60208284031215611572575f5ffd5b81356001600160401b03811115611587575f5ffd5b8201601f81018413611597575f5ffd5b6115a68482356020840161150a565b949350505050565b5f81518084528060208401602086015e5f602082860101526020601f19601f83011685010191505092915050565b602081525f6114bf60208301846115ae565b5f602082840312156115fe575f5ffd5b5035919050565b5f6001600160401b0382111561161d5761161d6114c6565b5060051b60200190565b5f82601f830112611636575f5ffd5b813561164961164482611605565b6114da565b8082825260208201915060208360051b86010192508583111561166a575f5ffd5b602085015b8381101561168757803583526020928301920161166f565b5095945050505050565b5f82601f8301126116a0575f5ffd5b6114bf8383356020850161150a565b5f5f5f5f608085870312156116c2575f5ffd5b6116cb8561144c565b935060208501356001600160401b038111156116e5575f5ffd5b6116f187828801611627565b93505060408501356001600160401b0381111561170c575f5ffd5b61171887828801611627565b92505060608501356001600160401b03811115611733575f5ffd5b61173f87828801611691565b91505092959194509250565b5f5f5f5f5f60a0868803121561175f575f5ffd5b6117688661144c565b94506117766020870161144c565b935060408601356001600160401b03811115611790575f5ffd5b61179c88828901611627565b93505060608601356001600160401b038111156117b7575f5ffd5b6117c388828901611627565b92505060808601356001600160401b038111156117de575f5ffd5b6117ea88828901611691565b9150509295509295909350565b5f5f60408385031215611808575f5ffd5b82356001600160401b0381111561181d575f5ffd5b8301601f8101851361182d575f5ffd5b803561183b61164482611605565b8082825260208201915060208360051b85010192508783111561185c575f5ffd5b6020840193505b82841015611885576118748461144c565b825260209384019390910190611863565b945050505060208301356001600160401b038111156118a2575f5ffd5b6118ae85828601611627565b9150509250929050565b5f8151808452602084019350602083015f5b828110156118e85781518652602095860195909101906001016118ca565b5093949350505050565b602081525f6114bf60208301846118b8565b5f5f5f60608486031215611916575f5ffd5b61191f8461144c565b925060208401356001600160401b03811115611939575f5ffd5b61194586828701611627565b92505060408401356001600160401b03811115611960575f5ffd5b61196c86828701611627565b9150509250925092565b5f5f5f5f60808587031215611989575f5ffd5b6119928561144c565b9350602085013592506040850135915060608501356001600160401b03811115611733575f5ffd5b5f5f604083850312156119cb575f5ffd5b6119d48361144c565b9150602083013580151581146119e8575f5ffd5b809150509250929050565b5f5f60408385031215611a04575f5ffd5b611a0d8361144c565b9150611a1b6020840161144c565b90509250929050565b5f5f5f5f5f60a08688031215611a38575f5ffd5b611a418661144c565b9450611a4f6020870161144c565b9350604086013592506060860135915060808601356001600160401b038111156117de575f5ffd5b5f60208284031215611a87575f5ffd5b6114bf8261144c565b5f5f5f60608486031215611aa2575f5ffd5b611aab8461144c565b95602085013595506040909401359392505050565b600181811c90821680611ad457607f821691505b602082108103611af257634e487b7160e01b5f52602260045260245ffd5b50919050565b634e487b7160e01b5f52603260045260245ffd5b634e487b7160e01b5f52601160045260245ffd5b8082018082111561037957610379611b0c565b8181038181111561037957610379611b0c565b601f82111561094a57805f5260205f20601f840160051c81016020851015611b6b5750805b601f840160051c820191505b81811015610d6a575f8155600101611b77565b81516001600160401b03811115611ba357611ba36114c6565b611bb781611bb18454611ac0565b84611b46565b6020601f821160018114611be9575f8315611bd25750848201515b5f19600385901b1c1916600184901b178455610d6a565b5f84815260208120601f198516915b82811015611c185787850151825560209485019460019092019101611bf8565b5084821015611c3557868401515f19600387901b60f8161c191681555b50505050600190811b01905550565b604081525f611c5660408301856118b8565b8281036020840152611c6881856118b8565b95945050505050565b6001600160a01b03868116825285166020820152604081018490526060810183905260a0608082018190525f90611caa908301846115ae565b979650505050505050565b5f60208284031215611cc5575f5ffd5b81516114bf8161148f565b6001600160a01b0386811682528516602082015260a0604082018190525f90611cfb908301866118b8565b8281036060840152611d0d81866118b8565b90508281036080840152611d2181856115ae565b9897505050505050505056fea2646970667358221220c00e0cc00f7d11c0bc26a62017ec35c73b79b62d10a7724f80dc48eb26bcccea64736f6c634300081c0033a264697066735822122079e5abd09484857354b60c9db959018a458088f655d3d658aabd0b09b9d78a2764736f6c634300081c0033",
  "linkReferences": {},
  "deployedLinkReferences": {},
  "immutableReferences": {},
  "inputSourceName": "project/contracts/ERC1155Factory.sol",
  "buildInfoId": "solc-0_8_28-c9d6b39388984b1ed599e415bcb0fd1473f86e12"
}