{
  "_format": "hh3-artifact-1",
  "contractName": "ERC20Factory",
  "sourceName": "contracts/ERC20Factory.sol",
  "abi": [
    {
      "inputs": [],
      "stateMutability": "nonpayable",
      "type": "constructor"
    },
    {
      "inputs": [
        {
          "internalType": "address",
          "name": "owner",
          "type": "address"
        }
      ],
      "name": "OwnableInvalidOwner",
      "type": "error"
    },
    {
      "inputs": [
        {
          "internalType": "address",
          "name": "account",
          "type": "address"
        }
      ],
      "name": "OwnableUnauthorizedAccount",
      "type": "error"
    },
    {
      "anonymous": false,
      "inputs": [
        {
          "indexed": true,
          "internalType": "address",
          "name": "previousOwner",
          "type": "address"
        },
        {
          "indexed": true,
          "internalType": "address",
          "name": "newOwner",
          "type": "address"
        }
      ],
      "name": "OwnershipTransferred",
      "type": "event"
    },
    {
      "anonymous": false,
      "inputs": [
        {
          "indexed": true,
          "internalType": "address",
          "name": "tokenAddress",
          "type": "address"
        },
        {
          "indexed": false,
          "internalType": "string",
          "name": "name",
          "type": "string"
        },
        {
          "indexed": false,
          "internalType": "string",
          "name": "symbol",
          "type": "string"
        },
        {
          "indexed": false,
          "internalType": "uint256",
          "name": "initialSupply",
          "type": "uint256"
        },
        {
          "indexed": false,
          "internalType": "uint8",
          "name": "decimals",
          "type": "uint8"
        },
        {
          "indexed": true,
          "internalType": "address",
          "name": "creator",
          "type": "address"
        }
      ],
      "name": "TokenCreated",
      "type": "event"
    },
    {
      "inputs": [
        {
          "internalType": "string",
          "name": "name",
          "type": "string"
        },
        {
          "internalType": "string",
          "name": "symbol",
          "type": "string"
        },
        {
          "internalType": "uint256",
          "name": "initialSupply",
          "type": "uint256"
        },
        {
          "internalType": "uint8",
          "name": "decimals",
          "type": "uint8"
        }
      ],
      "name": "createToken",
      "outputs": [
        {
          "internalType": "address",
          "name": "",
          "type": "address"
        }
      ],
      "stateMutability": "nonpayable",
      "type": "function"
    },
    {
      "inputs": [
        {
          "internalType": "uint256",
          "name": "",
          "type": "uint256"
        }
      ],
      "name": "createdTokens",
      "outputs": [
        {
          "internalType": "address",
          "name": "",
          "type": "address"
        }
      ],
      "stateMutability": "view",
      "type": "function"
    },
    {
      "inputs": [],
      "name": "getAllTokens",
      "outputs": [
        {
          "internalType": "address[]",
          "name": "",
          "type": "address[]"
        }
      ],
      "stateMutability": "view",
      "type": "function"
    },
    {
      "inputs": [],
      "name": "getTokenCount",
      "outputs": [
        {
          "internalType": "uint256",
          "name": "",
          "type": "uint256"
        }
      ],
      "stateMutability": "view",
      "type": "function"
    },
    {
      "inputs": [
        {
          "internalType": "address",
          "name": "creator",
          "type": "address"
        }
      ],
      "name": "getTokensByCreator",
      "outputs": [
        {
          "internalType": "address[]",
          "name": "",
          "type": "address[]"
        }
      ],
      "stateMutability": "view",
      "type": "function"
    },
    {
      "inputs": [],
      "name": "owner",
      "outputs": [
        {
          "internalType": "address",
          "name": "",
          "type": "address"
        }
      ],
      "stateMutability": "view",
      "type": "function"
    },
    {
      "inputs": [],
      "name": "renounceOwnership",
      "outputs": [],
      "stateMutability": "nonpayable",
      "type": "function"
    },
    {
      "inputs": [
        {
          "internalType": "address",
          "name": "",
          "type": "address"
        }
      ],
      "name": "tokenCreators",
      "outputs": [
        {
          "internalType": "address",
          "name": "",
          "type": "address"
        }
      ],
      "stateMutability": "view",
      "type": "function"
    },
    {
      "inputs": [
        {
          "internalType": "address",
          "name": "newOwner",
          "type": "address"
        }
      ],
      "name": "transferOwnership",
      "outputs": [],
      "stateMutability": "nonpayable",
      "type": "function"
    }
  ],
  "bytecode": "0x6080604052348015600e575f5ffd5b503380603357604051631e4fbdf760e01b81525f600482015260240160405180910390fd5b603a81603f565b50608e565b5f80546001600160a01b038381166001600160a01b0319831681178455604051919092169283917f8be0079c531659141344cd1fd0a4f28419497f9722a3daafe3b4186f6b6457e09190a35050565b6118518061009b5f395ff3fe608060405234801561000f575f5ffd5b5060043610610090575f3560e01c8063b64acddd11610063578063b64acddd146100f1578063ce7e8de814610104578063d5c712751461012c578063d782d6471461013f578063f2fde38b14610152575f5ffd5b80632a5c792a14610094578063715018a6146100b257806378a89567146100bc5780638da5cb5b146100cd575b5f5ffd5b61009c610165565b6040516100a99190610628565b60405180910390f35b6100ba6101c5565b005b6001546040519081526020016100a9565b5f546001600160a01b03165b6040516001600160a01b0390911681526020016100a9565b6100d96100ff366004610712565b6101d8565b6100d9610112366004610797565b60026020525f90815260409020546001600160a01b031681565b61009c61013a366004610797565b6103ac565b6100d961014d3660046107c4565b61053b565b6100ba610160366004610797565b610563565b606060018054806020026020016040519081016040528092919081815260200182805480156101bb57602002820191905f5260205f20905b81546001600160a01b0316815260019091019060200180831161019d575b5050505050905090565b6101cd6105a0565b6101d65f6105cc565b565b5f5f8551116102255760405162461bcd60e51b81526020600482015260146024820152734e616d652063616e6e6f7420626520656d70747960601b60448201526064015b60405180910390fd5b5f84511161026e5760405162461bcd60e51b815260206004820152601660248201527553796d626f6c2063616e6e6f7420626520656d70747960501b604482015260640161021c565b60128260ff1611156102c25760405162461bcd60e51b815260206004820152601960248201527f446563696d616c732063616e6e6f742065786365656420313800000000000000604482015260640161021c565b5f85858585336040516102d49061061b565b6102e2959493929190610809565b604051809103905ff0801580156102fb573d5f5f3e3d5ffd5b50600180548082019091557fb10e2d527612073b26eecdfd717e6a320cf44b4afac2b0732d9fcbe2b7fa0cf60180546001600160a01b03199081166001600160a01b0384169081179092555f82815260026020526040908190208054339316831790555192935083929091907fafab5d1d74bae8c6b34c8932c5a93db45757bef8a5b14b76f11aa2cdd5cb9be59061039a908b908b908b908b90610857565b60405180910390a39695505050505050565b60605f805b60015481101561042057836001600160a01b031660025f600184815481106103db576103db610896565b5f9182526020808320909101546001600160a01b03908116845290830193909352604090910190205416036104185781610414816108aa565b9250505b6001016103b1565b505f8167ffffffffffffffff81111561043b5761043b610673565b604051908082528060200260200182016040528015610464578160200160208202803683370190505b5090505f805b60015481101561053157856001600160a01b031660025f6001848154811061049457610494610896565b5f9182526020808320909101546001600160a01b039081168452908301939093526040909101902054160361052957600181815481106104d6576104d6610896565b905f5260205f20015f9054906101000a90046001600160a01b031683838151811061050357610503610896565b6001600160a01b039092166020928302919091019091015281610525816108aa565b9250505b60010161046a565b5090949350505050565b6001818154811061054a575f80fd5b5f918252602090912001546001600160a01b0316905081565b61056b6105a0565b6001600160a01b03811661059457604051631e4fbdf760e01b81525f600482015260240161021c565b61059d816105cc565b50565b5f546001600160a01b031633146101d65760405163118cdaa760e01b815233600482015260240161021c565b5f80546001600160a01b038381166001600160a01b0319831681178455604051919092169283917f8be0079c531659141344cd1fd0a4f28419497f9722a3daafe3b4186f6b6457e09190a35050565b610f4d806108cf83390190565b602080825282518282018190525f918401906040840190835b818110156106685783516001600160a01b0316835260209384019390920191600101610641565b509095945050505050565b634e487b7160e01b5f52604160045260245ffd5b5f82601f830112610696575f5ffd5b813567ffffffffffffffff8111156106b0576106b0610673565b604051601f8201601f19908116603f0116810167ffffffffffffffff811182821017156106df576106df610673565b6040528181528382016020018510156106f6575f5ffd5b816020850160208301375f918101602001919091529392505050565b5f5f5f5f60808587031215610725575f5ffd5b843567ffffffffffffffff81111561073b575f5ffd5b61074787828801610687565b945050602085013567ffffffffffffffff811115610763575f5ffd5b61076f87828801610687565b93505060408501359150606085013560ff8116811461078c575f5ffd5b939692955090935050565b5f602082840312156107a7575f5ffd5b81356001600160a01b03811681146107bd575f5ffd5b9392505050565b5f602082840312156107d4575f5ffd5b5035919050565b5f81518084528060208401602086015e5f602082860101526020601f19601f83011685010191505092915050565b60a081525f61081b60a08301886107db565b828103602084015261082d81886107db565b6040840196909652505060ff9290921660608301526001600160a01b031660809091015292915050565b608081525f61086960808301876107db565b828103602084015261087b81876107db565b91505083604083015260ff8316606083015295945050505050565b634e487b7160e01b5f52603260045260245ffd5b5f600182016108c757634e487b7160e01b5f52601160045260245ffd5b506001019056fe608060405234801561000f575f5ffd5b50604051610f4d380380610f4d83398101604081905261002e91610311565b808585600361003d838261043a565b50600461004a828261043a565b5050506001600160a01b03811661007b57604051631e4fbdf760e01b81525f60048201526024015b60405180910390fd5b610084816100c5565b506005805460ff60a01b1916600160a01b60ff8516021790556100bb816100ac84600a6105ed565b6100b69086610602565b610116565b505050505061062c565b600580546001600160a01b038381166001600160a01b0319831681179093556040519116919082907f8be0079c531659141344cd1fd0a4f28419497f9722a3daafe3b4186f6b6457e0905f90a35050565b6001600160a01b03821661013f5760405163ec442f0560e01b81525f6004820152602401610072565b61014a5f838361014e565b5050565b6001600160a01b038316610178578060025f82825461016d9190610619565b909155506101e89050565b6001600160a01b0383165f90815260208190526040902054818110156101ca5760405163391434e360e21b81526001600160a01b03851660048201526024810182905260448101839052606401610072565b6001600160a01b0384165f9081526020819052604090209082900390555b6001600160a01b03821661020457600280548290039055610222565b6001600160a01b0382165f9081526020819052604090208054820190555b816001600160a01b0316836001600160a01b03167fddf252ad1be2c89b69c2b068fc378daa952ba7f163c4a11628f55a4df523b3ef8360405161026791815260200190565b60405180910390a3505050565b634e487b7160e01b5f52604160045260245ffd5b5f82601f830112610297575f5ffd5b81516001600160401b038111156102b0576102b0610274565b604051601f8201601f19908116603f011681016001600160401b03811182821017156102de576102de610274565b6040528181528382016020018510156102f5575f5ffd5b8160208501602083015e5f918101602001919091529392505050565b5f5f5f5f5f60a08688031215610325575f5ffd5b85516001600160401b0381111561033a575f5ffd5b61034688828901610288565b602088015190965090506001600160401b03811115610363575f5ffd5b61036f88828901610288565b94505060408601519250606086015160ff8116811461038c575f5ffd5b60808701519092506001600160a01b03811681146103a8575f5ffd5b809150509295509295909350565b600181811c908216806103ca57607f821691505b6020821081036103e857634e487b7160e01b5f52602260045260245ffd5b50919050565b601f82111561043557805f5260205f20601f840160051c810160208510156104135750805b601f840160051c820191505b81811015610432575f815560010161041f565b50505b505050565b81516001600160401b0381111561045357610453610274565b6104678161046184546103b6565b846103ee565b6020601f821160018114610499575f83156104825750848201515b5f19600385901b1c1916600184901b178455610432565b5f84815260208120601f198516915b828110156104c857878501518255602094850194600190920191016104a8565b50848210156104e557868401515f19600387901b60f8161c191681555b50505050600190811b01905550565b634e487b7160e01b5f52601160045260245ffd5b6001815b600184111561054357808504811115610527576105276104f4565b600184161561053557908102905b60019390931c92800261050c565b935093915050565b5f82610559575060016105e7565b8161056557505f6105e7565b816001811461057b5760028114610585576105a1565b60019150506105e7565b60ff841115610596576105966104f4565b50506001821b6105e7565b5060208310610133831016604e8410600b84101617156105c4575081810a6105e7565b6105d05f198484610508565b805f19048211156105e3576105e36104f4565b0290505b92915050565b5f6105fb60ff84168361054b565b9392505050565b80820281158282048414176105e7576105e76104f4565b808201808211156105e7576105e76104f4565b610914806106395f395ff3fe608060405234801561000f575f5ffd5b50600436106100e5575f3560e01c806370a082311161008857806395d89b411161006357806395d89b41146101e1578063a9059cbb146101e9578063dd62ed3e146101fc578063f2fde38b14610234575f5ffd5b806370a0823114610196578063715018a6146101be5780638da5cb5b146101c6575f5ffd5b806323b872dd116100c357806323b872dd1461013c578063313ce5671461014f57806340c10f191461016e57806342966c6814610183575f5ffd5b806306fdde03146100e9578063095ea7b31461010757806318160ddd1461012a575b5f5ffd5b6100f1610247565b6040516100fe919061076d565b60405180910390f35b61011a6101153660046107bd565b6102d7565b60405190151581526020016100fe565b6002545b6040519081526020016100fe565b61011a61014a3660046107e5565b6102f0565b600554600160a01b900460ff1660405160ff90911681526020016100fe565b61018161017c3660046107bd565b610313565b005b61018161019136600461081f565b610329565b61012e6101a4366004610836565b6001600160a01b03165f9081526020819052604090205490565b610181610336565b6005546040516001600160a01b0390911681526020016100fe565b6100f1610349565b61011a6101f73660046107bd565b610358565b61012e61020a366004610856565b6001600160a01b039182165f90815260016020908152604080832093909416825291909152205490565b610181610242366004610836565b610365565b60606003805461025690610887565b80601f016020809104026020016040519081016040528092919081815260200182805461028290610887565b80156102cd5780601f106102a4576101008083540402835291602001916102cd565b820191905f5260205f20905b8154815290600101906020018083116102b057829003601f168201915b5050505050905090565b5f336102e48185856103a4565b60019150505b92915050565b5f336102fd8582856103b6565b610308858585610432565b506001949350505050565b61031b61048f565b61032582826104bc565b5050565b61033333826104f0565b50565b61033e61048f565b6103475f610524565b565b60606004805461025690610887565b5f336102e4818585610432565b61036d61048f565b6001600160a01b03811661039b57604051631e4fbdf760e01b81525f60048201526024015b60405180910390fd5b61033381610524565b6103b18383836001610575565b505050565b6001600160a01b038381165f908152600160209081526040808320938616835292905220545f1981101561042c578181101561041e57604051637dc7a0d960e11b81526001600160a01b03841660048201526024810182905260448101839052606401610392565b61042c84848484035f610575565b50505050565b6001600160a01b03831661045b57604051634b637e8f60e11b81525f6004820152602401610392565b6001600160a01b0382166104845760405163ec442f0560e01b81525f6004820152602401610392565b6103b1838383610647565b6005546001600160a01b031633146103475760405163118cdaa760e01b8152336004820152602401610392565b6001600160a01b0382166104e55760405163ec442f0560e01b81525f6004820152602401610392565b6103255f8383610647565b6001600160a01b03821661051957604051634b637e8f60e11b81525f6004820152602401610392565b610325825f83610647565b600580546001600160a01b038381166001600160a01b0319831681179093556040519116919082907f8be0079c531659141344cd1fd0a4f28419497f9722a3daafe3b4186f6b6457e0905f90a35050565b6001600160a01b03841661059e5760405163e602df0560e01b81525f6004820152602401610392565b6001600160a01b0383166105c757604051634a1406b160e11b81525f6004820152602401610392565b6001600160a01b038085165f908152600160209081526040808320938716835292905220829055801561042c57826001600160a01b0316846001600160a01b03167f8c5be1e5ebec7d5bd14f71427d1e84f3dd0314c0f7b2291e5b200ac8c7c3b9258460405161063991815260200190565b60405180910390a350505050565b6001600160a01b038316610671578060025f82825461066691906108bf565b909155506106e19050565b6001600160a01b0383165f90815260208190526040902054818110156106c35760405163391434e360e21b81526001600160a01b03851660048201526024810182905260448101839052606401610392565b6001600160a01b0384165f9081526020819052604090209082900390555b6001600160a01b0382166106fd5760028054829003905561071b565b6001600160a01b0382165f9081526020819052604090208054820190555b816001600160a01b0316836001600160a01b03167fddf252ad1be2c89b69c2b068fc378daa952ba7f163c4a11628f55a4df523b3ef8360405161076091815260200190565b60405180910390a3505050565b602081525f82518060208401528060208501604085015e5f604082850101526040601f19601f83011684010191505092915050565b80356001600160a01b03811681146107b8575f5ffd5b919050565b5f5f604083850312156107ce575f5ffd5b6107d7836107a2565b946020939093013593505050565b5f5f5f606084860312156107f7575f5ffd5b610800846107a2565b925061080e602085016107a2565b929592945050506040919091013590565b5f6020828403121561082f575f5ffd5b5035919050565b5f60208284031215610846575f5ffd5b61084f826107a2565b9392505050565b5f5f60408385031215610867575f5ffd5b610870836107a2565b915061087e602084016107a2565b90509250929050565b600181811c9082168061089b57607f821691505b6020821081036108b957634e487b7160e01b5f52602260045260245ffd5b50919050565b808201808211156102ea57634e487b7160e01b5f52601160045260245ffdfea2646970667358221220b24471c8a12dd9e86b1da9e73f7a2e40ff0b5876ba0d18468b8e182260b17d2364736f6c634300081c0033a264697066735822122028a9675ad3e5159f9dbeede0beb8ab05822fc5a87c206f4a16ec822ccd622c1664736f6c634300081c0033",
  "linkReferences": {},
  "deployedLinkReferences": {},
  "immutableReferences": {},
  "inputSourceName": "project/contracts/ERC20Factory.sol",
  "buildInfoId": "solc-0_8_28-ebd80d32add87886a1d40dc1b993ca6e80e32b99"
}