{
  "_format": "hh3-artifact-1",
  "contractName": "ERC721Factory",
  "sourceName": "contracts/ERC721Factory.sol",
  "abi": [
    {
      "inputs": [],
      "stateMutability": "nonpayable",
      "type": "constructor"
    },
    {
      "inputs": [
        {
          "internalType": "address",
          "name": "owner",
          "type": "address"
        }
      ],
      "name": "OwnableInvalidOwner",
      "type": "error"
    },
    {
      "inputs": [
        {
          "internalType": "address",
          "name": "account",
          "type": "address"
        }
      ],
      "name": "OwnableUnauthorizedAccount",
      "type": "error"
    },
    {
      "anonymous": false,
      "inputs": [
        {
          "indexed": true,
          "internalType": "address",
          "name": "contractAddress",
          "type": "address"
        },
        {
          "indexed": false,
          "internalType": "string",
          "name": "name",
          "type": "string"
        },
        {
          "indexed": false,
          "internalType": "string",
          "name": "symbol",
          "type": "string"
        },
        {
          "indexed": true,
          "internalType": "address",
          "name": "creator",
          "type": "address"
        },
        {
          "indexed": false,
          "internalType": "uint256",
          "name": "maxSupply",
          "type": "uint256"
        },
        {
          "indexed": false,
          "internalType": "bool",
          "name": "mintable",
          "type": "bool"
        },
        {
          "indexed": false,
          "internalType": "bool",
          "name": "burnable",
          "type": "bool"
        },
        {
          "indexed": false,
          "internalType": "bool",
          "name": "pausable",
          "type": "bool"
        }
      ],
      "name": "CollectionCreated",
      "type": "event"
    },
    {
      "anonymous": false,
      "inputs": [
        {
          "indexed": true,
          "internalType": "address",
          "name": "previousOwner",
          "type": "address"
        },
        {
          "indexed": true,
          "internalType": "address",
          "name": "newOwner",
          "type": "address"
        }
      ],
      "name": "OwnershipTransferred",
      "type": "event"
    },
    {
      "inputs": [
        {
          "internalType": "address",
          "name": "",
          "type": "address"
        }
      ],
      "name": "collectionCreators",
      "outputs": [
        {
          "internalType": "address",
          "name": "",
          "type": "address"
        }
      ],
      "stateMutability": "view",
      "type": "function"
    },
    {
      "inputs": [
        {
          "internalType": "address",
          "name": "",
          "type": "address"
        }
      ],
      "name": "collections",
      "outputs": [
        {
          "internalType": "string",
          "name": "name",
          "type": "string"
        },
        {
          "internalType": "string",
          "name": "symbol",
          "type": "string"
        },
        {
          "internalType": "address",
          "name": "creator",
          "type": "address"
        },
        {
          "internalType": "uint256",
          "name": "maxSupply",
          "type": "uint256"
        },
        {
          "internalType": "bool",
          "name": "mintable",
          "type": "bool"
        },
        {
          "internalType": "bool",
          "name": "burnable",
          "type": "bool"
        },
        {
          "internalType": "bool",
          "name": "pausable",
          "type": "bool"
        },
        {
          "internalType": "uint256",
          "name": "createdAt",
          "type": "uint256"
        }
      ],
      "stateMutability": "view",
      "type": "function"
    },
    {
      "inputs": [
        {
          "internalType": "string",
          "name": "name",
          "type": "string"
        },
        {
          "internalType": "string",
          "name": "symbol",
          "type": "string"
        },
        {
          "internalType": "string",
          "name": "baseURI",
          "type": "string"
        },
        {
          "internalType": "uint256",
          "name": "maxSupplyAmount",
          "type": "uint256"
        },
        {
          "internalType": "bool",
          "name": "mintable",
          "type": "bool"
        },
        {
          "internalType": "bool",
          "name": "burnable",
          "type": "bool"
        },
        {
          "internalType": "bool",
          "name": "pausable",
          "type": "bool"
        }
      ],
      "name": "createCollection",
      "outputs": [
        {
          "internalType": "address",
          "name": "",
          "type": "address"
        }
      ],
      "stateMutability": "nonpayable",
      "type": "function"
    },
    {
      "inputs": [
        {
          "internalType": "uint256",
          "name": "",
          "type": "uint256"
        }
      ],
      "name": "createdCollections",
      "outputs": [
        {
          "internalType": "address",
          "name": "",
          "type": "address"
        }
      ],
      "stateMutability": "view",
      "type": "function"
    },
    {
      "inputs": [],
      "name": "getAllCollections",
      "outputs": [
        {
          "internalType": "address[]",
          "name": "",
          "type": "address[]"
        }
      ],
      "stateMutability": "view",
      "type": "function"
    },
    {
      "inputs": [],
      "name": "getCollectionCount",
      "outputs": [
        {
          "internalType": "uint256",
          "name": "",
          "type": "uint256"
        }
      ],
      "stateMutability": "view",
      "type": "function"
    },
    {
      "inputs": [
        {
          "internalType": "address",
          "name": "creator",
          "type": "address"
        }
      ],
      "name": "getCollectionsByCreator",
      "outputs": [
        {
          "internalType": "address[]",
          "name": "",
          "type": "address[]"
        }
      ],
      "stateMutability": "view",
      "type": "function"
    },
    {
      "inputs": [],
      "name": "owner",
      "outputs": [
        {
          "internalType": "address",
          "name": "",
          "type": "address"
        }
      ],
      "stateMutability": "view",
      "type": "function"
    },
    {
      "inputs": [],
      "name": "renounceOwnership",
      "outputs": [],
      "stateMutability": "nonpayable",
      "type": "function"
    },
    {
      "inputs": [
        {
          "internalType": "address",
          "name": "newOwner",
          "type": "address"
        }
      ],
      "name": "transferOwnership",
      "outputs": [],
      "stateMutability": "nonpayable",
      "type": "function"
    }
  ],
  "bytecode": "0x6080604052348015600e575f5ffd5b503380603357604051631e4fbdf760e01b81525f600482015260240160405180910390fd5b603a81603f565b50608e565b5f80546001600160a01b038381166001600160a01b0319831681178455604051919092169283917f8be0079c531659141344cd1fd0a4f28419497f9722a3daafe3b4186f6b6457e09190a35050565b612bcb8061009b5f395ff3fe608060405234801561000f575f5ffd5b506004361061009b575f3560e01c8063715018a611610063578063715018a6146101445780638da5cb5b1461014e578063b77ff84f1461015e578063f2fde38b14610171578063f56b836914610184575f5ffd5b80631c10106f1461009f57806323a942e0146100b557806343add2e6146100e05780634d801b65146101075780636804a9581461012f575b5f5ffd5b6001546040519081526020015b60405180910390f35b6100c86100c3366004610920565b610197565b6040516001600160a01b0390911681526020016100ac565b6100f36100ee3660046109e8565b61041e565b6040516100ac989796959493929190610a43565b6100c86101153660046109e8565b60026020525f90815260409020546001600160a01b031681565b61013761057e565b6040516100ac9190610aa7565b61014c6105de565b005b5f546001600160a01b03166100c8565b6100c861016c366004610af2565b6105f1565b61014c61017f3660046109e8565b610619565b6101376101923660046109e8565b610656565b5f5f8851116101e45760405162461bcd60e51b81526020600482015260146024820152734e616d652063616e6e6f7420626520656d70747960601b60448201526064015b60405180910390fd5b5f87511161022d5760405162461bcd60e51b815260206004820152601660248201527553796d626f6c2063616e6e6f7420626520656d70747960501b60448201526064016101db565b5f888888888888883360405161024290610860565b610253989796959493929190610b09565b604051809103905ff08015801561026c573d5f5f3e3d5ffd5b50600180548082019091557fb10e2d527612073b26eecdfd717e6a320cf44b4afac2b0732d9fcbe2b7fa0cf60180546001600160a01b03199081166001600160a01b0384169081179092555f8281526002602090815260408083208054339516851790558051610100810182528f81528083018f905280820194909452606084018c90528a1515608085015289151560a085015288151560c08501524260e0850152938252600390529190912081519293508392819061032c9082610bfe565b50602082015160018201906103419082610bfe565b506040828101516002830180546001600160a01b0319166001600160a01b0392831617905560608401516003840155608084015160048401805460a087015160c088015161ffff1990921693151561ff00191693909317610100931515939093029290921762ff00001916620100009215159290920291909117905560e0909301516005909201919091555133918316907fe9d12812914b2e1da0da6391e81ab9c71b25cd5a09ac6488d6d8456dd8762ae290610409908e908e908d908d908d908d90610cb9565b60405180910390a39998505050505050505050565b60036020525f908152604090208054819061043890610b7a565b80601f016020809104026020016040519081016040528092919081815260200182805461046490610b7a565b80156104af5780601f10610486576101008083540402835291602001916104af565b820191905f5260205f20905b81548152906001019060200180831161049257829003601f168201915b5050505050908060010180546104c490610b7a565b80601f01602080910402602001604051908101604052809291908181526020018280546104f090610b7a565b801561053b5780601f106105125761010080835404028352916020019161053b565b820191905f5260205f20905b81548152906001019060200180831161051e57829003601f168201915b50505060028401546003850154600486015460059096015494956001600160a01b039092169490935060ff80831693506101008304811692620100009004169088565b606060018054806020026020016040519081016040528092919081815260200182805480156105d457602002820191905f5260205f20905b81546001600160a01b031681526001909101906020018083116105b6575b5050505050905090565b6105e66107e5565b6105ef5f610811565b565b60018181548110610600575f80fd5b5f918252602090912001546001600160a01b0316905081565b6106216107e5565b6001600160a01b03811661064a57604051631e4fbdf760e01b81525f60048201526024016101db565b61065381610811565b50565b60605f805b6001548110156106ca57836001600160a01b031660025f6001848154811061068557610685610d05565b5f9182526020808320909101546001600160a01b03908116845290830193909352604090910190205416036106c257816106be81610d19565b9250505b60010161065b565b505f8167ffffffffffffffff8111156106e5576106e561086d565b60405190808252806020026020018201604052801561070e578160200160208202803683370190505b5090505f805b6001548110156107db57856001600160a01b031660025f6001848154811061073e5761073e610d05565b5f9182526020808320909101546001600160a01b03908116845290830193909352604090910190205416036107d3576001818154811061078057610780610d05565b905f5260205f20015f9054906101000a90046001600160a01b03168383815181106107ad576107ad610d05565b6001600160a01b0390921660209283029190910190910152816107cf81610d19565b9250505b600101610714565b5090949350505050565b5f546001600160a01b031633146105ef5760405163118cdaa760e01b81523360048201526024016101db565b5f80546001600160a01b038381166001600160a01b0319831681178455604051919092169283917f8be0079c531659141344cd1fd0a4f28419497f9722a3daafe3b4186f6b6457e09190a35050565b611e5880610d3e83390190565b634e487b7160e01b5f52604160045260245ffd5b5f82601f830112610890575f5ffd5b813567ffffffffffffffff8111156108aa576108aa61086d565b604051601f8201601f19908116603f0116810167ffffffffffffffff811182821017156108d9576108d961086d565b6040528181528382016020018510156108f0575f5ffd5b816020850160208301375f918101602001919091529392505050565b8035801515811461091b575f5ffd5b919050565b5f5f5f5f5f5f5f60e0888a031215610936575f5ffd5b873567ffffffffffffffff81111561094c575f5ffd5b6109588a828b01610881565b975050602088013567ffffffffffffffff811115610974575f5ffd5b6109808a828b01610881565b965050604088013567ffffffffffffffff81111561099c575f5ffd5b6109a88a828b01610881565b955050606088013593506109be6080890161090c565b92506109cc60a0890161090c565b91506109da60c0890161090c565b905092959891949750929550565b5f602082840312156109f8575f5ffd5b81356001600160a01b0381168114610a0e575f5ffd5b9392505050565b5f81518084528060208401602086015e5f602082860101526020601f19601f83011685010191505092915050565b61010081525f610a5761010083018b610a15565b8281036020840152610a69818b610a15565b6001600160a01b0399909916604084015250506060810195909552921515608085015290151560a0840152151560c083015260e09091015292915050565b602080825282518282018190525f918401906040840190835b81811015610ae75783516001600160a01b0316835260209384019390920191600101610ac0565b509095945050505050565b5f60208284031215610b02575f5ffd5b5035919050565b61010081525f610b1d61010083018b610a15565b8281036020840152610b2f818b610a15565b90508281036040840152610b43818a610a15565b60608401989098525050931515608085015291151560a0840152151560c08301526001600160a01b031660e0909101529392505050565b600181811c90821680610b8e57607f821691505b602082108103610bac57634e487b7160e01b5f52602260045260245ffd5b50919050565b601f821115610bf957805f5260205f20601f840160051c81016020851015610bd75750805b601f840160051c820191505b81811015610bf6575f8155600101610be3565b50505b505050565b815167ffffffffffffffff811115610c1857610c1861086d565b610c2c81610c268454610b7a565b84610bb2565b6020601f821160018114610c5e575f8315610c475750848201515b5f19600385901b1c1916600184901b178455610bf6565b5f84815260208120601f198516915b82811015610c8d5787850151825560209485019460019092019101610c6d565b5084821015610caa57868401515f19600387901b60f8161c191681555b50505050600190811b01905550565b60c081525f610ccb60c0830189610a15565b8281036020840152610cdd8189610a15565b6040840197909752505092151560608401529015156080830152151560a09091015292915050565b634e487b7160e01b5f52603260045260245ffd5b5f60018201610d3657634e487b7160e01b5f52601160045260245ffd5b506001019056fe608060405234801561000f575f5ffd5b50604051611e58380380611e5883398101604081905261002e916101fc565b8088885f61003c838261035c565b506001610049828261035c565b5050506001600160a01b03811661007957604051631e4fbdf760e01b81525f600482015260240160405180910390fd5b610082816100e4565b50600761008f878261035c565b50506008939093556009805461ffff191692151561ff00191692909217610100911515919091021762ff00001916620100009215159290920291909117905550505f600a5550600b805460ff19169055610416565b600680546001600160a01b038381166001600160a01b0319831681179093556040519116919082907f8be0079c531659141344cd1fd0a4f28419497f9722a3daafe3b4186f6b6457e0905f90a35050565b634e487b7160e01b5f52604160045260245ffd5b5f82601f830112610158575f5ffd5b81516001600160401b0381111561017157610171610135565b604051601f8201601f19908116603f011681016001600160401b038111828210171561019f5761019f610135565b6040528181528382016020018510156101b6575f5ffd5b8160208501602083015e5f918101602001919091529392505050565b805180151581146101e1575f5ffd5b919050565b80516001600160a01b03811681146101e1575f5ffd5b5f5f5f5f5f5f5f5f610100898b031215610214575f5ffd5b88516001600160401b03811115610229575f5ffd5b6102358b828c01610149565b60208b015190995090506001600160401b03811115610252575f5ffd5b61025e8b828c01610149565b60408b015190985090506001600160401b0381111561027b575f5ffd5b6102878b828c01610149565b60608b0151909750955061029f905060808a016101d2565b93506102ad60a08a016101d2565b92506102bb60c08a016101d2565b91506102c960e08a016101e6565b90509295985092959890939650565b600181811c908216806102ec57607f821691505b60208210810361030a57634e487b7160e01b5f52602260045260245ffd5b50919050565b601f82111561035757805f5260205f20601f840160051c810160208510156103355750805b601f840160051c820191505b81811015610354575f8155600101610341565b50505b505050565b81516001600160401b0381111561037557610375610135565b6103898161038384546102d8565b84610310565b6020601f8211600181146103bb575f83156103a45750848201515b5f19600385901b1c1916600184901b178455610354565b5f84815260208120601f198516915b828110156103ea57878501518255602094850194600190920191016103ca565b508482101561040757868401515f19600387901b60f8161c191681555b50505050600190811b01905550565b611a35806104235f395ff3fe608060405234801561000f575f5ffd5b50600436106101bb575f3560e01c8063715018a6116100f3578063a22cb46511610093578063c87b56dd1161006e578063c87b56dd14610369578063d0def5211461037c578063e985e9c51461038f578063f2fde38b146103a2575f5ffd5b8063a22cb46514610338578063b187bd261461034b578063b88d4fde14610356575f5ffd5b8063883356d9116100ce578063883356d9146102fe5780638da5cb5b1461030e57806395d89b411461031f578063a09a160114610327575f5ffd5b8063715018a6146102e6578063771282f6146102ee5780638456cb59146102f6575f5ffd5b806342966c681161015e57806355f804b31161013957806355f804b31461029a5780636352211e146102ad57806364ba144e146102c057806370a08231146102d3575f5ffd5b806342966c681461026a57806346b45af71461027d5780634c0f38c214610288575f5ffd5b8063095ea7b311610199578063095ea7b31461022757806323b872dd1461023c5780633f4ba83a1461024f57806342842e0e14610257575f5ffd5b806301ffc9a7146101bf57806306fdde03146101e7578063081812fc146101fc575b5f5ffd5b6101d26101cd3660046112b1565b6103b5565b60405190151581526020015b60405180910390f35b6101ef610406565b6040516101de9190611301565b61020f61020a366004611313565b610495565b6040516001600160a01b0390911681526020016101de565b61023a610235366004611345565b6104bc565b005b61023a61024a36600461136d565b6104cb565b61023a610559565b61023a61026536600461136d565b61056d565b61023a610278366004611313565b61058c565b60095460ff166101d2565b6008545b6040519081526020016101de565b61023a6102a8366004611463565b61064b565b61020f6102bb366004611313565b61065f565b61023a6102ce366004611546565b610669565b61028c6102e1366004611609565b61082a565b61023a61086f565b600a5461028c565b61023a610882565b600954610100900460ff166101d2565b6006546001600160a01b031661020f565b6101ef6108e7565b60095462010000900460ff166101d2565b61023a610346366004611622565b6108f6565b600b5460ff166101d2565b61023a61036436600461165b565b610901565b6101ef610377366004611313565b610919565b61023a61038a3660046116d2565b6109f6565b6101d261039d366004611713565b610b0c565b61023a6103b0366004611609565b610b39565b5f6001600160e01b031982166380ac58cd60e01b14806103e557506001600160e01b03198216635b5e139f60e01b145b8061040057506301ffc9a760e01b6001600160e01b03198316145b92915050565b60605f805461041490611744565b80601f016020809104026020016040519081016040528092919081815260200182805461044090611744565b801561048b5780601f106104625761010080835404028352916020019161048b565b820191905f5260205f20905b81548152906001019060200180831161046e57829003601f168201915b5050505050905090565b5f61049f82610b73565b505f828152600460205260409020546001600160a01b0316610400565b6104c7828233610bab565b5050565b6001600160a01b0382166104f957604051633250574960e11b81525f60048201526024015b60405180910390fd5b5f610505838333610bb8565b9050836001600160a01b0316816001600160a01b031614610553576040516364283d7b60e01b81526001600160a01b03808616600483015260248201849052821660448201526064016104f0565b50505050565b610561610caa565b600b805460ff19169055565b61058783838360405180602001604052805f815250610901565b505050565b600954610100900460ff166105d95760405162461bcd60e51b8152602060048201526013602482015272109d5c9b9a5b99c81a5cc8191a5cd8589b1959606a1b60448201526064016104f0565b336105e38261065f565b6001600160a01b0316148061060257506006546001600160a01b031633145b61063f5760405162461bcd60e51b815260206004820152600e60248201526d139bdd08185d5d1a1bdc9a5e995960921b60448201526064016104f0565b61064881610cd7565b50565b610653610caa565b60076104c782826117c0565b5f61040082610b73565b610671610caa565b60095460ff166106b95760405162461bcd60e51b8152602060048201526013602482015272135a5b9d1a5b99c81a5cc8191a5cd8589b1959606a1b60448201526064016104f0565b600b5460ff16156107015760405162461bcd60e51b815260206004820152601260248201527110dbdb9d1c9858dd081a5cc81c185d5cd95960721b60448201526064016104f0565b805182511461074b5760405162461bcd60e51b8152602060048201526016602482015275082e4e4c2f2e640d8cadccee8d040dad2e6dac2e8c6d60531b60448201526064016104f0565b600854158061076a57506008548251600a54610767919061188f565b11155b6107b65760405162461bcd60e51b815260206004820152601c60248201527f4d617820737570706c7920776f756c642062652065786365656465640000000060448201526064016104f0565b5f5b825181101561058757600a8054905f6107d0836118a2565b91905055505f600a5490506107fe8483815181106107f0576107f06118ba565b602002602001015182610d0f565b61082181848481518110610814576108146118ba565b6020026020010151610d28565b506001016107b8565b5f6001600160a01b038216610854576040516322718ad960e21b81525f60048201526024016104f0565b506001600160a01b03165f9081526003602052604090205490565b610877610caa565b6108805f610d3f565b565b61088a610caa565b60095462010000900460ff166108d85760405162461bcd60e51b815260206004820152601360248201527214185d5cda5b99c81a5cc8191a5cd8589b1959606a1b60448201526064016104f0565b600b805460ff19166001179055565b60606001805461041490611744565b6104c7338383610d90565b61090c8484846104cb565b6105533385858585610e2e565b5f818152600c602052604081208054606092919061093690611744565b80601f016020809104026020016040519081016040528092919081815260200182805461096290611744565b80156109ad5780601f10610984576101008083540402835291602001916109ad565b820191905f5260205f20905b81548152906001019060200180831161099057829003601f168201915b505050505090505f815111156109c35792915050565b60076109ce84610f56565b6040516020016109df9291906118ce565b604051602081830303815290604052915050919050565b6109fe610caa565b60095460ff16610a465760405162461bcd60e51b8152602060048201526013602482015272135a5b9d1a5b99c81a5cc8191a5cd8589b1959606a1b60448201526064016104f0565b600b5460ff1615610a8e5760405162461bcd60e51b815260206004820152601260248201527110dbdb9d1c9858dd081a5cc81c185d5cd95960721b60448201526064016104f0565b6008541580610aa05750600854600a54105b610ae15760405162461bcd60e51b815260206004820152601260248201527113585e081cdd5c1c1b1e481c995858da195960721b60448201526064016104f0565b600a8054905f610af0836118a2565b9091555050600a54610b028382610d0f565b6105878183610d28565b6001600160a01b039182165f90815260056020908152604080832093909416825291909152205460ff1690565b610b41610caa565b6001600160a01b038116610b6a57604051631e4fbdf760e01b81525f60048201526024016104f0565b61064881610d3f565b5f818152600260205260408120546001600160a01b03168061040057604051637e27328960e01b8152600481018490526024016104f0565b610587838383600161105b565b5f828152600260205260408120546001600160a01b0390811690831615610be457610be481848661115f565b6001600160a01b03811615610c1e57610bff5f855f5f61105b565b6001600160a01b0381165f90815260036020526040902080545f190190555b6001600160a01b03851615610c4c576001600160a01b0385165f908152600360205260409020805460010190555b5f8481526002602052604080822080546001600160a01b0319166001600160a01b0389811691821790925591518793918516917fddf252ad1be2c89b69c2b068fc378daa952ba7f163c4a11628f55a4df523b3ef91a4949350505050565b6006546001600160a01b031633146108805760405163118cdaa760e01b81523360048201526024016104f0565b5f610ce35f835f610bb8565b90506001600160a01b0381166104c757604051637e27328960e01b8152600481018390526024016104f0565b6104c7828260405180602001604052805f8152506111c3565b5f828152600c6020526040902061058782826117c0565b600680546001600160a01b038381166001600160a01b0319831681179093556040519116919082907f8be0079c531659141344cd1fd0a4f28419497f9722a3daafe3b4186f6b6457e0905f90a35050565b6001600160a01b038216610dc257604051630b61174360e31b81526001600160a01b03831660048201526024016104f0565b6001600160a01b038381165f81815260056020908152604080832094871680845294825291829020805460ff191686151590811790915591519182527f17307eab39ab6107e8899845ad3d59bd9653f200f220920489ca2b5937696c31910160405180910390a3505050565b6001600160a01b0383163b15610f4f57604051630a85bd0160e11b81526001600160a01b0384169063150b7a0290610e7090889088908790879060040161195b565b6020604051808303815f875af1925050508015610eaa575060408051601f3d908101601f19168201909252610ea791810190611997565b60015b610f11573d808015610ed7576040519150601f19603f3d011682016040523d82523d5f602084013e610edc565b606091505b5080515f03610f0957604051633250574960e11b81526001600160a01b03851660048201526024016104f0565b805160208201fd5b6001600160e01b03198116630a85bd0160e11b14610f4d57604051633250574960e11b81526001600160a01b03851660048201526024016104f0565b505b5050505050565b6060815f03610f7c5750506040805180820190915260018152600360fc1b602082015290565b815f5b8115610fa55780610f8f816118a2565b9150610f9e9050600a836119c6565b9150610f7f565b5f8167ffffffffffffffff811115610fbf57610fbf6113a7565b6040519080825280601f01601f191660200182016040528015610fe9576020820181803683370190505b5090505b841561105357610ffe6001836119d9565b915061100b600a866119ec565b61101690603061188f565b60f81b81838151811061102b5761102b6118ba565b60200101906001600160f81b03191690815f1a90535061104c600a866119c6565b9450610fed565b949350505050565b808061106f57506001600160a01b03821615155b15611130575f61107e84610b73565b90506001600160a01b038316158015906110aa5750826001600160a01b0316816001600160a01b031614155b80156110bd57506110bb8184610b0c565b155b156110e65760405163a9fbf51f60e01b81526001600160a01b03841660048201526024016104f0565b811561112e5783856001600160a01b0316826001600160a01b03167f8c5be1e5ebec7d5bd14f71427d1e84f3dd0314c0f7b2291e5b200ac8c7c3b92560405160405180910390a45b505b50505f90815260046020526040902080546001600160a01b0319166001600160a01b0392909216919091179055565b61116a8383836111da565b610587576001600160a01b03831661119857604051637e27328960e01b8152600481018290526024016104f0565b60405163177e802f60e01b81526001600160a01b0383166004820152602481018290526044016104f0565b6111cd838361123b565b610587335f858585610e2e565b5f6001600160a01b038316158015906110535750826001600160a01b0316846001600160a01b0316148061121357506112138484610b0c565b806110535750505f908152600460205260409020546001600160a01b03908116911614919050565b6001600160a01b03821661126457604051633250574960e11b81525f60048201526024016104f0565b5f61127083835f610bb8565b90506001600160a01b03811615610587576040516339e3563760e11b81525f60048201526024016104f0565b6001600160e01b031981168114610648575f5ffd5b5f602082840312156112c1575f5ffd5b81356112cc8161129c565b9392505050565b5f81518084528060208401602086015e5f602082860101526020601f19601f83011685010191505092915050565b602081525f6112cc60208301846112d3565b5f60208284031215611323575f5ffd5b5035919050565b80356001600160a01b0381168114611340575f5ffd5b919050565b5f5f60408385031215611356575f5ffd5b61135f8361132a565b946020939093013593505050565b5f5f5f6060848603121561137f575f5ffd5b6113888461132a565b92506113966020850161132a565b929592945050506040919091013590565b634e487b7160e01b5f52604160045260245ffd5b604051601f8201601f1916810167ffffffffffffffff811182821017156113e4576113e46113a7565b604052919050565b5f5f67ffffffffffffffff841115611406576114066113a7565b50601f8301601f191660200161141b816113bb565b91505082815283838301111561142f575f5ffd5b828260208301375f602084830101529392505050565b5f82601f830112611454575f5ffd5b6112cc838335602085016113ec565b5f60208284031215611473575f5ffd5b813567ffffffffffffffff811115611489575f5ffd5b61105384828501611445565b5f67ffffffffffffffff8211156114ae576114ae6113a7565b5060051b60200190565b5f82601f8301126114c7575f5ffd5b81356114da6114d582611495565b6113bb565b8082825260208201915060208360051b8601019250858311156114fb575f5ffd5b602085015b8381101561153c57803567ffffffffffffffff81111561151e575f5ffd5b61152d886020838a0101611445565b84525060209283019201611500565b5095945050505050565b5f5f60408385031215611557575f5ffd5b823567ffffffffffffffff81111561156d575f5ffd5b8301601f8101851361157d575f5ffd5b803561158b6114d582611495565b8082825260208201915060208360051b8501019250878311156115ac575f5ffd5b6020840193505b828410156115d5576115c48461132a565b8252602093840193909101906115b3565b9450505050602083013567ffffffffffffffff8111156115f3575f5ffd5b6115ff858286016114b8565b9150509250929050565b5f60208284031215611619575f5ffd5b6112cc8261132a565b5f5f60408385031215611633575f5ffd5b61163c8361132a565b915060208301358015158114611650575f5ffd5b809150509250929050565b5f5f5f5f6080858703121561166e575f5ffd5b6116778561132a565b93506116856020860161132a565b925060408501359150606085013567ffffffffffffffff8111156116a7575f5ffd5b8501601f810187136116b7575f5ffd5b6116c6878235602084016113ec565b91505092959194509250565b5f5f604083850312156116e3575f5ffd5b6116ec8361132a565b9150602083013567ffffffffffffffff811115611707575f5ffd5b6115ff85828601611445565b5f5f60408385031215611724575f5ffd5b61172d8361132a565b915061173b6020840161132a565b90509250929050565b600181811c9082168061175857607f821691505b60208210810361177657634e487b7160e01b5f52602260045260245ffd5b50919050565b601f82111561058757805f5260205f20601f840160051c810160208510156117a15750805b601f840160051c820191505b81811015610f4f575f81556001016117ad565b815167ffffffffffffffff8111156117da576117da6113a7565b6117ee816117e88454611744565b8461177c565b6020601f821160018114611820575f83156118095750848201515b5f19600385901b1c1916600184901b178455610f4f565b5f84815260208120601f198516915b8281101561184f578785015182556020948501946001909201910161182f565b508482101561186c57868401515f19600387901b60f8161c191681555b50505050600190811b01905550565b634e487b7160e01b5f52601160045260245ffd5b808201808211156104005761040061187b565b5f600182016118b3576118b361187b565b5060010190565b634e487b7160e01b5f52603260045260245ffd5b5f5f84546118db81611744565b6001821680156118f2576001811461190757611934565b60ff1983168652811515820286019350611934565b875f5260205f205f5b8381101561192c57815488820152600190910190602001611910565b505081860193505b505050602f60f81b815283518060208601600184015e5f9101600101908152949350505050565b6001600160a01b03858116825284166020820152604081018390526080606082018190525f9061198d908301846112d3565b9695505050505050565b5f602082840312156119a7575f5ffd5b81516112cc8161129c565b634e487b7160e01b5f52601260045260245ffd5b5f826119d4576119d46119b2565b500490565b818103818111156104005761040061187b565b5f826119fa576119fa6119b2565b50069056fea2646970667358221220ca46177cbcaeee29606da3ab6ca8cb9a64320861dbd68270a10d6940ef746f5864736f6c634300081c0033a264697066735822122015fda597844f573b2f8c70a12db40a322f7cce13cbfa5cd48aee1058c9642d1264736f6c634300081c0033",
  "linkReferences": {},
  "deployedLinkReferences": {},
  "immutableReferences": {},
  "inputSourceName": "project/contracts/ERC721Factory.sol",
  "buildInfoId": "solc-0_8_28-b35ba183083d344e44b34de48ad163a7af85719f"
}