{
  "_format": "hh3-artifact-1",
  "contractName": "MerkleProofX",
  "sourceName": "contracts/MerkleProof.sol",
  "abi": [
    {
      "inputs": [
        {
          "internalType": "address",
          "name": "_treasury",
          "type": "address"
        }
      ],
      "stateMutability": "nonpayable",
      "type": "constructor"
    },
    {
      "anonymous": false,
      "inputs": [
        {
          "indexed": false,
          "internalType": "address",
          "name": "user",
          "type": "address"
        },
        {
          "indexed": false,
          "internalType": "uint256",
          "name": "amount",
          "type": "uint256"
        }
      ],
      "name": "FeeCollected",
      "type": "event"
    },
    {
      "anonymous": false,
      "inputs": [
        {
          "indexed": true,
          "internalType": "bytes32",
          "name": "root",
          "type": "bytes32"
        },
        {
          "indexed": false,
          "internalType": "string",
          "name": "description",
          "type": "string"
        },
        {
          "indexed": false,
          "internalType": "uint256",
          "name": "listSize",
          "type": "uint256"
        },
        {
          "indexed": false,
          "internalType": "address",
          "name": "creator",
          "type": "address"
        },
        {
          "indexed": false,
          "internalType": "uint256",
          "name": "feePaid",
          "type": "uint256"
        }
      ],
      "name": "MerkleTreeAdded",
      "type": "event"
    },
    {
      "anonymous": false,
      "inputs": [
        {
          "indexed": true,
          "internalType": "bytes32",
          "name": "root",
          "type": "bytes32"
        },
        {
          "indexed": false,
          "internalType": "address",
          "name": "remover",
          "type": "address"
        }
      ],
      "name": "MerkleTreeRemoved",
      "type": "event"
    },
    {
      "anonymous": false,
      "inputs": [
        {
          "indexed": true,
          "internalType": "bytes32",
          "name": "root",
          "type": "bytes32"
        },
        {
          "indexed": false,
          "internalType": "string",
          "name": "newDescription",
          "type": "string"
        },
        {
          "indexed": false,
          "internalType": "address",
          "name": "updater",
          "type": "address"
        }
      ],
      "name": "MerkleTreeUpdated",
      "type": "event"
    },
    {
      "anonymous": false,
      "inputs": [
        {
          "indexed": false,
          "internalType": "uint256",
          "name": "newFee",
          "type": "uint256"
        }
      ],
      "name": "PlatformFeeUpdated",
      "type": "event"
    },
    {
      "anonymous": false,
      "inputs": [
        {
          "indexed": false,
          "internalType": "address",
          "name": "newTreasury",
          "type": "address"
        }
      ],
      "name": "TreasuryUpdated",
      "type": "event"
    },
    {
      "anonymous": false,
      "inputs": [
        {
          "indexed": false,
          "internalType": "address",
          "name": "newVerifier",
          "type": "address"
        }
      ],
      "name": "TrustedVerifierUpdated",
      "type": "event"
    },
    {
      "inputs": [
        {
          "internalType": "bytes32",
          "name": "_root",
          "type": "bytes32"
        },
        {
          "internalType": "string",
          "name": "_description",
          "type": "string"
        },
        {
          "internalType": "uint256",
          "name": "_listSize",
          "type": "uint256"
        }
      ],
      "name": "addMerkleTree",
      "outputs": [],
      "stateMutability": "payable",
      "type": "function"
    },
    {
      "inputs": [
        {
          "internalType": "bytes32",
          "name": "_root",
          "type": "bytes32"
        }
      ],
      "name": "getMerkleTreeInfo",
      "outputs": [
        {
          "components": [
            {
              "internalType": "string",
              "name": "description",
              "type": "string"
            },
            {
              "internalType": "uint256",
              "name": "timestamp",
              "type": "uint256"
            },
            {
              "internalType": "uint256",
              "name": "listSize",
              "type": "uint256"
            },
            {
              "internalType": "address",
              "name": "creator",
              "type": "address"
            },
            {
              "internalType": "bool",
              "name": "isActive",
              "type": "bool"
            }
          ],
          "internalType": "struct MerkleProofX.MerkleTreeInfo",
          "name": "",
          "type": "tuple"
        }
      ],
      "stateMutability": "view",
      "type": "function"
    },
    {
      "inputs": [],
      "name": "getPlatformFee",
      "outputs": [
        {
          "internalType": "uint256",
          "name": "",
          "type": "uint256"
        }
      ],
      "stateMutability": "view",
      "type": "function"
    },
    {
      "inputs": [
        {
          "internalType": "address",
          "name": "",
          "type": "address"
        }
      ],
      "name": "isKosVerified",
      "outputs": [
        {
          "internalType": "bool",
          "name": "",
          "type": "bool"
        }
      ],
      "stateMutability": "view",
      "type": "function"
    },
    {
      "inputs": [
        {
          "internalType": "bytes32",
          "name": "_root",
          "type": "bytes32"
        }
      ],
      "name": "isMerkleRootValid",
      "outputs": [
        {
          "internalType": "bool",
          "name": "",
          "type": "bool"
        }
      ],
      "stateMutability": "view",
      "type": "function"
    },
    {
      "inputs": [
        {
          "internalType": "address",
          "name": "",
          "type": "address"
        }
      ],
      "name": "isNewcomer",
      "outputs": [
        {
          "internalType": "bool",
          "name": "",
          "type": "bool"
        }
      ],
      "stateMutability": "view",
      "type": "function"
    },
    {
      "inputs": [
        {
          "internalType": "address",
          "name": "_user",
          "type": "address"
        }
      ],
      "name": "isUserNewcomer",
      "outputs": [
        {
          "internalType": "bool",
          "name": "",
          "type": "bool"
        }
      ],
      "stateMutability": "view",
      "type": "function"
    },
    {
      "inputs": [
        {
          "internalType": "bytes32",
          "name": "",
          "type": "bytes32"
        }
      ],
      "name": "merkleTrees",
      "outputs": [
        {
          "internalType": "string",
          "name": "description",
          "type": "string"
        },
        {
          "internalType": "uint256",
          "name": "timestamp",
          "type": "uint256"
        },
        {
          "internalType": "uint256",
          "name": "listSize",
          "type": "uint256"
        },
        {
          "internalType": "address",
          "name": "creator",
          "type": "address"
        },
        {
          "internalType": "bool",
          "name": "isActive",
          "type": "bool"
        }
      ],
      "stateMutability": "view",
      "type": "function"
    },
    {
      "inputs": [],
      "name": "platformFee",
      "outputs": [
        {
          "internalType": "uint256",
          "name": "",
          "type": "uint256"
        }
      ],
      "stateMutability": "view",
      "type": "function"
    },
    {
      "inputs": [],
      "name": "platformTreasury",
      "outputs": [
        {
          "internalType": "address",
          "name": "",
          "type": "address"
        }
      ],
      "stateMutability": "view",
      "type": "function"
    },
    {
      "inputs": [
        {
          "internalType": "bytes32",
          "name": "_root",
          "type": "bytes32"
        }
      ],
      "name": "removeMerkleTree",
      "outputs": [],
      "stateMutability": "nonpayable",
      "type": "function"
    },
    {
      "inputs": [
        {
          "internalType": "address",
          "name": "_user",
          "type": "address"
        },
        {
          "internalType": "bool",
          "name": "_isNewcomer",
          "type": "bool"
        }
      ],
      "name": "setNewcomerStatus",
      "outputs": [],
      "stateMutability": "nonpayable",
      "type": "function"
    },
    {
      "inputs": [
        {
          "internalType": "address",
          "name": "_verifier",
          "type": "address"
        }
      ],
      "name": "setTrustedVerifier",
      "outputs": [],
      "stateMutability": "nonpayable",
      "type": "function"
    },
    {
      "inputs": [
        {
          "internalType": "address",
          "name": "_claimer",
          "type": "address"
        },
        {
          "internalType": "bytes",
          "name": "_signature",
          "type": "bytes"
        }
      ],
      "name": "submitVerifiedProof",
      "outputs": [
        {
          "internalType": "bool",
          "name": "",
          "type": "bool"
        }
      ],
      "stateMutability": "nonpayable",
      "type": "function"
    },
    {
      "inputs": [],
      "name": "trustedVerifier",
      "outputs": [
        {
          "internalType": "address",
          "name": "",
          "type": "address"
        }
      ],
      "stateMutability": "view",
      "type": "function"
    },
    {
      "inputs": [
        {
          "internalType": "bytes32",
          "name": "_root",
          "type": "bytes32"
        },
        {
          "internalType": "string",
          "name": "_newDescription",
          "type": "string"
        }
      ],
      "name": "updateMerkleTreeDescription",
      "outputs": [],
      "stateMutability": "nonpayable",
      "type": "function"
    },
    {
      "inputs": [
        {
          "internalType": "uint256",
          "name": "_newFee",
          "type": "uint256"
        }
      ],
      "name": "updatePlatformFee",
      "outputs": [],
      "stateMutability": "nonpayable",
      "type": "function"
    },
    {
      "inputs": [
        {
          "internalType": "address",
          "name": "_newTreasury",
          "type": "address"
        }
      ],
      "name": "updateTreasury",
      "outputs": [],
      "stateMutability": "nonpayable",
      "type": "function"
    }
  ],
  "bytecode": "0x608060405266038d7ea4c680005f55348015610019575f5ffd5b506040516116a23803806116a2833981016040819052610038916100d0565b6001600160a01b0381166100925760405162461bcd60e51b815260206004820152601860248201527f496e76616c696420747265617375727920616464726573730000000000000000604482015260640160405180910390fd5b600180546001600160a01b0319166001600160a01b0392909216919091178155335f908152600360205260409020805460ff191690911790556100fd565b5f602082840312156100e0575f5ffd5b81516001600160a01b03811681146100f6575f5ffd5b9392505050565b6115988061010a5f395ff3fe608060405260043610610105575f3560e01c80639eb125ff11610092578063c6f4c31a11610062578063c6f4c31a146102fa578063e138818c14610319578063e7ea128214610338578063ebc19a201461036f578063f795bb9b1461039f575f5ffd5b80639eb125ff1461027b578063aa0b59881461029a578063ac8f3920146102b9578063b5b0d393146102cc575f5ffd5b806349970f60116100d857806349970f60146101c657806358db0fbe146101fe5780636ea8bc101461021d5780637f51bb1f1461023057806380e7f2f81461024f575f5ffd5b8063052b82dd1461010957806326232a2e1461014557806326c9d63514610167578063457acb4d146101a5575b5f5ffd5b348015610114575f5ffd5b50600254610128906001600160a01b031681565b6040516001600160a01b0390911681526020015b60405180910390f35b348015610150575f5ffd5b506101595f5481565b60405190815260200161013c565b348015610172575f5ffd5b506101956101813660046110d0565b60056020525f908152604090205460ff1681565b604051901515815260200161013c565b3480156101b0575f5ffd5b506101c46101bf3660046110f0565b6103be565b005b3480156101d1575f5ffd5b506101956101e0366004611129565b5f90815260046020526040902060030154600160a01b900460ff1690565b348015610209575f5ffd5b506101c46102183660046111e9565b610455565b348015610228575f5ffd5b505f54610159565b34801561023b575f5ffd5b506101c461024a3660046110d0565b61059a565b34801561025a575f5ffd5b5061026e610269366004611129565b61069f565b60405161013c919061125b565b348015610286575f5ffd5b506101c4610295366004611129565b6107f6565b3480156102a5575f5ffd5b506101c46102b4366004611129565b6108e9565b6101c46102c73660046112b4565b610977565b3480156102d7575f5ffd5b506101956102e63660046110d0565b60036020525f908152604090205460ff1681565b348015610305575f5ffd5b50610195610314366004611301565b610ce0565b348015610324575f5ffd5b50600154610128906001600160a01b031681565b348015610343575f5ffd5b506101956103523660046110d0565b6001600160a01b03165f9081526003602052604090205460ff1690565b34801561037a575f5ffd5b5061038e610389366004611129565b610e08565b60405161013c959493929190611355565b3480156103aa575f5ffd5b506101c46103b93660046110d0565b610ecc565b6001546001600160a01b0316331461042b5760405162461bcd60e51b815260206004820152602560248201527f4f6e6c792074726561737572792063616e20736574206e6577636f6d65722073604482015264746174757360d81b60648201526084015b60405180910390fd5b6001600160a01b03919091165f908152600360205260409020805460ff1916911515919091179055565b5f82815260046020526040902060030154600160a01b900460ff1661048c5760405162461bcd60e51b815260040161042290611396565b5f828152600460205260409020600301546001600160a01b031633146104f45760405162461bcd60e51b815260206004820152601760248201527f4f6e6c792063726561746f722063616e207570646174650000000000000000006044820152606401610422565b5f8151116105445760405162461bcd60e51b815260206004820152601b60248201527f4465736372697074696f6e2063616e6e6f7420626520656d70747900000000006044820152606401610422565b5f82815260046020526040902061055b8282611447565b50817f57d16826ea2282e03c8733e057b6196dd261eb25105a20acbeeaaf0c73439f6f823360405161058e929190611502565b60405180910390a25050565b6001546001600160a01b031633146105f45760405162461bcd60e51b815260206004820181905260248201527f4f6e6c792074726561737572792063616e2075706461746520616464726573736044820152606401610422565b6001600160a01b03811661064a5760405162461bcd60e51b815260206004820152601860248201527f496e76616c6964207472656173757279206164647265737300000000000000006044820152606401610422565b600180546001600160a01b0319166001600160a01b0383169081179091556040519081527f7dae230f18360d76a040c81f050aa14eb9d6dc7901b20fc5d855e2a20fe814d1906020015b60405180910390a150565b6106d86040518060a00160405280606081526020015f81526020015f81526020015f6001600160a01b031681526020015f151581525090565b5f82815260046020526040902060030154600160a01b900460ff1661070f5760405162461bcd60e51b815260040161042290611396565b5f8281526004602052604090819020815160a08101909252805482908290610736906113c3565b80601f0160208091040260200160405190810160405280929190818152602001828054610762906113c3565b80156107ad5780601f10610784576101008083540402835291602001916107ad565b820191905f5260205f20905b81548152906001019060200180831161079057829003601f168201915b505050918352505060018201546020820152600282015460408201526003909101546001600160a01b0381166060830152600160a01b900460ff16151560809091015292915050565b5f81815260046020526040902060030154600160a01b900460ff1661082d5760405162461bcd60e51b815260040161042290611396565b5f818152600460205260409020600301546001600160a01b031633146108955760405162461bcd60e51b815260206004820152601760248201527f4f6e6c792063726561746f722063616e2072656d6f76650000000000000000006044820152606401610422565b5f81815260046020908152604091829020600301805460ff60a01b19169055905133815282917f7dca9abf6f188540092d840321da0562592c38d85506d76f5c755afed7984491910160405180910390a250565b6001546001600160a01b031633146109435760405162461bcd60e51b815260206004820152601c60248201527f4f6e6c792074726561737572792063616e2075706461746520666565000000006044820152606401610422565b5f8190556040518181527f45610d581145924dd7090a5017e5f2b1d6f42213bb2e95707ff86846bbfcb1ca90602001610694565b826109c45760405162461bcd60e51b815260206004820152601a60248201527f4d65726b6c6520726f6f742063616e6e6f74206265207a65726f0000000000006044820152606401610422565b5f83815260046020526040902060030154600160a01b900460ff1615610a225760405162461bcd60e51b81526020600482015260136024820152725472656520616c72656164792065786973747360681b6044820152606401610422565b5f8111610a715760405162461bcd60e51b815260206004820181905260248201527f4c6973742073697a65206d7573742062652067726561746572207468616e20306044820152606401610422565b5f825111610ac15760405162461bcd60e51b815260206004820152601b60248201527f4465736372697074696f6e2063616e6e6f7420626520656d70747900000000006044820152606401610422565b335f9081526003602052604090205460ff1615610af357335f908152600360205260409020805460ff19169055610c07565b5f54341015610b375760405162461bcd60e51b815260206004820152601060248201526f496e73756666696369656e742066656560801b6044820152606401610422565b6001546040515f916001600160a01b03169034908381818185875af1925050503d805f8114610b81576040519150601f19603f3d011682016040523d82523d5f602084013e610b86565b606091505b5050905080610bcd5760405162461bcd60e51b8152602060048201526013602482015272119959481d1c985b9cd9995c8819985a5b1959606a1b6044820152606401610422565b604080513381523460208201527f06c5efeff5c320943d265dc4e5f1af95ad523555ce0c1957e367dda5514572df910160405180910390a1505b6040805160a08101825283815242602080830191909152818301849052336060830152600160808301525f86815260049091529190912081518190610c4c9082611447565b506020820151600182015560408083015160028301556060830151600390920180546080909401511515600160a01b026001600160a81b03199094166001600160a01b03909316929092179290921790555183907f451ab8bd949329a1b4e292769ff8b46b4721a4384524bce52d19229e46323e6a90610cd390859085903390349061152b565b60405180910390a2505050565b6002545f906001600160a01b0316610d3a5760405162461bcd60e51b815260206004820152601860248201527f54727573746564207665726966696572206e6f742073657400000000000000006044820152606401610422565b604080516bffffffffffffffffffffffff19606086901b16602080830191909152825180830360140181526034830184528051908201207f19457468657265756d205369676e6564204d6573736167653a0a3332000000006054840152607080840182905284518085039091018152609090930190935281519101205f610dc18286610fca565b6002549091506001600160a01b038083169116148015610dfe576001600160a01b0387165f908152600560205260409020805460ff191660011790555b9695505050505050565b60046020525f9081526040902080548190610e22906113c3565b80601f0160208091040260200160405190810160405280929190818152602001828054610e4e906113c3565b8015610e995780601f10610e7057610100808354040283529160200191610e99565b820191905f5260205f20905b815481529060010190602001808311610e7c57829003601f168201915b5050505060018301546002840154600390940154929390929091506001600160a01b03811690600160a01b900460ff1685565b6001546001600160a01b03163314610f265760405162461bcd60e51b815260206004820152601e60248201527f4f6e6c792074726561737572792063616e2073657420766572696669657200006044820152606401610422565b6001600160a01b038116610f7c5760405162461bcd60e51b815260206004820152601f60248201527f56657269666965722063616e6e6f74206265207a65726f2061646472657373006044820152606401610422565b600280546001600160a01b0319166001600160a01b0383169081179091556040519081527f06327d5a55b2af341cf157d25cce9bda2c059bcbf398c0aa8a34b3666f0746e590602001610694565b5f5f5f5f610fd785611044565b604080515f8152602081018083528b905260ff8316918101919091526060810184905260808101839052929550909350915060019060a0016020604051602081039080840390855afa15801561102f573d5f5f3e3d5ffd5b5050604051601f190151979650505050505050565b5f5f5f83516041146110985760405162461bcd60e51b815260206004820152601860248201527f496e76616c6964207369676e6174757265206c656e67746800000000000000006044820152606401610422565b5050506020810151604082015160609092015190925f9190911a90565b80356001600160a01b03811681146110cb575f5ffd5b919050565b5f602082840312156110e0575f5ffd5b6110e9826110b5565b9392505050565b5f5f60408385031215611101575f5ffd5b61110a836110b5565b91506020830135801515811461111e575f5ffd5b809150509250929050565b5f60208284031215611139575f5ffd5b5035919050565b634e487b7160e01b5f52604160045260245ffd5b5f5f67ffffffffffffffff84111561116e5761116e611140565b50604051601f19601f85018116603f0116810181811067ffffffffffffffff8211171561119d5761119d611140565b6040528381529050808284018510156111b4575f5ffd5b838360208301375f60208583010152509392505050565b5f82601f8301126111da575f5ffd5b6110e983833560208501611154565b5f5f604083850312156111fa575f5ffd5b82359150602083013567ffffffffffffffff811115611217575f5ffd5b611223858286016111cb565b9150509250929050565b5f81518084528060208401602086015e5f602082860101526020601f19601f83011685010191505092915050565b602081525f825160a0602084015261127660c084018261122d565b9050602084015160408401526040840151606084015260018060a01b0360608501511660808401526080840151151560a08401528091505092915050565b5f5f5f606084860312156112c6575f5ffd5b83359250602084013567ffffffffffffffff8111156112e3575f5ffd5b6112ef868287016111cb565b93969395505050506040919091013590565b5f5f60408385031215611312575f5ffd5b61131b836110b5565b9150602083013567ffffffffffffffff811115611336575f5ffd5b8301601f81018513611346575f5ffd5b61122385823560208401611154565b60a081525f61136760a083018861122d565b60208301969096525060408101939093526001600160a01b039190911660608301521515608090910152919050565b602080825260139082015272151c995948191bd95cc81b9bdd08195e1a5cdd606a1b604082015260600190565b600181811c908216806113d757607f821691505b6020821081036113f557634e487b7160e01b5f52602260045260245ffd5b50919050565b601f82111561144257805f5260205f20601f840160051c810160208510156114205750805b601f840160051c820191505b8181101561143f575f815560010161142c565b50505b505050565b815167ffffffffffffffff81111561146157611461611140565b6114758161146f84546113c3565b846113fb565b6020601f8211600181146114a7575f83156114905750848201515b5f19600385901b1c1916600184901b17845561143f565b5f84815260208120601f198516915b828110156114d657878501518255602094850194600190920191016114b6565b50848210156114f357868401515f19600387901b60f8161c191681555b50505050600190811b01905550565b604081525f611514604083018561122d565b905060018060a01b03831660208301529392505050565b608081525f61153d608083018761122d565b6020830195909552506001600160a01b0392909216604083015260609091015291905056fea264697066735822122027db8834ddea74fcc253d9ae9c51354e1ad13c616070691ac97019432285904e64736f6c634300081c0033",
  "linkReferences": {},
  "deployedLinkReferences": {},
  "immutableReferences": {},
  "inputSourceName": "project/contracts/MerkleProof.sol",
  "buildInfoId": "solc-0_8_28-60b41c619dd866f619c33824e322d47bc5ccb47c"
}