{
  "_format": "hh3-artifact-1",
  "contractName": "MerkleProofValidator",
  "sourceName": "contracts/MerkleValidator.sol",
  "abi": [
    {
      "inputs": [],
      "stateMutability": "nonpayable",
      "type": "constructor"
    },
    {
      "inputs": [
        {
          "internalType": "address",
          "name": "owner",
          "type": "address"
        }
      ],
      "name": "OwnableInvalidOwner",
      "type": "error"
    },
    {
      "inputs": [
        {
          "internalType": "address",
          "name": "account",
          "type": "address"
        }
      ],
      "name": "OwnableUnauthorizedAccount",
      "type": "error"
    },
    {
      "anonymous": false,
      "inputs": [
        {
          "indexed": true,
          "internalType": "bytes32",
          "name": "merkleRoot",
          "type": "bytes32"
        },
        {
          "indexed": false,
          "internalType": "string",
          "name": "description",
          "type": "string"
        },
        {
          "indexed": false,
          "internalType": "address",
          "name": "creator",
          "type": "address"
        }
      ],
      "name": "MerkleRootRegistered",
      "type": "event"
    },
    {
      "anonymous": false,
      "inputs": [
        {
          "indexed": true,
          "internalType": "address",
          "name": "previousOwner",
          "type": "address"
        },
        {
          "indexed": true,
          "internalType": "address",
          "name": "newOwner",
          "type": "address"
        }
      ],
      "name": "OwnershipTransferred",
      "type": "event"
    },
    {
      "anonymous": false,
      "inputs": [
        {
          "indexed": true,
          "internalType": "bytes32",
          "name": "merkleRoot",
          "type": "bytes32"
        },
        {
          "indexed": true,
          "internalType": "address",
          "name": "user",
          "type": "address"
        },
        {
          "indexed": false,
          "internalType": "bool",
          "name": "isValid",
          "type": "bool"
        }
      ],
      "name": "ProofValidated",
      "type": "event"
    },
    {
      "inputs": [
        {
          "internalType": "address",
          "name": "addr",
          "type": "address"
        }
      ],
      "name": "getLeaf",
      "outputs": [
        {
          "internalType": "bytes32",
          "name": "",
          "type": "bytes32"
        }
      ],
      "stateMutability": "pure",
      "type": "function"
    },
    {
      "inputs": [
        {
          "internalType": "bytes32",
          "name": "merkleRoot",
          "type": "bytes32"
        }
      ],
      "name": "getValidationStats",
      "outputs": [
        {
          "internalType": "string",
          "name": "description",
          "type": "string"
        },
        {
          "internalType": "address",
          "name": "creator",
          "type": "address"
        },
        {
          "internalType": "uint256",
          "name": "timestamp",
          "type": "uint256"
        },
        {
          "internalType": "uint256",
          "name": "validationCount",
          "type": "uint256"
        },
        {
          "internalType": "bool",
          "name": "isActive",
          "type": "bool"
        }
      ],
      "stateMutability": "view",
      "type": "function"
    },
    {
      "inputs": [],
      "name": "owner",
      "outputs": [
        {
          "internalType": "address",
          "name": "",
          "type": "address"
        }
      ],
      "stateMutability": "view",
      "type": "function"
    },
    {
      "inputs": [
        {
          "internalType": "bytes32",
          "name": "merkleRoot",
          "type": "bytes32"
        },
        {
          "internalType": "string",
          "name": "description",
          "type": "string"
        }
      ],
      "name": "registerMerkleRoot",
      "outputs": [],
      "stateMutability": "nonpayable",
      "type": "function"
    },
    {
      "inputs": [],
      "name": "renounceOwnership",
      "outputs": [],
      "stateMutability": "nonpayable",
      "type": "function"
    },
    {
      "inputs": [
        {
          "internalType": "bytes32",
          "name": "merkleRoot",
          "type": "bytes32"
        },
        {
          "internalType": "bool",
          "name": "isActive",
          "type": "bool"
        }
      ],
      "name": "setMerkleRootStatus",
      "outputs": [],
      "stateMutability": "nonpayable",
      "type": "function"
    },
    {
      "inputs": [
        {
          "internalType": "address",
          "name": "newOwner",
          "type": "address"
        }
      ],
      "name": "transferOwnership",
      "outputs": [],
      "stateMutability": "nonpayable",
      "type": "function"
    },
    {
      "inputs": [
        {
          "internalType": "bytes32",
          "name": "merkleRoot",
          "type": "bytes32"
        },
        {
          "internalType": "bytes32[]",
          "name": "proof",
          "type": "bytes32[]"
        },
        {
          "internalType": "bytes32",
          "name": "leaf",
          "type": "bytes32"
        }
      ],
      "name": "validateProof",
      "outputs": [
        {
          "internalType": "bool",
          "name": "",
          "type": "bool"
        }
      ],
      "stateMutability": "nonpayable",
      "type": "function"
    },
    {
      "inputs": [
        {
          "internalType": "bytes32",
          "name": "merkleRoot",
          "type": "bytes32"
        },
        {
          "internalType": "bytes32[]",
          "name": "proof",
          "type": "bytes32[]"
        },
        {
          "internalType": "bytes32",
          "name": "leaf",
          "type": "bytes32"
        }
      ],
      "name": "validateProofView",
      "outputs": [
        {
          "internalType": "bool",
          "name": "",
          "type": "bool"
        }
      ],
      "stateMutability": "view",
      "type": "function"
    },
    {
      "inputs": [
        {
          "internalType": "bytes32",
          "name": "",
          "type": "bytes32"
        }
      ],
      "name": "validationData",
      "outputs": [
        {
          "internalType": "string",
          "name": "description",
          "type": "string"
        },
        {
          "internalType": "address",
          "name": "creator",
          "type": "address"
        },
        {
          "internalType": "uint256",
          "name": "timestamp",
          "type": "uint256"
        },
        {
          "internalType": "uint256",
          "name": "validationCount",
          "type": "uint256"
        },
        {
          "internalType": "bool",
          "name": "isActive",
          "type": "bool"
        }
      ],
      "stateMutability": "view",
      "type": "function"
    }
  ],
  "bytecode": "0x6080604052348015600e575f5ffd5b503380603357604051631e4fbdf760e01b81525f600482015260240160405180910390fd5b603a81603f565b50608e565b5f80546001600160a01b038381166001600160a01b0319831681178455604051919092169283917f8be0079c531659141344cd1fd0a4f28419497f9722a3daafe3b4186f6b6457e09190a35050565b610c598061009b5f395ff3fe608060405234801561000f575f5ffd5b506004361061009b575f3560e01c80638da5cb5b116100635780638da5cb5b1461011f57806398687ef014610139578063cbeca6531461014c578063d7f2c7e6146101a6578063f2fde38b146101b9575f5ffd5b80630f09c7ef1461009f578063490d67b0146100b457806360de9b60146100e15780636e1021e714610104578063715018a614610117575b5f5ffd5b6100b26100ad366004610895565b6101cc565b005b6100c76100c236600461090c565b61034c565b6040516100d8959493929190610923565b60405180910390f35b6100f46100ef36600461097f565b61040d565b60405190151581526020016100d8565b6100c761011236600461090c565b610456565b6100b2610571565b5f546040516001600160a01b0390911681526020016100d8565b6100f461014736600461097f565b610584565b61019861015a366004610a00565b6040516bffffffffffffffffffffffff19606083901b1660208201525f90603401604051602081830303815290604052805190602001209050919050565b6040519081526020016100d8565b6100b26101b4366004610a26565b610699565b6100b26101c7366004610a00565b610757565b5f83815260016020819052604090912001546001600160a01b0316156102395760405162461bcd60e51b815260206004820152601e60248201527f4d65726b6c6520726f6f7420616c72656164792072656769737465726564000060448201526064015b60405180910390fd5b6040518060a0016040528083838080601f0160208091040260200160405190810160405280939291908181526020018383808284375f9201829052509385525050336020808501919091524260408086019190915260608501849052600160809095018590528884529390525020815181906102b59082610af0565b5060208201516001820180546001600160a01b0319166001600160a01b039092169190911790556040808301516002830155606083015160038301556080909201516004909101805460ff19169115159190911790555183907f539c0a16f43b6250480dc0b416b46d54434c4eb893affeae00ea5a81fecd9d1d9061033f90859085903390610bab565b60405180910390a2505050565b60016020525f908152604090208054819061036690610a6c565b80601f016020809104026020016040519081016040528092919081815260200182805461039290610a6c565b80156103dd5780601f106103b4576101008083540402835291602001916103dd565b820191905f5260205f20905b8154815290600101906020018083116103c057829003601f168201915b5050505060018301546002840154600385015460049095015493946001600160a01b039092169390925060ff1685565b5f61044d8484808060200260200160405190810160405280939291908181526020018383602002808284375f920191909152508992508691506107949050565b95945050505050565b60605f5f5f5f5f60015f8881526020019081526020015f206040518060a00160405290815f8201805461048890610a6c565b80601f01602080910402602001604051908101604052809291908181526020018280546104b490610a6c565b80156104ff5780601f106104d6576101008083540402835291602001916104ff565b820191905f5260205f20905b8154815290600101906020018083116104e257829003601f168201915b505050918352505060018201546001600160a01b03166020808301919091526002830154604080840191909152600384015460608085019190915260049094015460ff16151560809384015284519185015190850151938501519490920151909b919a50919850919650945092505050565b6105796107a9565b6105825f6107d5565b565b5f8481526001602052604081206004015460ff166105f35760405162461bcd60e51b815260206004820152602660248201527f4d65726b6c6520726f6f74206e6f742072656769737465726564206f7220696e60448201526561637469766560d01b6064820152608401610230565b5f6106338585808060200260200160405190810160405280939291908181526020018383602002808284375f920191909152508a92508791506107949050565b5f87815260016020526040812060030180549293509061065283610beb565b90915550506040518115158152339087907f6a51e34ade11888216f1cce0771436c2e2e7bc4b8f80d489e4a9b52c3e8c24e49060200160405180910390a395945050505050565b5f82815260016020819052604090912001546001600160a01b03163314806106d95750336106ce5f546001600160a01b031690565b6001600160a01b0316145b6107355760405162461bcd60e51b815260206004820152602760248201527f4f6e6c792063726561746f72206f72206f776e65722063616e207570646174656044820152662073746174757360c81b6064820152608401610230565b5f91825260016020526040909120600401805460ff1916911515919091179055565b61075f6107a9565b6001600160a01b03811661078857604051631e4fbdf760e01b81525f6004820152602401610230565b610791816107d5565b50565b5f826107a08584610824565b14949350505050565b5f546001600160a01b031633146105825760405163118cdaa760e01b8152336004820152602401610230565b5f80546001600160a01b038381166001600160a01b0319831681178455604051919092169283917f8be0079c531659141344cd1fd0a4f28419497f9722a3daafe3b4186f6b6457e09190a35050565b5f81815b845181101561085e576108548286838151811061084757610847610c0f565b6020026020010151610866565b9150600101610828565b509392505050565b5f818310610880575f82815260208490526040902061088e565b5f8381526020839052604090205b9392505050565b5f5f5f604084860312156108a7575f5ffd5b83359250602084013567ffffffffffffffff8111156108c4575f5ffd5b8401601f810186136108d4575f5ffd5b803567ffffffffffffffff8111156108ea575f5ffd5b8660208284010111156108fb575f5ffd5b939660209190910195509293505050565b5f6020828403121561091c575f5ffd5b5035919050565b60a081525f86518060a0840152806020890160c085015e5f60c08285018101919091526001600160a01b03979097166020840152604083019590955250606081019290925215156080820152601f909101601f19160101919050565b5f5f5f5f60608587031215610992575f5ffd5b84359350602085013567ffffffffffffffff8111156109af575f5ffd5b8501601f810187136109bf575f5ffd5b803567ffffffffffffffff8111156109d5575f5ffd5b8760208260051b84010111156109e9575f5ffd5b949760209190910196509394604001359392505050565b5f60208284031215610a10575f5ffd5b81356001600160a01b038116811461088e575f5ffd5b5f5f60408385031215610a37575f5ffd5b8235915060208301358015158114610a4d575f5ffd5b809150509250929050565b634e487b7160e01b5f52604160045260245ffd5b600181811c90821680610a8057607f821691505b602082108103610a9e57634e487b7160e01b5f52602260045260245ffd5b50919050565b601f821115610aeb57805f5260205f20601f840160051c81016020851015610ac95750805b601f840160051c820191505b81811015610ae8575f8155600101610ad5565b50505b505050565b815167ffffffffffffffff811115610b0a57610b0a610a58565b610b1e81610b188454610a6c565b84610aa4565b6020601f821160018114610b50575f8315610b395750848201515b5f19600385901b1c1916600184901b178455610ae8565b5f84815260208120601f198516915b82811015610b7f5787850151825560209485019460019092019101610b5f565b5084821015610b9c57868401515f19600387901b60f8161c191681555b50505050600190811b01905550565b60408152826040820152828460608301375f60608483018101919091526001600160a01b03929092166020820152601f909201601f191690910101919050565b5f60018201610c0857634e487b7160e01b5f52601160045260245ffd5b5060010190565b634e487b7160e01b5f52603260045260245ffdfea2646970667358221220d067fa70661600d5cff8f68f6046e469bf12bba4ea24b35f9f5e475d6504173e64736f6c634300081c0033",
  "linkReferences": {},
  "deployedLinkReferences": {},
  "immutableReferences": {},
  "inputSourceName": "project/contracts/MerkleValidator.sol",
  "buildInfoId": "solc-0_8_28-360c6c2e6c519ce530f2381e3db3a29a3b70c9b4"
}